{
  "contractName": "CertixNFT",
  "abi": [
    {
      "inputs": [],
      "name": "ERC721EnumerableForbiddenBatchMint",
      "type": "error"
    },
    {
      "inputs": [
        {
          "internalType": "address",
          "name": "sender",
          "type": "address"
        },
        {
          "internalType": "uint256",
          "name": "tokenId",
          "type": "uint256"
        },
        {
          "internalType": "address",
          "name": "owner",
          "type": "address"
        }
      ],
      "name": "ERC721IncorrectOwner",
      "type": "error"
    },
    {
      "inputs": [
        {
          "internalType": "address",
          "name": "operator",
          "type": "address"
        },
        {
          "internalType": "uint256",
          "name": "tokenId",
          "type": "uint256"
        }
      ],
      "name": "ERC721InsufficientApproval",
      "type": "error"
    },
    {
      "inputs": [
        {
          "internalType": "address",
          "name": "approver",
          "type": "address"
        }
      ],
      "name": "ERC721InvalidApprover",
      "type": "error"
    },
    {
      "inputs": [
        {
          "internalType": "address",
          "name": "operator",
          "type": "address"
        }
      ],
      "name": "ERC721InvalidOperator",
      "type": "error"
    },
    {
      "inputs": [
        {
          "internalType": "address",
          "name": "owner",
          "type": "address"
        }
      ],
      "name": "ERC721InvalidOwner",
      "type": "error"
    },
    {
      "inputs": [
        {
          "internalType": "address",
          "name": "receiver",
          "type": "address"
        }
      ],
      "name": "ERC721InvalidReceiver",
      "type": "error"
    },
    {
      "inputs": [
        {
          "internalType": "address",
          "name": "sender",
          "type": "address"
        }
      ],
      "name": "ERC721InvalidSender",
      "type": "error"
    },
    {
      "inputs": [
        {
          "internalType": "uint256",
          "name": "tokenId",
          "type": "uint256"
        }
      ],
      "name": "ERC721NonexistentToken",
      "type": "error"
    },
    {
      "inputs": [
        {
          "internalType": "address",
          "name": "owner",
          "type": "address"
        },
        {
          "internalType": "uint256",
          "name": "index",
          "type": "uint256"
        }
      ],
      "name": "ERC721OutOfBoundsIndex",
      "type": "error"
    },
    {
      "inputs": [],
      "name": "InvalidInitialization",
      "type": "error"
    },
    {
      "inputs": [],
      "name": "NotInitializing",
      "type": "error"
    },
    {
      "inputs": [
        {
          "internalType": "address",
          "name": "owner",
          "type": "address"
        }
      ],
      "name": "OwnableInvalidOwner",
      "type": "error"
    },
    {
      "inputs": [
        {
          "internalType": "address",
          "name": "account",
          "type": "address"
        }
      ],
      "name": "OwnableUnauthorizedAccount",
      "type": "error"
    },
    {
      "anonymous": false,
      "inputs": [
        {
          "indexed": true,
          "internalType": "address",
          "name": "owner",
          "type": "address"
        },
        {
          "indexed": true,
          "internalType": "address",
          "name": "approved",
          "type": "address"
        },
        {
          "indexed": true,
          "internalType": "uint256",
          "name": "tokenId",
          "type": "uint256"
        }
      ],
      "name": "Approval",
      "type": "event"
    },
    {
      "anonymous": false,
      "inputs": [
        {
          "indexed": true,
          "internalType": "address",
          "name": "owner",
          "type": "address"
        },
        {
          "indexed": true,
          "internalType": "address",
          "name": "operator",
          "type": "address"
        },
        {
          "indexed": false,
          "internalType": "bool",
          "name": "approved",
          "type": "bool"
        }
      ],
      "name": "ApprovalForAll",
      "type": "event"
    },
    {
      "anonymous": false,
      "inputs": [
        {
          "indexed": false,
          "internalType": "uint256",
          "name": "_fromTokenId",
          "type": "uint256"
        },
        {
          "indexed": false,
          "internalType": "uint256",
          "name": "_toTokenId",
          "type": "uint256"
        }
      ],
      "name": "BatchMetadataUpdate",
      "type": "event"
    },
    {
      "anonymous": false,
      "inputs": [
        {
          "indexed": false,
          "internalType": "uint64",
          "name": "version",
          "type": "uint64"
        }
      ],
      "name": "Initialized",
      "type": "event"
    },
    {
      "anonymous": false,
      "inputs": [
        {
          "indexed": false,
          "internalType": "uint256",
          "name": "_tokenId",
          "type": "uint256"
        }
      ],
      "name": "MetadataUpdate",
      "type": "event"
    },
    {
      "anonymous": false,
      "inputs": [
        {
          "indexed": true,
          "internalType": "address",
          "name": "previousOwner",
          "type": "address"
        },
        {
          "indexed": true,
          "internalType": "address",
          "name": "newOwner",
          "type": "address"
        }
      ],
      "name": "OwnershipTransferred",
      "type": "event"
    },
    {
      "anonymous": false,
      "inputs": [
        {
          "indexed": true,
          "internalType": "address",
          "name": "from",
          "type": "address"
        },
        {
          "indexed": true,
          "internalType": "address",
          "name": "to",
          "type": "address"
        },
        {
          "indexed": true,
          "internalType": "uint256",
          "name": "tokenId",
          "type": "uint256"
        }
      ],
      "name": "Transfer",
      "type": "event"
    },
    {
      "inputs": [
        {
          "internalType": "address",
          "name": "to",
          "type": "address"
        },
        {
          "internalType": "uint256",
          "name": "tokenId",
          "type": "uint256"
        }
      ],
      "name": "approve",
      "outputs": [],
      "stateMutability": "nonpayable",
      "type": "function"
    },
    {
      "inputs": [
        {
          "internalType": "address",
          "name": "owner",
          "type": "address"
        }
      ],
      "name": "balanceOf",
      "outputs": [
        {
          "internalType": "uint256",
          "name": "",
          "type": "uint256"
        }
      ],
      "stateMutability": "view",
      "type": "function",
      "constant": true
    },
    {
      "inputs": [
        {
          "internalType": "uint256",
          "name": "tokenId",
          "type": "uint256"
        }
      ],
      "name": "getApproved",
      "outputs": [
        {
          "internalType": "address",
          "name": "",
          "type": "address"
        }
      ],
      "stateMutability": "view",
      "type": "function",
      "constant": true
    },
    {
      "inputs": [
        {
          "internalType": "address",
          "name": "owner",
          "type": "address"
        },
        {
          "internalType": "address",
          "name": "operator",
          "type": "address"
        }
      ],
      "name": "isApprovedForAll",
      "outputs": [
        {
          "internalType": "bool",
          "name": "",
          "type": "bool"
        }
      ],
      "stateMutability": "view",
      "type": "function",
      "constant": true
    },
    {
      "inputs": [
        {
          "internalType": "string",
          "name": "",
          "type": "string"
        }
      ],
      "name": "itemTypes",
      "outputs": [
        {
          "internalType": "uint256",
          "name": "supplyLimit",
          "type": "uint256"
        },
        {
          "internalType": "uint256",
          "name": "currentSupply",
          "type": "uint256"
        },
        {
          "internalType": "uint256",
          "name": "burnCount",
          "type": "uint256"
        },
        {
          "internalType": "uint256",
          "name": "goldWeightInGrams",
          "type": "uint256"
        }
      ],
      "stateMutability": "view",
      "type": "function",
      "constant": true
    },
    {
      "inputs": [
        {
          "internalType": "uint256",
          "name": "",
          "type": "uint256"
        }
      ],
      "name": "itemTypesList",
      "outputs": [
        {
          "internalType": "string",
          "name": "",
          "type": "string"
        }
      ],
      "stateMutability": "view",
      "type": "function",
      "constant": true
    },
    {
      "inputs": [],
      "name": "name",
      "outputs": [
        {
          "internalType": "string",
          "name": "",
          "type": "string"
        }
      ],
      "stateMutability": "view",
      "type": "function",
      "constant": true
    },
    {
      "inputs": [],
      "name": "owner",
      "outputs": [
        {
          "internalType": "address",
          "name": "",
          "type": "address"
        }
      ],
      "stateMutability": "view",
      "type": "function",
      "constant": true
    },
    {
      "inputs": [
        {
          "internalType": "uint256",
          "name": "tokenId",
          "type": "uint256"
        }
      ],
      "name": "ownerOf",
      "outputs": [
        {
          "internalType": "address",
          "name": "",
          "type": "address"
        }
      ],
      "stateMutability": "view",
      "type": "function",
      "constant": true
    },
    {
      "inputs": [],
      "name": "renounceOwnership",
      "outputs": [],
      "stateMutability": "nonpayable",
      "type": "function"
    },
    {
      "inputs": [
        {
          "internalType": "address",
          "name": "from",
          "type": "address"
        },
        {
          "internalType": "address",
          "name": "to",
          "type": "address"
        },
        {
          "internalType": "uint256",
          "name": "tokenId",
          "type": "uint256"
        }
      ],
      "name": "safeTransferFrom",
      "outputs": [],
      "stateMutability": "nonpayable",
      "type": "function"
    },
    {
      "inputs": [
        {
          "internalType": "address",
          "name": "from",
          "type": "address"
        },
        {
          "internalType": "address",
          "name": "to",
          "type": "address"
        },
        {
          "internalType": "uint256",
          "name": "tokenId",
          "type": "uint256"
        },
        {
          "internalType": "bytes",
          "name": "data",
          "type": "bytes"
        }
      ],
      "name": "safeTransferFrom",
      "outputs": [],
      "stateMutability": "nonpayable",
      "type": "function"
    },
    {
      "inputs": [
        {
          "internalType": "address",
          "name": "operator",
          "type": "address"
        },
        {
          "internalType": "bool",
          "name": "approved",
          "type": "bool"
        }
      ],
      "name": "setApprovalForAll",
      "outputs": [],
      "stateMutability": "nonpayable",
      "type": "function"
    },
    {
      "inputs": [],
      "name": "symbol",
      "outputs": [
        {
          "internalType": "string",
          "name": "",
          "type": "string"
        }
      ],
      "stateMutability": "view",
      "type": "function",
      "constant": true
    },
    {
      "inputs": [
        {
          "internalType": "uint256",
          "name": "index",
          "type": "uint256"
        }
      ],
      "name": "tokenByIndex",
      "outputs": [
        {
          "internalType": "uint256",
          "name": "",
          "type": "uint256"
        }
      ],
      "stateMutability": "view",
      "type": "function",
      "constant": true
    },
    {
      "inputs": [],
      "name": "tokenIdCounter",
      "outputs": [
        {
          "internalType": "uint256",
          "name": "",
          "type": "uint256"
        }
      ],
      "stateMutability": "view",
      "type": "function",
      "constant": true
    },
    {
      "inputs": [
        {
          "internalType": "uint256",
          "name": "",
          "type": "uint256"
        }
      ],
      "name": "tokenIdToItemType",
      "outputs": [
        {
          "internalType": "string",
          "name": "",
          "type": "string"
        }
      ],
      "stateMutability": "view",
      "type": "function",
      "constant": true
    },
    {
      "inputs": [
        {
          "internalType": "address",
          "name": "owner",
          "type": "address"
        },
        {
          "internalType": "uint256",
          "name": "index",
          "type": "uint256"
        }
      ],
      "name": "tokenOfOwnerByIndex",
      "outputs": [
        {
          "internalType": "uint256",
          "name": "",
          "type": "uint256"
        }
      ],
      "stateMutability": "view",
      "type": "function",
      "constant": true
    },
    {
      "inputs": [
        {
          "internalType": "string",
          "name": "",
          "type": "string"
        },
        {
          "internalType": "uint256",
          "name": "",
          "type": "uint256"
        }
      ],
      "name": "tokensByType",
      "outputs": [
        {
          "internalType": "uint256",
          "name": "",
          "type": "uint256"
        }
      ],
      "stateMutability": "view",
      "type": "function",
      "constant": true
    },
    {
      "inputs": [],
      "name": "totalSupply",
      "outputs": [
        {
          "internalType": "uint256",
          "name": "",
          "type": "uint256"
        }
      ],
      "stateMutability": "view",
      "type": "function",
      "constant": true
    },
    {
      "inputs": [
        {
          "internalType": "address",
          "name": "from",
          "type": "address"
        },
        {
          "internalType": "address",
          "name": "to",
          "type": "address"
        },
        {
          "internalType": "uint256",
          "name": "tokenId",
          "type": "uint256"
        }
      ],
      "name": "transferFrom",
      "outputs": [],
      "stateMutability": "nonpayable",
      "type": "function"
    },
    {
      "inputs": [
        {
          "internalType": "address",
          "name": "newOwner",
          "type": "address"
        }
      ],
      "name": "transferOwnership",
      "outputs": [],
      "stateMutability": "nonpayable",
      "type": "function"
    },
    {
      "inputs": [
        {
          "internalType": "string",
          "name": "_name",
          "type": "string"
        },
        {
          "internalType": "string",
          "name": "_symbol",
          "type": "string"
        }
      ],
      "name": "initialize",
      "outputs": [],
      "stateMutability": "nonpayable",
      "type": "function"
    },
    {
      "inputs": [
        {
          "internalType": "address",
          "name": "_to",
          "type": "address"
        },
        {
          "internalType": "string",
          "name": "_itemType",
          "type": "string"
        },
        {
          "internalType": "string",
          "name": "_uri",
          "type": "string"
        }
      ],
      "name": "mint",
      "outputs": [],
      "stateMutability": "nonpayable",
      "type": "function"
    },
    {
      "inputs": [
        {
          "internalType": "address",
          "name": "_owner",
          "type": "address"
        }
      ],
      "name": "tokensOfOwner",
      "outputs": [
        {
          "internalType": "uint256[]",
          "name": "",
          "type": "uint256[]"
        }
      ],
      "stateMutability": "view",
      "type": "function",
      "constant": true
    },
    {
      "inputs": [
        {
          "internalType": "string[]",
          "name": "_itemTypes",
          "type": "string[]"
        }
      ],
      "name": "getItemsDetails",
      "outputs": [
        {
          "components": [
            {
              "internalType": "uint256",
              "name": "supplyLimit",
              "type": "uint256"
            },
            {
              "internalType": "uint256",
              "name": "currentSupply",
              "type": "uint256"
            },
            {
              "internalType": "uint256",
              "name": "burnCount",
              "type": "uint256"
            },
            {
              "internalType": "uint256",
              "name": "goldWeightInGrams",
              "type": "uint256"
            }
          ],
          "internalType": "struct CertixNFT.ItemType[]",
          "name": "",
          "type": "tuple[]"
        }
      ],
      "stateMutability": "view",
      "type": "function",
      "constant": true
    },
    {
      "inputs": [],
      "name": "getAllItemsDetails",
      "outputs": [
        {
          "components": [
            {
              "internalType": "uint256",
              "name": "supplyLimit",
              "type": "uint256"
            },
            {
              "internalType": "uint256",
              "name": "currentSupply",
              "type": "uint256"
            },
            {
              "internalType": "uint256",
              "name": "burnCount",
              "type": "uint256"
            },
            {
              "internalType": "uint256",
              "name": "goldWeightInGrams",
              "type": "uint256"
            }
          ],
          "internalType": "struct CertixNFT.ItemType[]",
          "name": "",
          "type": "tuple[]"
        }
      ],
      "stateMutability": "view",
      "type": "function",
      "constant": true
    },
    {
      "inputs": [],
      "name": "getAllTypes",
      "outputs": [
        {
          "internalType": "string[]",
          "name": "",
          "type": "string[]"
        }
      ],
      "stateMutability": "view",
      "type": "function",
      "constant": true
    },
    {
      "inputs": [
        {
          "internalType": "uint256",
          "name": "_tokenId",
          "type": "uint256"
        }
      ],
      "name": "burn",
      "outputs": [],
      "stateMutability": "nonpayable",
      "type": "function"
    },
    {
      "inputs": [
        {
          "internalType": "string",
          "name": "_itemType",
          "type": "string"
        },
        {
          "internalType": "uint256",
          "name": "_supplyLimit",
          "type": "uint256"
        },
        {
          "internalType": "uint256",
          "name": "_goldWeightInGrams",
          "type": "uint256"
        }
      ],
      "name": "defineItemType",
      "outputs": [],
      "stateMutability": "nonpayable",
      "type": "function"
    },
    {
      "inputs": [
        {
          "internalType": "string",
          "name": "_itemType",
          "type": "string"
        },
        {
          "internalType": "uint256",
          "name": "_supplyLimit",
          "type": "uint256"
        }
      ],
      "name": "setItemSupplyLimit",
      "outputs": [],
      "stateMutability": "nonpayable",
      "type": "function"
    },
    {
      "inputs": [
        {
          "internalType": "string",
          "name": "_itemType",
          "type": "string"
        },
        {
          "internalType": "uint256",
          "name": "_goldWeightInGrams",
          "type": "uint256"
        }
      ],
      "name": "setItemGoldWeight",
      "outputs": [],
      "stateMutability": "nonpayable",
      "type": "function"
    },
    {
      "inputs": [
        {
          "internalType": "uint256",
          "name": "_tokenId",
          "type": "uint256"
        }
      ],
      "name": "tokenURI",
      "outputs": [
        {
          "internalType": "string",
          "name": "",
          "type": "string"
        }
      ],
      "stateMutability": "view",
      "type": "function",
      "constant": true
    },
    {
      "inputs": [
        {
          "internalType": "bytes4",
          "name": "interfaceId",
          "type": "bytes4"
        }
      ],
      "name": "supportsInterface",
      "outputs": [
        {
          "internalType": "bool",
          "name": "",
          "type": "bool"
        }
      ],
      "stateMutability": "view",
      "type": "function",
      "constant": true
    }
  ],
  "bytecode": "0x608060405234801561000f575f80fd5b5061464a8061001d5f395ff3fe608060405234801561000f575f80fd5b5060043610610204575f3560e01c8063715018a611610118578063a0ea3b8b116100ab578063d417c2d91161007a578063d417c2d914610623578063e92689211461063f578063e985e9c51461066f578063f2fde38b1461069f578063fc674aa3146106bb57610204565b8063a0ea3b8b1461058b578063a22cb465146105bb578063b88d4fde146105d7578063c87b56dd146105f357610204565b80638da5cb5b116100e75780638da5cb5b1461051557806395d89b411461053357806398bdf6f514610551578063990711901461056f57610204565b8063715018a61461047857806375522fb4146104825780638462151c146104b257806389ffb8a5146104e257610204565b80632f745c591161019b5780634cd88b761161016a5780634cd88b76146103b05780634f6ccce7146103cc5780636352211e146103fc5780636df3f7fd1461042c57806370a082311461044857610204565b80632f745c591461031857806342842e0e1461034857806342966c68146103645780634b5c79741461038057610204565b806309dddcf0116101d757806309dddcf0146102a2578063164176d0146102c057806318160ddd146102de57806323b872dd146102fc57610204565b806301ffc9a71461020857806306fdde0314610238578063081812fc14610256578063095ea7b314610286575b5f80fd5b610222600480360381019061021d919061320a565b6106d7565b60405161022f919061324f565b60405180910390f35b6102406106e8565b60405161024d91906132f2565b60405180910390f35b610270600480360381019061026b9190613345565b610785565b60405161027d91906133af565b60405180910390f35b6102a0600480360381019061029b91906133f2565b6107a0565b005b6102aa6107b6565b6040516102b79190613533565b60405180910390f35b6102c861088a565b6040516102d5919061365d565b60405180910390f35b6102e6610966565b6040516102f3919061368c565b60405180910390f35b610316600480360381019061031191906136a5565b610980565b005b610332600480360381019061032d91906133f2565b610a7f565b60405161033f919061368c565b60405180910390f35b610362600480360381019061035d91906136a5565b610b30565b005b61037e60048036038101906103799190613345565b610b4f565b005b61039a60048036038101906103959190613345565b610bab565b6040516103a791906132f2565b60405180910390f35b6103ca60048036038101906103c59190613821565b610c51565b005b6103e660048036038101906103e19190613345565b610de5565b6040516103f3919061368c565b60405180910390f35b61041660048036038101906104119190613345565b610e65565b60405161042391906133af565b60405180910390f35b61044660048036038101906104419190613897565b610e76565b005b610462600480360381019061045d9190613903565b610f45565b60405161046f919061368c565b60405180910390f35b610480611009565b005b61049c6004803603810190610497919061392e565b61101c565b6040516104a9919061368c565b60405180910390f35b6104cc60048036038101906104c79190613903565b61105f565b6040516104d99190613a30565b60405180910390f35b6104fc60048036038101906104f79190613a50565b611163565b60405161050c9493929190613a97565b60405180910390f35b61051d6111a7565b60405161052a91906133af565b60405180910390f35b61053b6111dc565b60405161054891906132f2565b60405180910390f35b61055961127a565b604051610566919061368c565b60405180910390f35b61058960048036038101906105849190613ada565b61127f565b005b6105a560048036038101906105a09190613345565b6113a5565b6040516105b291906132f2565b60405180910390f35b6105d560048036038101906105d09190613b8c565b611440565b005b6105f160048036038101906105ec9190613c68565b611456565b005b61060d60048036038101906106089190613345565b611473565b60405161061a91906132f2565b60405180910390f35b61063d6004803603810190610638919061392e565b611485565b005b61065960048036038101906106549190613dca565b611519565b604051610666919061365d565b60405180910390f35b61068960048036038101906106849190613e11565b611665565b604051610696919061324f565b60405180910390f35b6106b960048036038101906106b49190613903565b611701565b005b6106d560048036038101906106d0919061392e565b611785565b005b5f6106e182611818565b9050919050565b60605f6106f3611878565b9050805f01805461070390613e7c565b80601f016020809104026020016040519081016040528092919081815260200182805461072f90613e7c565b801561077a5780601f106107515761010080835404028352916020019161077a565b820191905f5260205f20905b81548152906001019060200180831161075d57829003601f168201915b505050505091505090565b5f61078f8261189f565b5061079982611925565b9050919050565b6107b282826107ad61196c565b611973565b5050565b60606004805480602002602001604051908101604052809291908181526020015f905b82821015610881578382905f5260205f200180546107f690613e7c565b80601f016020809104026020016040519081016040528092919081815260200182805461082290613e7c565b801561086d5780601f106108445761010080835404028352916020019161086d565b820191905f5260205f20905b81548152906001019060200180831161085057829003601f168201915b5050505050815260200190600101906107d9565b50505050905090565b60606109616004805480602002602001604051908101604052809291908181526020015f905b82821015610958578382905f5260205f200180546108cd90613e7c565b80601f01602080910402602001604051908101604052809291908181526020018280546108f990613e7c565b80156109445780601f1061091b57610100808354040283529160200191610944565b820191905f5260205f20905b81548152906001019060200180831161092757829003601f168201915b5050505050815260200190600101906108b0565b50505050611519565b905090565b5f80610970611985565b9050806002018054905091505090565b5f73ffffffffffffffffffffffffffffffffffffffff168273ffffffffffffffffffffffffffffffffffffffff16036109f0575f6040517f64a0ae920000000000000000000000000000000000000000000000000000000081526004016109e791906133af565b60405180910390fd5b5f610a0383836109fe61196c565b6119ac565b90508373ffffffffffffffffffffffffffffffffffffffff168173ffffffffffffffffffffffffffffffffffffffff1614610a79578382826040517f64283d7b000000000000000000000000000000000000000000000000000000008152600401610a7093929190613eac565b60405180910390fd5b50505050565b5f80610a89611985565b9050610a9484610f45565b8310610ad95783836040517fa57d13dc000000000000000000000000000000000000000000000000000000008152600401610ad0929190613ee1565b60405180910390fd5b805f015f8573ffffffffffffffffffffffffffffffffffffffff1673ffffffffffffffffffffffffffffffffffffffff1681526020019081526020015f205f8481526020019081526020015f205491505092915050565b610b4a83838360405180602001604052805f815250611456565b505050565b610b576119c1565b610b6081611a48565b6001600260015f8481526020019081526020015f20604051610b829190613fa4565b90815260200160405180910390206002015f828254610ba19190613fe7565b9250508190555050565b60048181548110610bba575f80fd5b905f5260205f20015f915090508054610bd290613e7c565b80601f0160208091040260200160405190810160405280929190818152602001828054610bfe90613e7c565b8015610c495780601f10610c2057610100808354040283529160200191610c49565b820191905f5260205f20905b815481529060010190602001808311610c2c57829003601f168201915b505050505081565b5f610c5a611aca565b90505f815f0160089054906101000a900460ff161590505f825f015f9054906101000a900467ffffffffffffffff1690505f808267ffffffffffffffff16148015610ca25750825b90505f60018367ffffffffffffffff16148015610cd557505f3073ffffffffffffffffffffffffffffffffffffffff163b145b905081158015610ce3575080155b15610d1a576040517ff92ee8a900000000000000000000000000000000000000000000000000000000815260040160405180910390fd5b6001855f015f6101000a81548167ffffffffffffffff021916908367ffffffffffffffff1602179055508315610d67576001855f0160086101000a81548160ff0219169083151502179055505b610d718787611af1565b610d79611b07565b610d8233611b11565b8315610ddc575f855f0160086101000a81548160ff0219169083151502179055507fc7f505b2f371ae2175ee4913f4499e1f2633a7b5936321eed1cdaeb6115181d26001604051610dd3919061406f565b60405180910390a15b50505050505050565b5f80610def611985565b9050610df9610966565b8310610e3e575f836040517fa57d13dc000000000000000000000000000000000000000000000000000000008152600401610e35929190613ee1565b60405180910390fd5b806002018381548110610e5457610e53614088565b5b905f5260205f200154915050919050565b5f610e6f8261189f565b9050919050565b610e7e6119c1565b5f600284604051610e8f91906140e5565b90815260200160405180910390205f015403610ed857600483908060018154018082558091505060019003905f5260205f20015f909190919091509081610ed6919061427d565b505b60405180608001604052808381526020015f81526020015f815260200182815250600284604051610f0991906140e5565b90815260200160405180910390205f820151815f0155602082015181600101556040820151816002015560608201518160030155905050505050565b5f80610f4f611878565b90505f73ffffffffffffffffffffffffffffffffffffffff168373ffffffffffffffffffffffffffffffffffffffff1603610fc1575f6040517f89c62b64000000000000000000000000000000000000000000000000000000008152600401610fb891906133af565b60405180910390fd5b806003015f8473ffffffffffffffffffffffffffffffffffffffff1673ffffffffffffffffffffffffffffffffffffffff1681526020019081526020015f2054915050919050565b6110116119c1565b61101a5f611b25565b565b600382805160208101820180518482526020830160208501208183528095505050505050818154811061104d575f80fd5b905f5260205f20015f91509150505481565b60605f61106b83610f45565b90505f81036110c5575f67ffffffffffffffff81111561108e5761108d6136fd565b5b6040519080825280602002602001820160405280156110bc5781602001602082028036833780820191505090505b5091505061115e565b5f8167ffffffffffffffff8111156110e0576110df6136fd565b5b60405190808252806020026020018201604052801561110e5781602001602082028036833780820191505090505b5090505f5b82811015611157576111258582610a7f565b82828151811061113857611137614088565b5b602002602001018181525050808061114f9061434c565b915050611113565b5080925050505b919050565b6002818051602081018201805184825260208301602085012081835280955050505050505f91509050805f0154908060010154908060020154908060030154905084565b5f806111b1611bf6565b9050805f015f9054906101000a900473ffffffffffffffffffffffffffffffffffffffff1691505090565b60605f6111e7611878565b90508060010180546111f890613e7c565b80601f016020809104026020016040519081016040528092919081815260200182805461122490613e7c565b801561126f5780601f106112465761010080835404028352916020019161126f565b820191905f5260205f20905b81548152906001019060200180831161125257829003601f168201915b505050505091505090565b5f5481565b6112876119c1565b5f60028360405161129891906140e5565b90815260200160405180910390209050805f01548160010154106112f1576040517f08c379a00000000000000000000000000000000000000000000000000000000081526004016112e890614403565b60405180910390fd5b5f805490506001826001015f82825461130a9190613fe7565b9250508190555060015f808282546113229190613fe7565b925050819055508360015f8381526020019081526020015f209081611347919061427d565b5060038460405161135891906140e5565b908152602001604051809103902081908060018154018082558091505060019003905f5260205f20015f90919091909150556113948582611c1d565b61139e8184611c3a565b5050505050565b6001602052805f5260405f205f9150905080546113c190613e7c565b80601f01602080910402602001604051908101604052809291908181526020018280546113ed90613e7c565b80156114385780601f1061140f57610100808354040283529160200191611438565b820191905f5260205f20905b81548152906001019060200180831161141b57829003601f168201915b505050505081565b61145261144b61196c565b8383611ca1565b5050565b611461848484610980565b61146d84848484611e18565b50505050565b606061147e82611fca565b9050919050565b61148d6119c1565b5f60028360405161149e91906140e5565b90815260200160405180910390205f0154036114ef576040517f08c379a00000000000000000000000000000000000000000000000000000000081526004016114e69061446b565b60405180910390fd5b8060028360405161150091906140e5565b9081526020016040518091039020600301819055505050565b60605f825167ffffffffffffffff811115611537576115366136fd565b5b60405190808252806020026020018201604052801561157057816020015b61155d613180565b8152602001906001900390816115555790505b5090505f5b835181101561165b575f600285838151811061159457611593614088565b5b60200260200101516040516115a991906140e5565b90815260200160405180910390205f0154146116485760028482815181106115d4576115d3614088565b5b60200260200101516040516115e991906140e5565b90815260200160405180910390206040518060800160405290815f8201548152602001600182015481526020016002820154815260200160038201548152505082828151811061163c5761163b614088565b5b60200260200101819052505b80806116539061434c565b915050611575565b5080915050919050565b5f8061166f611878565b9050806005015f8573ffffffffffffffffffffffffffffffffffffffff1673ffffffffffffffffffffffffffffffffffffffff1681526020019081526020015f205f8473ffffffffffffffffffffffffffffffffffffffff1673ffffffffffffffffffffffffffffffffffffffff1681526020019081526020015f205f9054906101000a900460ff1691505092915050565b6117096119c1565b5f73ffffffffffffffffffffffffffffffffffffffff168173ffffffffffffffffffffffffffffffffffffffff1603611779575f6040517f1e4fbdf700000000000000000000000000000000000000000000000000000000815260040161177091906133af565b60405180910390fd5b61178281611b25565b50565b61178d6119c1565b5f60028360405161179e91906140e5565b90815260200160405180910390205f0154036117ef576040517f08c379a00000000000000000000000000000000000000000000000000000000081526004016117e69061446b565b60405180910390fd5b8060028360405161180091906140e5565b90815260200160405180910390205f01819055505050565b5f634906490660e01b7bffffffffffffffffffffffffffffffffffffffffffffffffffffffff1916827bffffffffffffffffffffffffffffffffffffffffffffffffffffffff191614806118715750611870826120e4565b5b9050919050565b5f7f80bb2b638cc20bc4d0a60d66940f3ab4a00c1d7b313497ca82fb0b4ab0079300905090565b5f806118aa8361215d565b90505f73ffffffffffffffffffffffffffffffffffffffff168173ffffffffffffffffffffffffffffffffffffffff160361191c57826040517f7e273289000000000000000000000000000000000000000000000000000000008152600401611913919061368c565b60405180910390fd5b80915050919050565b5f8061192f611878565b9050806004015f8481526020019081526020015f205f9054906101000a900473ffffffffffffffffffffffffffffffffffffffff16915050919050565b5f33905090565b61198083838360016121a4565b505050565b5f7f645e039705490088daad89bae25049a34f4a9072d398537b1ab2425f24cbed00905090565b5f6119b8848484612371565b90509392505050565b6119c961196c565b73ffffffffffffffffffffffffffffffffffffffff166119e76111a7565b73ffffffffffffffffffffffffffffffffffffffff1614611a4657611a0a61196c565b6040517f118cdaa7000000000000000000000000000000000000000000000000000000008152600401611a3d91906133af565b60405180910390fd5b565b5f611a545f835f6119ac565b90505f73ffffffffffffffffffffffffffffffffffffffff168173ffffffffffffffffffffffffffffffffffffffff1603611ac657816040517f7e273289000000000000000000000000000000000000000000000000000000008152600401611abd919061368c565b60405180910390fd5b5050565b5f7ff0c57e16840df040f15088dc2f81fe391c3923bec73e23a9662efc9c229c6a00905090565b611af961248b565b611b0382826124cb565b5050565b611b0f61248b565b565b611b1961248b565b611b2281612506565b50565b5f611b2e611bf6565b90505f815f015f9054906101000a900473ffffffffffffffffffffffffffffffffffffffff16905082825f015f6101000a81548173ffffffffffffffffffffffffffffffffffffffff021916908373ffffffffffffffffffffffffffffffffffffffff1602179055508273ffffffffffffffffffffffffffffffffffffffff168173ffffffffffffffffffffffffffffffffffffffff167f8be0079c531659141344cd1fd0a4f28419497f9722a3daafe3b4186f6b6457e060405160405180910390a3505050565b5f7f9016d09d72d40fdae2fd8ceac6b6234c7706214fd39c1cd1e609a0528c199300905090565b611c36828260405180602001604052805f81525061258a565b5050565b5f611c436125a5565b905081815f015f8581526020019081526020015f209081611c64919061427d565b507ff8e1a15aba9398e019f0b49df1a4fde98ee17ae345cb5f6b5e2c27f5033e8ce783604051611c94919061368c565b60405180910390a1505050565b5f611caa611878565b90505f73ffffffffffffffffffffffffffffffffffffffff168373ffffffffffffffffffffffffffffffffffffffff1603611d1c57826040517f5b08ba18000000000000000000000000000000000000000000000000000000008152600401611d1391906133af565b60405180910390fd5b81816005015f8673ffffffffffffffffffffffffffffffffffffffff1673ffffffffffffffffffffffffffffffffffffffff1681526020019081526020015f205f8573ffffffffffffffffffffffffffffffffffffffff1673ffffffffffffffffffffffffffffffffffffffff1681526020019081526020015f205f6101000a81548160ff0219169083151502179055508273ffffffffffffffffffffffffffffffffffffffff168473ffffffffffffffffffffffffffffffffffffffff167f17307eab39ab6107e8899845ad3d59bd9653f200f220920489ca2b5937696c3184604051611e0a919061324f565b60405180910390a350505050565b5f8373ffffffffffffffffffffffffffffffffffffffff163b1115611fc4578273ffffffffffffffffffffffffffffffffffffffff1663150b7a02611e5b61196c565b8685856040518563ffffffff1660e01b8152600401611e7d94939291906144db565b6020604051808303815f875af1925050508015611eb857506040513d601f19601f82011682018060405250810190611eb59190614539565b60015b611f39573d805f8114611ee6576040519150601f19603f3d011682016040523d82523d5f602084013e611eeb565b606091505b505f815103611f3157836040517f64a0ae92000000000000000000000000000000000000000000000000000000008152600401611f2891906133af565b60405180910390fd5b805181602001fd5b63150b7a0260e01b7bffffffffffffffffffffffffffffffffffffffffffffffffffffffff1916817bffffffffffffffffffffffffffffffffffffffffffffffffffffffff191614611fc257836040517f64a0ae92000000000000000000000000000000000000000000000000000000008152600401611fb991906133af565b60405180910390fd5b505b50505050565b60605f611fd56125a5565b9050611fe08361189f565b505f815f015f8581526020019081526020015f208054611fff90613e7c565b80601f016020809104026020016040519081016040528092919081815260200182805461202b90613e7c565b80156120765780601f1061204d57610100808354040283529160200191612076565b820191905f5260205f20905b81548152906001019060200180831161205957829003601f168201915b505050505090505f6120866125cc565b90505f81510361209b578193505050506120df565b5f825111156120d05780826040516020016120b7929190614564565b60405160208183030381529060405293505050506120df565b6120d9856125e2565b93505050505b919050565b5f7f780e9d63000000000000000000000000000000000000000000000000000000007bffffffffffffffffffffffffffffffffffffffffffffffffffffffff1916827bffffffffffffffffffffffffffffffffffffffffffffffffffffffff19161480612156575061215582612648565b5b9050919050565b5f80612167611878565b9050806002015f8481526020019081526020015f205f9054906101000a900473ffffffffffffffffffffffffffffffffffffffff16915050919050565b5f6121ad611878565b905081806121e757505f73ffffffffffffffffffffffffffffffffffffffff168373ffffffffffffffffffffffffffffffffffffffff1614155b15612319575f6121f68561189f565b90505f73ffffffffffffffffffffffffffffffffffffffff168473ffffffffffffffffffffffffffffffffffffffff161415801561226057508373ffffffffffffffffffffffffffffffffffffffff168173ffffffffffffffffffffffffffffffffffffffff1614155b801561227357506122718185611665565b155b156122b557836040517fa9fbf51f0000000000000000000000000000000000000000000000000000000081526004016122ac91906133af565b60405180910390fd5b821561231757848673ffffffffffffffffffffffffffffffffffffffff168273ffffffffffffffffffffffffffffffffffffffff167f8c5be1e5ebec7d5bd14f71427d1e84f3dd0314c0f7b2291e5b200ac8c7c3b92560405160405180910390a45b505b84816004015f8681526020019081526020015f205f6101000a81548173ffffffffffffffffffffffffffffffffffffffff021916908373ffffffffffffffffffffffffffffffffffffffff1602179055505050505050565b5f8061237e858585612729565b90505f73ffffffffffffffffffffffffffffffffffffffff168173ffffffffffffffffffffffffffffffffffffffff16036123c1576123bc84612946565b612400565b8473ffffffffffffffffffffffffffffffffffffffff168173ffffffffffffffffffffffffffffffffffffffff16146123ff576123fe818561299c565b5b5b5f73ffffffffffffffffffffffffffffffffffffffff168573ffffffffffffffffffffffffffffffffffffffff16036124415761243c84612afb565b612480565b8473ffffffffffffffffffffffffffffffffffffffff168173ffffffffffffffffffffffffffffffffffffffff161461247f5761247e8585612bd5565b5b5b809150509392505050565b612493612c68565b6124c9576040517fd7e6bcf800000000000000000000000000000000000000000000000000000000815260040160405180910390fd5b565b6124d361248b565b5f6124dc611878565b905082815f0190816124ee919061427d565b5081816001019081612500919061427d565b50505050565b61250e61248b565b5f73ffffffffffffffffffffffffffffffffffffffff168173ffffffffffffffffffffffffffffffffffffffff160361257e575f6040517f1e4fbdf700000000000000000000000000000000000000000000000000000000815260040161257591906133af565b60405180910390fd5b61258781611b25565b50565b6125948383612c86565b6125a05f848484611e18565b505050565b5f7f0542a41881ee128a365a727b282c86fa859579490b9bb45aab8503648c8e7900905090565b606060405180602001604052805f815250905090565b60606125ed8261189f565b505f6125f76125cc565b90505f8151116126155760405180602001604052805f815250612640565b8061261f84612d79565b604051602001612630929190614564565b6040516020818303038152906040525b915050919050565b5f7f80ac58cd000000000000000000000000000000000000000000000000000000007bffffffffffffffffffffffffffffffffffffffffffffffffffffffff1916827bffffffffffffffffffffffffffffffffffffffffffffffffffffffff1916148061271257507f5b5e139f000000000000000000000000000000000000000000000000000000007bffffffffffffffffffffffffffffffffffffffffffffffffffffffff1916827bffffffffffffffffffffffffffffffffffffffffffffffffffffffff1916145b80612722575061272182612e43565b5b9050919050565b5f80612733611878565b90505f61273f8561215d565b90505f73ffffffffffffffffffffffffffffffffffffffff168473ffffffffffffffffffffffffffffffffffffffff16146127805761277f818587612eac565b5b5f73ffffffffffffffffffffffffffffffffffffffff168173ffffffffffffffffffffffffffffffffffffffff161461280d576127bf5f865f806121a4565b6001826003015f8373ffffffffffffffffffffffffffffffffffffffff1673ffffffffffffffffffffffffffffffffffffffff1681526020019081526020015f205f82825403925050819055505b5f73ffffffffffffffffffffffffffffffffffffffff168673ffffffffffffffffffffffffffffffffffffffff161461288e576001826003015f8873ffffffffffffffffffffffffffffffffffffffff1673ffffffffffffffffffffffffffffffffffffffff1681526020019081526020015f205f82825401925050819055505b85826002015f8781526020019081526020015f205f6101000a81548173ffffffffffffffffffffffffffffffffffffffff021916908373ffffffffffffffffffffffffffffffffffffffff160217905550848673ffffffffffffffffffffffffffffffffffffffff168273ffffffffffffffffffffffffffffffffffffffff167fddf252ad1be2c89b69c2b068fc378daa952ba7f163c4a11628f55a4df523b3ef60405160405180910390a480925050509392505050565b5f61294f611985565b90508060020180549050816003015f8481526020019081526020015f20819055508060020182908060018154018082558091505060019003905f5260205f20015f90919091909150555050565b5f6129a5611985565b90505f6129b184610f45565b90505f826001015f8581526020019081526020015f20549050818114612a8e575f835f015f8773ffffffffffffffffffffffffffffffffffffffff1673ffffffffffffffffffffffffffffffffffffffff1681526020019081526020015f205f8481526020019081526020015f2054905080845f015f8873ffffffffffffffffffffffffffffffffffffffff1673ffffffffffffffffffffffffffffffffffffffff1681526020019081526020015f205f8481526020019081526020015f208190555081846001015f8381526020019081526020015f2081905550505b826001015f8581526020019081526020015f205f9055825f015f8673ffffffffffffffffffffffffffffffffffffffff1673ffffffffffffffffffffffffffffffffffffffff1681526020019081526020015f205f8381526020019081526020015f205f90555050505050565b5f612b04611985565b90505f60018260020180549050612b1b9190614587565b90505f826003015f8581526020019081526020015f205490505f836002018381548110612b4b57612b4a614088565b5b905f5260205f200154905080846002018381548110612b6d57612b6c614088565b5b905f5260205f20018190555081846003015f8381526020019081526020015f2081905550836003015f8681526020019081526020015f205f905583600201805480612bbb57612bba6145ba565b5b600190038181905f5260205f20015f905590555050505050565b5f612bde611985565b90505f6001612bec85610f45565b612bf69190614587565b905082825f015f8673ffffffffffffffffffffffffffffffffffffffff1673ffffffffffffffffffffffffffffffffffffffff1681526020019081526020015f205f8381526020019081526020015f208190555080826001015f8581526020019081526020015f208190555050505050565b5f612c71611aca565b5f0160089054906101000a900460ff16905090565b5f73ffffffffffffffffffffffffffffffffffffffff168273ffffffffffffffffffffffffffffffffffffffff1603612cf6575f6040517f64a0ae92000000000000000000000000000000000000000000000000000000008152600401612ced91906133af565b60405180910390fd5b5f612d0283835f6119ac565b90505f73ffffffffffffffffffffffffffffffffffffffff168173ffffffffffffffffffffffffffffffffffffffff1614612d74575f6040517f73c6ac6e000000000000000000000000000000000000000000000000000000008152600401612d6b91906133af565b60405180910390fd5b505050565b60605f6001612d8784612f6f565b0190505f8167ffffffffffffffff811115612da557612da46136fd565b5b6040519080825280601f01601f191660200182016040528015612dd75781602001600182028036833780820191505090505b5090505f82602001820190505b600115612e38578080600190039150507f3031323334353637383961626364656600000000000000000000000000000000600a86061a8153600a8581612e2d57612e2c6145e7565b5b0494505f8503612de4575b819350505050919050565b5f7f01ffc9a7000000000000000000000000000000000000000000000000000000007bffffffffffffffffffffffffffffffffffffffffffffffffffffffff1916827bffffffffffffffffffffffffffffffffffffffffffffffffffffffff1916149050919050565b612eb78383836130c0565b612f6a575f73ffffffffffffffffffffffffffffffffffffffff168373ffffffffffffffffffffffffffffffffffffffff1603612f2b57806040517f7e273289000000000000000000000000000000000000000000000000000000008152600401612f22919061368c565b60405180910390fd5b81816040517f177e802f000000000000000000000000000000000000000000000000000000008152600401612f61929190613ee1565b60405180910390fd5b505050565b5f805f90507a184f03e93ff9f4daa797ed6e38ed64bf6a1f0100000000000000008310612fcb577a184f03e93ff9f4daa797ed6e38ed64bf6a1f0100000000000000008381612fc157612fc06145e7565b5b0492506040810190505b6d04ee2d6d415b85acef81000000008310613008576d04ee2d6d415b85acef81000000008381612ffe57612ffd6145e7565b5b0492506020810190505b662386f26fc10000831061303757662386f26fc10000838161302d5761302c6145e7565b5b0492506010810190505b6305f5e1008310613060576305f5e1008381613056576130556145e7565b5b0492506008810190505b612710831061308557612710838161307b5761307a6145e7565b5b0492506004810190505b606483106130a8576064838161309e5761309d6145e7565b5b0492506002810190505b600a83106130b7576001810190505b80915050919050565b5f8073ffffffffffffffffffffffffffffffffffffffff168373ffffffffffffffffffffffffffffffffffffffff161415801561317757508273ffffffffffffffffffffffffffffffffffffffff168473ffffffffffffffffffffffffffffffffffffffff16148061313857506131378484611665565b5b8061317657508273ffffffffffffffffffffffffffffffffffffffff1661315e83611925565b73ffffffffffffffffffffffffffffffffffffffff16145b5b90509392505050565b60405180608001604052805f81526020015f81526020015f81526020015f81525090565b5f604051905090565b5f80fd5b5f80fd5b5f7fffffffff0000000000000000000000000000000000000000000000000000000082169050919050565b6131e9816131b5565b81146131f3575f80fd5b50565b5f81359050613204816131e0565b92915050565b5f6020828403121561321f5761321e6131ad565b5b5f61322c848285016131f6565b91505092915050565b5f8115159050919050565b61324981613235565b82525050565b5f6020820190506132625f830184613240565b92915050565b5f81519050919050565b5f82825260208201905092915050565b5f5b8381101561329f578082015181840152602081019050613284565b5f8484015250505050565b5f601f19601f8301169050919050565b5f6132c482613268565b6132ce8185613272565b93506132de818560208601613282565b6132e7816132aa565b840191505092915050565b5f6020820190508181035f83015261330a81846132ba565b905092915050565b5f819050919050565b61332481613312565b811461332e575f80fd5b50565b5f8135905061333f8161331b565b92915050565b5f6020828403121561335a576133596131ad565b5b5f61336784828501613331565b91505092915050565b5f73ffffffffffffffffffffffffffffffffffffffff82169050919050565b5f61339982613370565b9050919050565b6133a98161338f565b82525050565b5f6020820190506133c25f8301846133a0565b92915050565b6133d18161338f565b81146133db575f80fd5b50565b5f813590506133ec816133c8565b92915050565b5f8060408385031215613408576134076131ad565b5b5f613415858286016133de565b925050602061342685828601613331565b9150509250929050565b5f81519050919050565b5f82825260208201905092915050565b5f819050602082019050919050565b5f82825260208201905092915050565b5f61347382613268565b61347d8185613459565b935061348d818560208601613282565b613496816132aa565b840191505092915050565b5f6134ac8383613469565b905092915050565b5f602082019050919050565b5f6134ca82613430565b6134d4818561343a565b9350836020820285016134e68561344a565b805f5b85811015613521578484038952815161350285826134a1565b945061350d836134b4565b925060208a019950506001810190506134e9565b50829750879550505050505092915050565b5f6020820190508181035f83015261354b81846134c0565b905092915050565b5f81519050919050565b5f82825260208201905092915050565b5f819050602082019050919050565b61358581613312565b82525050565b608082015f82015161359f5f85018261357c565b5060208201516135b2602085018261357c565b5060408201516135c5604085018261357c565b5060608201516135d8606085018261357c565b50505050565b5f6135e9838361358b565b60808301905092915050565b5f602082019050919050565b5f61360b82613553565b613615818561355d565b93506136208361356d565b805f5b8381101561365057815161363788826135de565b9750613642836135f5565b925050600181019050613623565b5085935050505092915050565b5f6020820190508181035f8301526136758184613601565b905092915050565b61368681613312565b82525050565b5f60208201905061369f5f83018461367d565b92915050565b5f805f606084860312156136bc576136bb6131ad565b5b5f6136c9868287016133de565b93505060206136da868287016133de565b92505060406136eb86828701613331565b9150509250925092565b5f80fd5b5f80fd5b7f4e487b71000000000000000000000000000000000000000000000000000000005f52604160045260245ffd5b613733826132aa565b810181811067ffffffffffffffff82111715613752576137516136fd565b5b80604052505050565b5f6137646131a4565b9050613770828261372a565b919050565b5f67ffffffffffffffff82111561378f5761378e6136fd565b5b613798826132aa565b9050602081019050919050565b828183375f83830152505050565b5f6137c56137c084613775565b61375b565b9050828152602081018484840111156137e1576137e06136f9565b5b6137ec8482856137a5565b509392505050565b5f82601f830112613808576138076136f5565b5b81356138188482602086016137b3565b91505092915050565b5f8060408385031215613837576138366131ad565b5b5f83013567ffffffffffffffff811115613854576138536131b1565b5b613860858286016137f4565b925050602083013567ffffffffffffffff811115613881576138806131b1565b5b61388d858286016137f4565b9150509250929050565b5f805f606084860312156138ae576138ad6131ad565b5b5f84013567ffffffffffffffff8111156138cb576138ca6131b1565b5b6138d7868287016137f4565b93505060206138e886828701613331565b92505060406138f986828701613331565b9150509250925092565b5f60208284031215613918576139176131ad565b5b5f613925848285016133de565b91505092915050565b5f8060408385031215613944576139436131ad565b5b5f83013567ffffffffffffffff811115613961576139606131b1565b5b61396d858286016137f4565b925050602061397e85828601613331565b9150509250929050565b5f81519050919050565b5f82825260208201905092915050565b5f819050602082019050919050565b5f6139bc838361357c565b60208301905092915050565b5f602082019050919050565b5f6139de82613988565b6139e88185613992565b93506139f3836139a2565b805f5b83811015613a23578151613a0a88826139b1565b9750613a15836139c8565b9250506001810190506139f6565b5085935050505092915050565b5f6020820190508181035f830152613a4881846139d4565b905092915050565b5f60208284031215613a6557613a646131ad565b5b5f82013567ffffffffffffffff811115613a8257613a816131b1565b5b613a8e848285016137f4565b91505092915050565b5f608082019050613aaa5f83018761367d565b613ab7602083018661367d565b613ac4604083018561367d565b613ad1606083018461367d565b95945050505050565b5f805f60608486031215613af157613af06131ad565b5b5f613afe868287016133de565b935050602084013567ffffffffffffffff811115613b1f57613b1e6131b1565b5b613b2b868287016137f4565b925050604084013567ffffffffffffffff811115613b4c57613b4b6131b1565b5b613b58868287016137f4565b9150509250925092565b613b6b81613235565b8114613b75575f80fd5b50565b5f81359050613b8681613b62565b92915050565b5f8060408385031215613ba257613ba16131ad565b5b5f613baf858286016133de565b9250506020613bc085828601613b78565b9150509250929050565b5f67ffffffffffffffff821115613be457613be36136fd565b5b613bed826132aa565b9050602081019050919050565b5f613c0c613c0784613bca565b61375b565b905082815260208101848484011115613c2857613c276136f9565b5b613c338482856137a5565b509392505050565b5f82601f830112613c4f57613c4e6136f5565b5b8135613c5f848260208601613bfa565b91505092915050565b5f805f8060808587031215613c8057613c7f6131ad565b5b5f613c8d878288016133de565b9450506020613c9e878288016133de565b9350506040613caf87828801613331565b925050606085013567ffffffffffffffff811115613cd057613ccf6131b1565b5b613cdc87828801613c3b565b91505092959194509250565b5f67ffffffffffffffff821115613d0257613d016136fd565b5b602082029050602081019050919050565b5f80fd5b5f613d29613d2484613ce8565b61375b565b90508083825260208201905060208402830185811115613d4c57613d4b613d13565b5b835b81811015613d9357803567ffffffffffffffff811115613d7157613d706136f5565b5b808601613d7e89826137f4565b85526020850194505050602081019050613d4e565b5050509392505050565b5f82601f830112613db157613db06136f5565b5b8135613dc1848260208601613d17565b91505092915050565b5f60208284031215613ddf57613dde6131ad565b5b5f82013567ffffffffffffffff811115613dfc57613dfb6131b1565b5b613e0884828501613d9d565b91505092915050565b5f8060408385031215613e2757613e266131ad565b5b5f613e34858286016133de565b9250506020613e45858286016133de565b9150509250929050565b7f4e487b71000000000000000000000000000000000000000000000000000000005f52602260045260245ffd5b5f6002820490506001821680613e9357607f821691505b602082108103613ea657613ea5613e4f565b5b50919050565b5f606082019050613ebf5f8301866133a0565b613ecc602083018561367d565b613ed960408301846133a0565b949350505050565b5f604082019050613ef45f8301856133a0565b613f01602083018461367d565b9392505050565b5f81905092915050565b5f819050815f5260205f209050919050565b5f8154613f3081613e7c565b613f3a8186613f08565b9450600182165f8114613f545760018114613f6957613f9b565b60ff1983168652811515820286019350613f9b565b613f7285613f12565b5f5b83811015613f9357815481890152600182019150602081019050613f74565b838801955050505b50505092915050565b5f613faf8284613f24565b915081905092915050565b7f4e487b71000000000000000000000000000000000000000000000000000000005f52601160045260245ffd5b5f613ff182613312565b9150613ffc83613312565b925082820190508082111561401457614013613fba565b5b92915050565b5f819050919050565b5f67ffffffffffffffff82169050919050565b5f819050919050565b5f61405961405461404f8461401a565b614036565b614023565b9050919050565b6140698161403f565b82525050565b5f6020820190506140825f830184614060565b92915050565b7f4e487b71000000000000000000000000000000000000000000000000000000005f52603260045260245ffd5b5f6140bf82613268565b6140c98185613f08565b93506140d9818560208601613282565b80840191505092915050565b5f6140f082846140b5565b915081905092915050565b5f6020601f8301049050919050565b5f82821b905092915050565b5f600883026141457fffffffffffffffffffffffffffffffffffffffffffffffffffffffffffffffff8261410a565b61414f868361410a565b95508019841693508086168417925050509392505050565b5f61418161417c61417784613312565b614036565b613312565b9050919050565b5f819050919050565b61419a83614167565b6141ae6141a682614188565b848454614116565b825550505050565b5f90565b6141c26141b6565b6141cd818484614191565b505050565b5b818110156141f0576141e55f826141ba565b6001810190506141d3565b5050565b601f8211156142355761420681613f12565b61420f846140fb565b8101602085101561421e578190505b61423261422a856140fb565b8301826141d2565b50505b505050565b5f82821c905092915050565b5f6142555f198460080261423a565b1980831691505092915050565b5f61426d8383614246565b9150826002028217905092915050565b61428682613268565b67ffffffffffffffff81111561429f5761429e6136fd565b5b6142a98254613e7c565b6142b48282856141f4565b5f60209050601f8311600181146142e5575f84156142d3578287015190505b6142dd8582614262565b865550614344565b601f1984166142f386613f12565b5f5b8281101561431a578489015182556001820191506020850194506020810190506142f5565b868310156143375784890151614333601f891682614246565b8355505b6001600288020188555050505b505050505050565b5f61435682613312565b91507fffffffffffffffffffffffffffffffffffffffffffffffffffffffffffffffff820361438857614387613fba565b5b600182019050919050565b7f537570706c79206c696d6974207265616368656420666f7220746869732069745f8201527f656d207479706500000000000000000000000000000000000000000000000000602082015250565b5f6143ed602783613272565b91506143f882614393565b604082019050919050565b5f6020820190508181035f83015261441a816143e1565b9050919050565b7f4974656d5479706520646f6573206e6f742065786973740000000000000000005f82015250565b5f614455601783613272565b915061446082614421565b602082019050919050565b5f6020820190508181035f83015261448281614449565b9050919050565b5f81519050919050565b5f82825260208201905092915050565b5f6144ad82614489565b6144b78185614493565b93506144c7818560208601613282565b6144d0816132aa565b840191505092915050565b5f6080820190506144ee5f8301876133a0565b6144fb60208301866133a0565b614508604083018561367d565b818103606083015261451a81846144a3565b905095945050505050565b5f81519050614533816131e0565b92915050565b5f6020828403121561454e5761454d6131ad565b5b5f61455b84828501614525565b91505092915050565b5f61456f82856140b5565b915061457b82846140b5565b91508190509392505050565b5f61459182613312565b915061459c83613312565b92508282039050818111156145b4576145b3613fba565b5b92915050565b7f4e487b71000000000000000000000000000000000000000000000000000000005f52603160045260245ffd5b7f4e487b71000000000000000000000000000000000000000000000000000000005f52601260045260245ffdfea26469706673582212207c09bb136dfbe320b52cfada8fb72fc1d83b5df3e7c5737a61edd456ef3be43364736f6c63430008140033",
  "immutableReferences": {},
  "source": "// SPDX-License-Identifier: MIT\npragma solidity ^0.8.20;\n\nimport \"@openzeppelin/contracts-upgradeable/token/ERC721/extensions/ERC721EnumerableUpgradeable.sol\";\nimport \"@openzeppelin/contracts-upgradeable/proxy/utils/Initializable.sol\";\nimport \"@openzeppelin/contracts-upgradeable/access/OwnableUpgradeable.sol\";\nimport \"@openzeppelin/contracts-upgradeable/token/ERC721/extensions/ERC721URIStorageUpgradeable.sol\";\nimport \"@openzeppelin/contracts-upgradeable/token/ERC721/ERC721Upgradeable.sol\";\n\n// Declaring the contract which is initializable for upgradeability, and inheriting ERC721 functionality, ownership, and URI storage.\ncontract CertixNFT is Initializable, ERC721Upgradeable, ERC721EnumerableUpgradeable, ERC721URIStorageUpgradeable, OwnableUpgradeable {\n\n    // Structure to hold item type information, including its supply limit, current supply, and weight in gold.\n    struct ItemType {\n        uint256 supplyLimit;\n        uint256 currentSupply;\n        uint256 burnCount;\n        uint256 goldWeightInGrams;\n    }\n\n    // A counter to keep track of token IDs.\n    uint256 public tokenIdCounter;\n    // Mapping from token ID to its item type.\n    mapping(uint256 => string) public tokenIdToItemType;\n    // Mapping from item type name to its details.\n    mapping(string => ItemType) public itemTypes;\n    //Mapping of token ids by item type name\n    mapping(string => uint256[]) public tokensByType;\n    string[] public itemTypesList;\n\n    // Contract initialization function, replacing the constructor for upgradeable contracts.\n    function initialize(string memory _name, string memory _symbol) public initializer {\n        __ERC721_init(_name, _symbol);\n        __ERC721URIStorage_init();\n        __Ownable_init(msg.sender);\n    }\n\n    // Function to mint new tokens, ensuring the supply limit for the item type has not been reached.\n    function mint(address _to, string memory _itemType, string memory _uri) public onlyOwner {\n        ItemType storage item = itemTypes[_itemType];\n        require(item.currentSupply < item.supplyLimit, \"Supply limit reached for this item type\");\n        uint256 tokenId = tokenIdCounter;\n        item.currentSupply += 1;\n        tokenIdCounter += 1;\n        tokenIdToItemType[tokenId] = _itemType;\n        tokensByType[_itemType].push(tokenId);\n        _safeMint(_to, tokenId);\n        _setTokenURI(tokenId, _uri);\n    }\n\n    // Function to get an array of token IDs owned by a specific address. Potentially gas-intensive for large datasets.\n    function tokensOfOwner(address _owner) public view returns (uint256[] memory) {\n        uint256 ownerTokenCount = balanceOf(_owner);\n        if (ownerTokenCount == 0) {\n            return new uint256[](0) ; // Return an empty array if the owner has no tokens\n        } else {\n            uint256[] memory ownedTokenIds = new uint256[](ownerTokenCount);\n            for (uint256 index = 0; index < ownerTokenCount; index++) {\n                ownedTokenIds[index] = tokenOfOwnerByIndex(_owner, index);\n            }\n\n            return ownedTokenIds;\n        }\n    }\n\n    // Function to retrieve details for a list of item types.\n    function getItemsDetails(string[] memory _itemTypes) public view returns (ItemType[] memory) {\n        ItemType[] memory itemsDetails = new ItemType[](_itemTypes.length);\n        for (uint256 i = 0; i < _itemTypes.length; i++) {\n            if (itemTypes[_itemTypes[i]].supplyLimit != 0) { // Ensure the item type exists\n                itemsDetails[i] = itemTypes[_itemTypes[i]];\n            }\n        }\n        return itemsDetails;\n    }\n\n    // Function to retrieve details for all item types.\n    function getAllItemsDetails() public view returns (ItemType[] memory) {\n        return getItemsDetails(itemTypesList);\n    }\n\n    // Function to retrieve details for all item types.\n    function getAllTypes() public view returns (string[] memory) {\n        return itemTypesList;\n    }\n\n    // Overrides required by Solidity for the ERC721 and URI storage functionalities.\n    function burn(uint256 _tokenId) public onlyOwner {\n        _burn(_tokenId);\n        itemTypes[tokenIdToItemType[_tokenId]].burnCount += 1;\n    }\n    \n    // Functions to define or update item types and their properties. These functions are protected by the `onlyOwner` modifier.\n    function defineItemType(string memory _itemType, uint256 _supplyLimit, uint256 _goldWeightInGrams) public onlyOwner {\n        // Check if item type exists\n        if (itemTypes[_itemType].supplyLimit == 0) {\n            // Add new type if it doesn't exist\n            itemTypesList.push(_itemType);\n        }\n\n        itemTypes[_itemType] = ItemType(_supplyLimit, 0, 0, _goldWeightInGrams);\n    }\n\n    // Function to set the supply limit for a specific item type. \n    function setItemSupplyLimit(string memory _itemType, uint256 _supplyLimit) public onlyOwner {\n        require(itemTypes[_itemType].supplyLimit != 0, \"ItemType does not exist\");\n        itemTypes[_itemType].supplyLimit = _supplyLimit;\n    }\n\n    // Function to set the gold weight in grams for a specific item type. \n    function setItemGoldWeight(string memory _itemType, uint256 _goldWeightInGrams) public onlyOwner {\n        require(itemTypes[_itemType].supplyLimit != 0, \"ItemType does not exist\");\n        itemTypes[_itemType].goldWeightInGrams = _goldWeightInGrams;\n    }\n\n    // Override of the tokenURI function from the ERC721URIStorage extension.\n    function tokenURI(uint256 _tokenId) public view override(ERC721Upgradeable, ERC721URIStorageUpgradeable) returns (string memory) {\n        return super.tokenURI(_tokenId);\n    }\n\n    // Override of the supportsInterface function from the ERC721URIStorage extension.\n    function supportsInterface(bytes4 interfaceId) public view override(ERC721Upgradeable, ERC721EnumerableUpgradeable, ERC721URIStorageUpgradeable) returns (bool) {\n        return super.supportsInterface(interfaceId);\n    }\n\n    // Override the conflicting functions\n    function _increaseBalance(address account, uint128 value) internal override(ERC721Upgradeable, ERC721EnumerableUpgradeable) {\n        super._increaseBalance(account, value);\n    }\n\n    function _update(address to, uint256 tokenId, address auth) internal override(ERC721Upgradeable, ERC721EnumerableUpgradeable) returns (address) {\n        return super._update(to, tokenId, auth);\n    }\n}",
  "sourcePath": "/Users/maximereynders/Documents/CertixGold/certix-contracts/contracts/CertixNFT.sol",
  "compiler": {
    "name": "solc",
    "version": "0.8.20+commit.a1b79de6.Emscripten.clang"
  },
  "schemaVersion": "3.4.16",
  "updatedAt": "2024-03-20T17:55:13.849Z",
  "networkType": "ethereum",
  "devdoc": {
    "errors": {
      "ERC721EnumerableForbiddenBatchMint()": [
        {
          "details": "Batch mint is not allowed."
        }
      ],
      "ERC721IncorrectOwner(address,uint256,address)": [
        {
          "details": "Indicates an error related to the ownership over a particular token. Used in transfers.",
          "params": {
            "owner": "Address of the current owner of a token.",
            "sender": "Address whose tokens are being transferred.",
            "tokenId": "Identifier number of a token."
          }
        }
      ],
      "ERC721InsufficientApproval(address,uint256)": [
        {
          "details": "Indicates a failure with the `operator`s approval. Used in transfers.",
          "params": {
            "operator": "Address that may be allowed to operate on tokens without being their owner.",
            "tokenId": "Identifier number of a token."
          }
        }
      ],
      "ERC721InvalidApprover(address)": [
        {
          "details": "Indicates a failure with the `approver` of a token to be approved. Used in approvals.",
          "params": {
            "approver": "Address initiating an approval operation."
          }
        }
      ],
      "ERC721InvalidOperator(address)": [
        {
          "details": "Indicates a failure with the `operator` to be approved. Used in approvals.",
          "params": {
            "operator": "Address that may be allowed to operate on tokens without being their owner."
          }
        }
      ],
      "ERC721InvalidOwner(address)": [
        {
          "details": "Indicates that an address can't be an owner. For example, `address(0)` is a forbidden owner in EIP-20. Used in balance queries.",
          "params": {
            "owner": "Address of the current owner of a token."
          }
        }
      ],
      "ERC721InvalidReceiver(address)": [
        {
          "details": "Indicates a failure with the token `receiver`. Used in transfers.",
          "params": {
            "receiver": "Address to which tokens are being transferred."
          }
        }
      ],
      "ERC721InvalidSender(address)": [
        {
          "details": "Indicates a failure with the token `sender`. Used in transfers.",
          "params": {
            "sender": "Address whose tokens are being transferred."
          }
        }
      ],
      "ERC721NonexistentToken(uint256)": [
        {
          "details": "Indicates a `tokenId` whose `owner` is the zero address.",
          "params": {
            "tokenId": "Identifier number of a token."
          }
        }
      ],
      "ERC721OutOfBoundsIndex(address,uint256)": [
        {
          "details": "An `owner`'s token query was out of bounds for `index`. NOTE: The owner being `address(0)` indicates a global out of bounds index."
        }
      ],
      "InvalidInitialization()": [
        {
          "details": "The contract is already initialized."
        }
      ],
      "NotInitializing()": [
        {
          "details": "The contract is not initializing."
        }
      ],
      "OwnableInvalidOwner(address)": [
        {
          "details": "The owner is not a valid owner account. (eg. `address(0)`)"
        }
      ],
      "OwnableUnauthorizedAccount(address)": [
        {
          "details": "The caller account is not authorized to perform an operation."
        }
      ]
    },
    "events": {
      "Approval(address,address,uint256)": {
        "details": "Emitted when `owner` enables `approved` to manage the `tokenId` token."
      },
      "ApprovalForAll(address,address,bool)": {
        "details": "Emitted when `owner` enables or disables (`approved`) `operator` to manage all of its assets."
      },
      "BatchMetadataUpdate(uint256,uint256)": {
        "details": "This event emits when the metadata of a range of tokens is changed. So that the third-party platforms such as NFT market could timely update the images and related attributes of the NFTs."
      },
      "Initialized(uint64)": {
        "details": "Triggered when the contract has been initialized or reinitialized."
      },
      "MetadataUpdate(uint256)": {
        "details": "This event emits when the metadata of a token is changed. So that the third-party platforms such as NFT market could timely update the images and related attributes of the NFT."
      },
      "Transfer(address,address,uint256)": {
        "details": "Emitted when `tokenId` token is transferred from `from` to `to`."
      }
    },
    "kind": "dev",
    "methods": {
      "approve(address,uint256)": {
        "details": "See {IERC721-approve}."
      },
      "balanceOf(address)": {
        "details": "See {IERC721-balanceOf}."
      },
      "getApproved(uint256)": {
        "details": "See {IERC721-getApproved}."
      },
      "isApprovedForAll(address,address)": {
        "details": "See {IERC721-isApprovedForAll}."
      },
      "name()": {
        "details": "See {IERC721Metadata-name}."
      },
      "owner()": {
        "details": "Returns the address of the current owner."
      },
      "ownerOf(uint256)": {
        "details": "See {IERC721-ownerOf}."
      },
      "renounceOwnership()": {
        "details": "Leaves the contract without owner. It will not be possible to call `onlyOwner` functions. Can only be called by the current owner. NOTE: Renouncing ownership will leave the contract without an owner, thereby disabling any functionality that is only available to the owner."
      },
      "safeTransferFrom(address,address,uint256)": {
        "details": "See {IERC721-safeTransferFrom}."
      },
      "safeTransferFrom(address,address,uint256,bytes)": {
        "details": "See {IERC721-safeTransferFrom}."
      },
      "setApprovalForAll(address,bool)": {
        "details": "See {IERC721-setApprovalForAll}."
      },
      "symbol()": {
        "details": "See {IERC721Metadata-symbol}."
      },
      "tokenByIndex(uint256)": {
        "details": "See {IERC721Enumerable-tokenByIndex}."
      },
      "tokenOfOwnerByIndex(address,uint256)": {
        "details": "See {IERC721Enumerable-tokenOfOwnerByIndex}."
      },
      "totalSupply()": {
        "details": "See {IERC721Enumerable-totalSupply}."
      },
      "transferFrom(address,address,uint256)": {
        "details": "See {IERC721-transferFrom}."
      },
      "transferOwnership(address)": {
        "details": "Transfers ownership of the contract to a new account (`newOwner`). Can only be called by the current owner."
      }
    },
    "version": 1
  },
  "userdoc": {
    "kind": "user",
    "methods": {},
    "version": 1
  }
}