{
  "contractName": "CertixToken",
  "abi": [
    {
      "inputs": [
        {
          "internalType": "uint256",
          "name": "increasedSupply",
          "type": "uint256"
        },
        {
          "internalType": "uint256",
          "name": "cap",
          "type": "uint256"
        }
      ],
      "name": "ERC20ExceededCap",
      "type": "error"
    },
    {
      "inputs": [
        {
          "internalType": "address",
          "name": "spender",
          "type": "address"
        },
        {
          "internalType": "uint256",
          "name": "allowance",
          "type": "uint256"
        },
        {
          "internalType": "uint256",
          "name": "needed",
          "type": "uint256"
        }
      ],
      "name": "ERC20InsufficientAllowance",
      "type": "error"
    },
    {
      "inputs": [
        {
          "internalType": "address",
          "name": "sender",
          "type": "address"
        },
        {
          "internalType": "uint256",
          "name": "balance",
          "type": "uint256"
        },
        {
          "internalType": "uint256",
          "name": "needed",
          "type": "uint256"
        }
      ],
      "name": "ERC20InsufficientBalance",
      "type": "error"
    },
    {
      "inputs": [
        {
          "internalType": "address",
          "name": "approver",
          "type": "address"
        }
      ],
      "name": "ERC20InvalidApprover",
      "type": "error"
    },
    {
      "inputs": [
        {
          "internalType": "uint256",
          "name": "cap",
          "type": "uint256"
        }
      ],
      "name": "ERC20InvalidCap",
      "type": "error"
    },
    {
      "inputs": [
        {
          "internalType": "address",
          "name": "receiver",
          "type": "address"
        }
      ],
      "name": "ERC20InvalidReceiver",
      "type": "error"
    },
    {
      "inputs": [
        {
          "internalType": "address",
          "name": "sender",
          "type": "address"
        }
      ],
      "name": "ERC20InvalidSender",
      "type": "error"
    },
    {
      "inputs": [
        {
          "internalType": "address",
          "name": "spender",
          "type": "address"
        }
      ],
      "name": "ERC20InvalidSpender",
      "type": "error"
    },
    {
      "inputs": [],
      "name": "EnforcedPause",
      "type": "error"
    },
    {
      "inputs": [],
      "name": "ExpectedPause",
      "type": "error"
    },
    {
      "inputs": [],
      "name": "InvalidInitialization",
      "type": "error"
    },
    {
      "inputs": [],
      "name": "NotInitializing",
      "type": "error"
    },
    {
      "inputs": [
        {
          "internalType": "address",
          "name": "owner",
          "type": "address"
        }
      ],
      "name": "OwnableInvalidOwner",
      "type": "error"
    },
    {
      "inputs": [
        {
          "internalType": "address",
          "name": "account",
          "type": "address"
        }
      ],
      "name": "OwnableUnauthorizedAccount",
      "type": "error"
    },
    {
      "anonymous": false,
      "inputs": [
        {
          "indexed": true,
          "internalType": "address",
          "name": "owner",
          "type": "address"
        },
        {
          "indexed": true,
          "internalType": "address",
          "name": "spender",
          "type": "address"
        },
        {
          "indexed": false,
          "internalType": "uint256",
          "name": "value",
          "type": "uint256"
        }
      ],
      "name": "Approval",
      "type": "event"
    },
    {
      "anonymous": false,
      "inputs": [
        {
          "indexed": false,
          "internalType": "uint64",
          "name": "version",
          "type": "uint64"
        }
      ],
      "name": "Initialized",
      "type": "event"
    },
    {
      "anonymous": false,
      "inputs": [
        {
          "indexed": true,
          "internalType": "address",
          "name": "previousOwner",
          "type": "address"
        },
        {
          "indexed": true,
          "internalType": "address",
          "name": "newOwner",
          "type": "address"
        }
      ],
      "name": "OwnershipTransferred",
      "type": "event"
    },
    {
      "anonymous": false,
      "inputs": [
        {
          "indexed": false,
          "internalType": "address",
          "name": "account",
          "type": "address"
        }
      ],
      "name": "Paused",
      "type": "event"
    },
    {
      "anonymous": false,
      "inputs": [
        {
          "indexed": true,
          "internalType": "address",
          "name": "from",
          "type": "address"
        },
        {
          "indexed": true,
          "internalType": "address",
          "name": "to",
          "type": "address"
        },
        {
          "indexed": false,
          "internalType": "uint256",
          "name": "value",
          "type": "uint256"
        }
      ],
      "name": "Transfer",
      "type": "event"
    },
    {
      "anonymous": false,
      "inputs": [
        {
          "indexed": false,
          "internalType": "address",
          "name": "account",
          "type": "address"
        }
      ],
      "name": "Unpaused",
      "type": "event"
    },
    {
      "inputs": [
        {
          "internalType": "address",
          "name": "owner",
          "type": "address"
        },
        {
          "internalType": "address",
          "name": "spender",
          "type": "address"
        }
      ],
      "name": "allowance",
      "outputs": [
        {
          "internalType": "uint256",
          "name": "",
          "type": "uint256"
        }
      ],
      "stateMutability": "view",
      "type": "function"
    },
    {
      "inputs": [
        {
          "internalType": "address",
          "name": "spender",
          "type": "address"
        },
        {
          "internalType": "uint256",
          "name": "value",
          "type": "uint256"
        }
      ],
      "name": "approve",
      "outputs": [
        {
          "internalType": "bool",
          "name": "",
          "type": "bool"
        }
      ],
      "stateMutability": "nonpayable",
      "type": "function"
    },
    {
      "inputs": [
        {
          "internalType": "address",
          "name": "account",
          "type": "address"
        }
      ],
      "name": "balanceOf",
      "outputs": [
        {
          "internalType": "uint256",
          "name": "",
          "type": "uint256"
        }
      ],
      "stateMutability": "view",
      "type": "function"
    },
    {
      "inputs": [
        {
          "internalType": "address",
          "name": "",
          "type": "address"
        }
      ],
      "name": "blacklist",
      "outputs": [
        {
          "internalType": "bool",
          "name": "",
          "type": "bool"
        }
      ],
      "stateMutability": "view",
      "type": "function"
    },
    {
      "inputs": [
        {
          "internalType": "uint256",
          "name": "value",
          "type": "uint256"
        }
      ],
      "name": "burn",
      "outputs": [],
      "stateMutability": "nonpayable",
      "type": "function"
    },
    {
      "inputs": [
        {
          "internalType": "address",
          "name": "account",
          "type": "address"
        },
        {
          "internalType": "uint256",
          "name": "value",
          "type": "uint256"
        }
      ],
      "name": "burnFrom",
      "outputs": [],
      "stateMutability": "nonpayable",
      "type": "function"
    },
    {
      "inputs": [],
      "name": "cap",
      "outputs": [
        {
          "internalType": "uint256",
          "name": "",
          "type": "uint256"
        }
      ],
      "stateMutability": "view",
      "type": "function"
    },
    {
      "inputs": [],
      "name": "decimals",
      "outputs": [
        {
          "internalType": "uint8",
          "name": "",
          "type": "uint8"
        }
      ],
      "stateMutability": "view",
      "type": "function"
    },
    {
      "inputs": [],
      "name": "name",
      "outputs": [
        {
          "internalType": "string",
          "name": "",
          "type": "string"
        }
      ],
      "stateMutability": "view",
      "type": "function"
    },
    {
      "inputs": [],
      "name": "owner",
      "outputs": [
        {
          "internalType": "address",
          "name": "",
          "type": "address"
        }
      ],
      "stateMutability": "view",
      "type": "function"
    },
    {
      "inputs": [],
      "name": "paused",
      "outputs": [
        {
          "internalType": "bool",
          "name": "",
          "type": "bool"
        }
      ],
      "stateMutability": "view",
      "type": "function"
    },
    {
      "inputs": [],
      "name": "renounceOwnership",
      "outputs": [],
      "stateMutability": "nonpayable",
      "type": "function"
    },
    {
      "inputs": [
        {
          "internalType": "address",
          "name": "",
          "type": "address"
        }
      ],
      "name": "skipBurnFeesList",
      "outputs": [
        {
          "internalType": "bool",
          "name": "",
          "type": "bool"
        }
      ],
      "stateMutability": "view",
      "type": "function"
    },
    {
      "inputs": [],
      "name": "symbol",
      "outputs": [
        {
          "internalType": "string",
          "name": "",
          "type": "string"
        }
      ],
      "stateMutability": "view",
      "type": "function"
    },
    {
      "inputs": [
        {
          "internalType": "uint256",
          "name": "",
          "type": "uint256"
        }
      ],
      "name": "tiers",
      "outputs": [
        {
          "internalType": "string",
          "name": "name",
          "type": "string"
        },
        {
          "internalType": "uint256",
          "name": "minCertixBalance",
          "type": "uint256"
        },
        {
          "internalType": "bool",
          "name": "canMint",
          "type": "bool"
        },
        {
          "internalType": "bool",
          "name": "canMelt",
          "type": "bool"
        },
        {
          "internalType": "bool",
          "name": "canMerge",
          "type": "bool"
        },
        {
          "internalType": "bool",
          "name": "hasAuctionAccess",
          "type": "bool"
        },
        {
          "internalType": "uint256",
          "name": "magicItemLootingChance",
          "type": "uint256"
        },
        {
          "internalType": "uint256",
          "name": "maxWeightForMergeInMilligrams",
          "type": "uint256"
        },
        {
          "internalType": "uint256",
          "name": "transactionBurnFee",
          "type": "uint256"
        },
        {
          "internalType": "uint256",
          "name": "mintingFeePercentage",
          "type": "uint256"
        },
        {
          "internalType": "uint256",
          "name": "meltingFeePercentage",
          "type": "uint256"
        },
        {
          "internalType": "uint256",
          "name": "auctionFeePercentage",
          "type": "uint256"
        }
      ],
      "stateMutability": "view",
      "type": "function"
    },
    {
      "inputs": [],
      "name": "totalSupply",
      "outputs": [
        {
          "internalType": "uint256",
          "name": "",
          "type": "uint256"
        }
      ],
      "stateMutability": "view",
      "type": "function"
    },
    {
      "inputs": [
        {
          "internalType": "address",
          "name": "newOwner",
          "type": "address"
        }
      ],
      "name": "transferOwnership",
      "outputs": [],
      "stateMutability": "nonpayable",
      "type": "function"
    },
    {
      "inputs": [
        {
          "internalType": "string",
          "name": "_name",
          "type": "string"
        },
        {
          "internalType": "string",
          "name": "_symbol",
          "type": "string"
        },
        {
          "internalType": "uint256",
          "name": "_maxSupply",
          "type": "uint256"
        }
      ],
      "name": "initialize",
      "outputs": [],
      "stateMutability": "nonpayable",
      "type": "function"
    },
    {
      "inputs": [
        {
          "internalType": "address",
          "name": "_wallet",
          "type": "address"
        }
      ],
      "name": "getUserTierIndex",
      "outputs": [
        {
          "internalType": "uint256",
          "name": "",
          "type": "uint256"
        }
      ],
      "stateMutability": "view",
      "type": "function"
    },
    {
      "inputs": [
        {
          "internalType": "address",
          "name": "_wallet",
          "type": "address"
        }
      ],
      "name": "getUserTier",
      "outputs": [
        {
          "components": [
            {
              "internalType": "string",
              "name": "name",
              "type": "string"
            },
            {
              "internalType": "uint256",
              "name": "minCertixBalance",
              "type": "uint256"
            },
            {
              "internalType": "bool",
              "name": "canMint",
              "type": "bool"
            },
            {
              "internalType": "bool",
              "name": "canMelt",
              "type": "bool"
            },
            {
              "internalType": "bool",
              "name": "canMerge",
              "type": "bool"
            },
            {
              "internalType": "bool",
              "name": "hasAuctionAccess",
              "type": "bool"
            },
            {
              "internalType": "uint256",
              "name": "magicItemLootingChance",
              "type": "uint256"
            },
            {
              "internalType": "uint256",
              "name": "maxWeightForMergeInMilligrams",
              "type": "uint256"
            },
            {
              "internalType": "uint256",
              "name": "transactionBurnFee",
              "type": "uint256"
            },
            {
              "internalType": "uint256",
              "name": "mintingFeePercentage",
              "type": "uint256"
            },
            {
              "internalType": "uint256",
              "name": "meltingFeePercentage",
              "type": "uint256"
            },
            {
              "internalType": "uint256",
              "name": "auctionFeePercentage",
              "type": "uint256"
            }
          ],
          "internalType": "struct CertixToken.Tier",
          "name": "",
          "type": "tuple"
        }
      ],
      "stateMutability": "view",
      "type": "function"
    },
    {
      "inputs": [],
      "name": "getAllTiers",
      "outputs": [
        {
          "components": [
            {
              "internalType": "string",
              "name": "name",
              "type": "string"
            },
            {
              "internalType": "uint256",
              "name": "minCertixBalance",
              "type": "uint256"
            },
            {
              "internalType": "bool",
              "name": "canMint",
              "type": "bool"
            },
            {
              "internalType": "bool",
              "name": "canMelt",
              "type": "bool"
            },
            {
              "internalType": "bool",
              "name": "canMerge",
              "type": "bool"
            },
            {
              "internalType": "bool",
              "name": "hasAuctionAccess",
              "type": "bool"
            },
            {
              "internalType": "uint256",
              "name": "magicItemLootingChance",
              "type": "uint256"
            },
            {
              "internalType": "uint256",
              "name": "maxWeightForMergeInMilligrams",
              "type": "uint256"
            },
            {
              "internalType": "uint256",
              "name": "transactionBurnFee",
              "type": "uint256"
            },
            {
              "internalType": "uint256",
              "name": "mintingFeePercentage",
              "type": "uint256"
            },
            {
              "internalType": "uint256",
              "name": "meltingFeePercentage",
              "type": "uint256"
            },
            {
              "internalType": "uint256",
              "name": "auctionFeePercentage",
              "type": "uint256"
            }
          ],
          "internalType": "struct CertixToken.Tier[]",
          "name": "",
          "type": "tuple[]"
        }
      ],
      "stateMutability": "view",
      "type": "function"
    },
    {
      "inputs": [
        {
          "internalType": "address",
          "name": "account",
          "type": "address"
        }
      ],
      "name": "addToBlacklist",
      "outputs": [],
      "stateMutability": "nonpayable",
      "type": "function"
    },
    {
      "inputs": [
        {
          "internalType": "address",
          "name": "account",
          "type": "address"
        }
      ],
      "name": "removeFromBlacklist",
      "outputs": [],
      "stateMutability": "nonpayable",
      "type": "function"
    },
    {
      "inputs": [
        {
          "internalType": "address",
          "name": "account",
          "type": "address"
        }
      ],
      "name": "addToSkipBurnFeesList",
      "outputs": [],
      "stateMutability": "nonpayable",
      "type": "function"
    },
    {
      "inputs": [
        {
          "internalType": "address",
          "name": "account",
          "type": "address"
        }
      ],
      "name": "removeFromSkipBurnFeesList",
      "outputs": [],
      "stateMutability": "nonpayable",
      "type": "function"
    },
    {
      "inputs": [
        {
          "internalType": "address",
          "name": "_to",
          "type": "address"
        },
        {
          "internalType": "uint256",
          "name": "_amount",
          "type": "uint256"
        }
      ],
      "name": "transfer",
      "outputs": [
        {
          "internalType": "bool",
          "name": "",
          "type": "bool"
        }
      ],
      "stateMutability": "nonpayable",
      "type": "function"
    },
    {
      "inputs": [
        {
          "internalType": "address",
          "name": "_from",
          "type": "address"
        },
        {
          "internalType": "address",
          "name": "_to",
          "type": "address"
        },
        {
          "internalType": "uint256",
          "name": "_amount",
          "type": "uint256"
        }
      ],
      "name": "transferFrom",
      "outputs": [
        {
          "internalType": "bool",
          "name": "",
          "type": "bool"
        }
      ],
      "stateMutability": "nonpayable",
      "type": "function"
    },
    {
      "inputs": [
        {
          "internalType": "address",
          "name": "sender",
          "type": "address"
        },
        {
          "internalType": "uint256",
          "name": "amount",
          "type": "uint256"
        }
      ],
      "name": "calculateBurnAmount",
      "outputs": [
        {
          "internalType": "uint256",
          "name": "",
          "type": "uint256"
        }
      ],
      "stateMutability": "view",
      "type": "function"
    },
    {
      "inputs": [],
      "name": "pause",
      "outputs": [],
      "stateMutability": "nonpayable",
      "type": "function"
    },
    {
      "inputs": [],
      "name": "unpause",
      "outputs": [],
      "stateMutability": "nonpayable",
      "type": "function"
    },
    {
      "inputs": [
        {
          "internalType": "uint256",
          "name": "tierIndex",
          "type": "uint256"
        },
        {
          "components": [
            {
              "internalType": "string",
              "name": "name",
              "type": "string"
            },
            {
              "internalType": "uint256",
              "name": "minCertixBalance",
              "type": "uint256"
            },
            {
              "internalType": "bool",
              "name": "canMint",
              "type": "bool"
            },
            {
              "internalType": "bool",
              "name": "canMelt",
              "type": "bool"
            },
            {
              "internalType": "bool",
              "name": "canMerge",
              "type": "bool"
            },
            {
              "internalType": "bool",
              "name": "hasAuctionAccess",
              "type": "bool"
            },
            {
              "internalType": "uint256",
              "name": "magicItemLootingChance",
              "type": "uint256"
            },
            {
              "internalType": "uint256",
              "name": "maxWeightForMergeInMilligrams",
              "type": "uint256"
            },
            {
              "internalType": "uint256",
              "name": "transactionBurnFee",
              "type": "uint256"
            },
            {
              "internalType": "uint256",
              "name": "mintingFeePercentage",
              "type": "uint256"
            },
            {
              "internalType": "uint256",
              "name": "meltingFeePercentage",
              "type": "uint256"
            },
            {
              "internalType": "uint256",
              "name": "auctionFeePercentage",
              "type": "uint256"
            }
          ],
          "internalType": "struct CertixToken.Tier",
          "name": "params",
          "type": "tuple"
        }
      ],
      "name": "updateTier",
      "outputs": [],
      "stateMutability": "nonpayable",
      "type": "function"
    }
  ],
  "bytecode": "0x608060405234801561000f575f80fd5b5061281f8061001d5f395ff3fe608060405234801561000f575f80fd5b50600436106101dc575f3560e01c806375ee8bfd11610109578063b119490e1161009e578063e4d2620e1161006e578063e4d2620e14610454578063f2fde38b14610474578063f9f92be414610487578063ffe8c0fa146104a9575f80fd5b8063b119490e146103f9578063bb9d537b1461040c578063c703807d1461041f578063dd62ed3e14610441575f80fd5b80638456cb59116100d95780638456cb591461039c5780638da5cb5b146103a457806395d89b41146103de578063a9059cbb146103e6575f80fd5b806375ee8bfd1461035057806379cc6790146103635780637ac96b84146103765780637be1367614610389575f80fd5b80633f4ba83a1161017f5780635c975abb1161014f5780635c975abb146103095780636471af831461032057806370a0823114610335578063715018a614610348575f80fd5b80633f4ba83a146102c657806342966c68146102d057806344337ea1146102e3578063537df3b6146102f6575f80fd5b806318160ddd116101ba57806318160ddd1461024c57806323b872dd1461027d578063313ce56714610290578063355274ea1461029f575f80fd5b8063039af9eb146101e057806306fdde0314610214578063095ea7b314610229575b5f80fd5b6101f36101ee36600461205d565b6104bc565b60405161020b9c9b9a999897969594939291906120b7565b60405180910390f35b61021c6105b8565b60405161020b919061211f565b61023c61023736600461214c565b610678565b604051901515815260200161020b565b7f52c63247e1f47db19d5ce0460030c497f067ca4cebf71ba98eeadabe20bace02545b60405190815260200161020b565b61023c61028b366004612174565b610691565b6040516012815260200161020b565b7f0f070392f17d5f958cc1ac31867dabecfc5c9758b4a419a200803226d7155d005461026f565b6102ce61074d565b005b6102ce6102de36600461205d565b61075f565b6102ce6102f13660046121ad565b61076c565b6102ce6103043660046121ad565b610797565b5f805160206127ca8339815191525460ff1661023c565b6103286107bf565b60405161020b9190612280565b61026f6103433660046121ad565b610938565b6102ce61095e565b6102ce61035e3660046121ad565b61096f565b6102ce61037136600461214c565b610997565b61026f61038436600461214c565b6109b0565b6102ce6103973660046123b6565b610a03565b6102ce610b3e565b7f9016d09d72d40fdae2fd8ceac6b6234c7706214fd39c1cd1e609a0528c199300546040516001600160a01b03909116815260200161020b565b61021c610b4e565b61023c6103f436600461214c565b610b8c565b6102ce6104073660046124bb565b610c2b565b61026f61041a3660046121ad565b610d70565b61023c61042d3660046121ad565b60016020525f908152604090205460ff1681565b61026f61044f366004612523565b610de9565b6104676104623660046121ad565b610e32565b60405161020b9190612554565b6102ce6104823660046121ad565b610fe3565b61023c6104953660046121ad565b5f6020819052908152604090205460ff1681565b6102ce6104b73660046121ad565b61101d565b600281815481106104cb575f80fd5b905f5260205f2090600902015f91509050805f0180546104ea90612566565b80601f016020809104026020016040519081016040528092919081815260200182805461051690612566565b80156105615780601f1061053857610100808354040283529160200191610561565b820191905f5260205f20905b81548152906001019060200180831161054457829003601f168201915b50505060018401546002850154600386015460048701546005880154600689015460078a01546008909a01549899959860ff808716995061010087048116985062010000870481169763010000009097041695908c565b7f52c63247e1f47db19d5ce0460030c497f067ca4cebf71ba98eeadabe20bace0380546060915f805160206127aa833981519152916105f690612566565b80601f016020809104026020016040519081016040528092919081815260200182805461062290612566565b801561066d5780601f106106445761010080835404028352916020019161066d565b820191905f5260205f20905b81548152906001019060200180831161065057829003601f168201915b505050505091505090565b5f3361068581858561104b565b60019150505b92915050565b6001600160a01b0383165f9081526020819052604081205460ff161580156106d157506001600160a01b0383165f9081526020819052604090205460ff16155b6106f65760405162461bcd60e51b81526004016106ed9061259e565b60405180910390fd5b6001600160a01b0384165f9081526001602052604081205460ff1661072b5761071f85846109b0565b905061072b858261105d565b5f61073682856125fb565b9050610743868683611091565b9695505050505050565b6107556110b4565b61075d61110f565b565b610769338261105d565b50565b6107746110b4565b6001600160a01b03165f908152602081905260409020805460ff19166001179055565b61079f6110b4565b6001600160a01b03165f908152602081905260409020805460ff19169055565b60606002805480602002602001604051908101604052809291908181526020015f905b8282101561092f578382905f5260205f209060090201604051806101800160405290815f8201805461081390612566565b80601f016020809104026020016040519081016040528092919081815260200182805461083f90612566565b801561088a5780601f106108615761010080835404028352916020019161088a565b820191905f5260205f20905b81548152906001019060200180831161086d57829003601f168201915b5050509183525050600182810154602080840191909152600284015460ff80821615156040860152610100808304821615156060870152620100008304821615156080870152630100000090920416151560a0850152600385015460c0850152600485015460e08501526005850154908401526006840154610120840152600784015461014084015260089093015461016090920191909152918352920191016107e2565b50505050905090565b6001600160a01b03165f9081525f805160206127aa833981519152602052604090205490565b6109666110b4565b61075d5f61116e565b6109776110b4565b6001600160a01b03165f908152600160205260409020805460ff19169055565b6109a28233836111de565b6109ac828261105d565b5050565b6001600160a01b0382165f9081526001602052604081205460ff16156109d757505f61068b565b6127106109e384610e32565b61010001516109f2908461260e565b6109fc9190612625565b9392505050565b610a0b6110b4565b6002548210610a5c5760405162461bcd60e51b815260206004820152601860248201527f5469657220696e646578206f7574206f6620626f756e6473000000000000000060448201526064016106ed565b5f60028381548110610a7057610a70612644565b5f9182526020909120835160099092020191508190610a8f90826126a5565b506020820151600182015560408201516002820180546060850151608086015160a087015161ffff1990931694151561ff0019169490941761010091151582021763ffff00001916620100009415159490940263ff00000019169390931763010000009115159190910217905560c0830151600383015560e083015160048301558201516005820155610120820151600682015561014082015160078201556101609091015160089091015550565b610b466110b4565b61075d611241565b7f52c63247e1f47db19d5ce0460030c497f067ca4cebf71ba98eeadabe20bace0480546060915f805160206127aa833981519152916105f690612566565b335f9081526020819052604081205460ff16158015610bc357506001600160a01b0383165f9081526020819052604090205460ff16155b610bdf5760405162461bcd60e51b81526004016106ed9061259e565b335f9081526001602052604081205460ff16610c0b57610bff33846109b0565b9050610c0b338261105d565b5f610c1682856125fb565b9050610c228582611289565b95945050505050565b7ff0c57e16840df040f15088dc2f81fe391c3923bec73e23a9662efc9c229c6a008054600160401b810460ff16159067ffffffffffffffff165f81158015610c705750825b90505f8267ffffffffffffffff166001148015610c8c5750303b155b905081158015610c9a575080155b15610cb85760405163f92ee8a960e01b815260040160405180910390fd5b845467ffffffffffffffff191660011785558315610ce257845460ff60401b1916600160401b1785555b610cec8888611296565b610cf5866112a8565b610cfd6112b9565b610d056112c9565b610d0e336112d1565b610d1833876112e2565b610d20611316565b8315610d6657845460ff60401b19168555604051600181527fc7f505b2f371ae2175ee4913f4499e1f2633a7b5936321eed1cdaeb6115181d29060200160405180910390a15b5050505050505050565b5f80610d7b83610938565b6002549091505b8015610de0576002610d956001836125fb565b81548110610da557610da5612644565b905f5260205f209060090201600101548210610dce57610dc66001826125fb565b949350505050565b80610dd881612761565b915050610d82565b505f9392505050565b6001600160a01b039182165f9081527f52c63247e1f47db19d5ce0460030c497f067ca4cebf71ba98eeadabe20bace016020908152604080832093909416825291909152205490565b610e93604051806101800160405280606081526020015f81526020015f151581526020015f151581526020015f151581526020015f151581526020015f81526020015f81526020015f81526020015f81526020015f81526020015f81525090565b6002610e9e83610d70565b81548110610eae57610eae612644565b905f5260205f209060090201604051806101800160405290815f82018054610ed590612566565b80601f0160208091040260200160405190810160405280929190818152602001828054610f0190612566565b8015610f4c5780601f10610f2357610100808354040283529160200191610f4c565b820191905f5260205f20905b815481529060010190602001808311610f2f57829003601f168201915b505050918352505060018201546020820152600282015460ff80821615156040840152610100808304821615156060850152620100008304821615156080850152630100000090920416151560a0830152600383015460c0830152600483015460e0830152600583015490820152600682015461012082015260078201546101408201526008909101546101609091015292915050565b610feb6110b4565b6001600160a01b03811661101457604051631e4fbdf760e01b81525f60048201526024016106ed565b6107698161116e565b6110256110b4565b6001600160a01b03165f908152600160208190526040909120805460ff19169091179055565b6110588383836001611bc1565b505050565b6001600160a01b03821661108657604051634b637e8f60e11b81525f60048201526024016106ed565b6109ac825f83611ca5565b5f3361109e8582856111de565b6110a9858585611cb0565b506001949350505050565b336110e67f9016d09d72d40fdae2fd8ceac6b6234c7706214fd39c1cd1e609a0528c199300546001600160a01b031690565b6001600160a01b03161461075d5760405163118cdaa760e01b81523360048201526024016106ed565b611117611d0d565b5f805160206127ca833981519152805460ff191681557f5db9ee0a495bf2e6ff9c91a7834c1ba4fdd244a5e8aa4e537bd38aeae4b073aa335b6040516001600160a01b03909116815260200160405180910390a150565b7f9016d09d72d40fdae2fd8ceac6b6234c7706214fd39c1cd1e609a0528c19930080546001600160a01b031981166001600160a01b03848116918217845560405192169182907f8be0079c531659141344cd1fd0a4f28419497f9722a3daafe3b4186f6b6457e0905f90a3505050565b5f6111e98484610de9565b90505f19811461123b578181101561122d57604051637dc7a0d960e11b81526001600160a01b038416600482015260248101829052604481018390526064016106ed565b61123b84848484035f611bc1565b50505050565b611249611d3c565b5f805160206127ca833981519152805460ff191660011781557f62e78cea01bee320cd4e420270b5ea74000d11b0c9f74754ebdbfc544b05a25833611150565b5f33610685818585611cb0565b61129e611d6c565b6109ac8282611db5565b6112b0611d6c565b61076981611e05565b6112c1611d6c565b61075d611e54565b61075d611d6c565b6112d9611d6c565b61076981611e74565b6001600160a01b03821661130b5760405163ec442f0560e01b81525f60048201526024016106ed565b6109ac5f8383611ca5565b604080516101c08101825260076101808201908152662727afaa24a2a960c91b6101a083015281525f60208201819052918101829052606081018290526080810182905260a0810182905260c0810182905260e08101829052603261010082015261270f61012082018190526101408201819052610160820152600280546001810182559252805190916009025f8051602061278a833981519152019081906113bf90826126a5565b50602082810151600183810191909155604080850151600280860180546060808a01516080808c015160a0808e015161ffff1990961698151561ff0019169890981761010093151584021763ffff00001916620100009115159190910263ff0000001916176301000000941515949094029390931790935560c0808b015160038b015560e0808c015160048c0155848c015160058c0155610120808d015160068d0155610140808e01516007808f01919091556101609e8f01516008909e019d909d5589516101c081018b5261018081019d8e52662834b7b732b2b960c91b6101a08201529c8d52680d8d726b7177a800009b8d019b909b525f988c01899052928b01899052928a01879052948901869052938801869052870184905260329087015261270f91860182905261012c9486019490945294840194909452815490810182559252805190915f8051602061278a83398151915260099091020190819061152a90826126a5565b50602082810151600183810191909155604080850151600280860180546060808a01516080808c015160a0808e015161ffff1990961698151561ff0019169890981761010093151584021763ffff00001916620100009115159190910263ff0000001916176301000000941515949094029390931790935560c0808b015160038b015560e0808c015160048c0155848c015160058c0155610120808d015160068d0155610140808e015160078e01556101609d8e01516008909d019c909c5588516101c081018a52600a610180820190815269283937b9b832b1ba37b960b11b6101a08301528152683635c9adc5dea000009b81019b909b52978a018990529189018890525f92890183905294880182905293870183905292860183905260289086015261012c9285019290925260c89484019490945261270f948301949094528354908101845592909152805190915f8051602061278a83398151915260099091020190819061169b90826126a5565b50602082015181600101556040820151816002015f6101000a81548160ff02191690831515021790555060608201518160020160016101000a81548160ff02191690831515021790555060808201518160020160026101000a81548160ff02191690831515021790555060a08201518160020160036101000a81548160ff02191690831515021790555060c0820151816003015560e082015181600401556101008201518160050155610120820151816006015561014082015181600701556101608201518160080155505060026040518061018001604052806040518060400160405280600781526020016620b93a34b9b0b760c91b815250815260200168878678326eac900000815260200160011515815260200160011515815260200160011515815260200160011515815260200160038152602001617d008152602001601e815260200160c881526020016064815260200161012c815250908060018154018082558091505060019003905f5260205f2090600902015f909190919091505f820151815f01908161183091906126a5565b50602082810151600183810191909155604080850151600280860180546060808a01516080808c015160a0808e015161ffff1990961698151561ff0019169890981761010093151584021763ffff00001916620100009115159190910263ff0000001916176301000000941515949094029390931790935560c0808b015160038b015560e0808c015160048c0155848c01516005808d0191909155610120808e015160068e0155610140808f015160078f01556101609e8f01516008909e019d909d5589516101c081018b526101808101838152642130b937b760d91b6101a0830152815269021e19e0c9bab24000009c81019c909c52988b018a9052928a0189905292890188905294880187905293870193909352620111709286019290925260149185019190915260649184019190915260329383019390935260c893820193909352815492830182555f91909152805190915f8051602061278a8339815191526009909102019081906119a690826126a5565b50602082810151600183810191909155604080850151600280860180546060808a01516080808c015160a0808e015161ffff1990961698151561ff0019169890981761010093151584021763ffff00001916620100009115159190910263ff0000001916176301000000941515949094029390931790935560c0808b015160038b015560e0808c015160048c0155848c015160058c0155610120808d015160068d0155610140808e01516007808f01919091556101609e8f01516008909e019d909d5589516101c081018b5261018081019d8e526622b6b832b937b960c91b6101a08201529c8d5269043c33c19375648000009b8d019b909b52978b01899052918a01889052918901879052938801869052600a9088018190525f19938801939093528601919091525f918501829052928401819052606494840194909452815490810182559252805190915f8051602061278a833981519152600990910201908190611b1390826126a5565b506020820151600182015560408201516002820180546060850151608086015160a087015161ffff1990931694151561ff0019169490941761010091151582021763ffff00001916620100009415159490940263ff00000019169390931763010000009115159190910217905560c0830151600383015560e0830151600483015582015160058201556101208201516006820155610140820151600782015561016090910151600890910155565b5f805160206127aa8339815191526001600160a01b038516611bf85760405163e602df0560e01b81525f60048201526024016106ed565b6001600160a01b038416611c2157604051634a1406b160e11b81525f60048201526024016106ed565b6001600160a01b038086165f90815260018301602090815260408083209388168352929052208390558115611c9e57836001600160a01b0316856001600160a01b03167f8c5be1e5ebec7d5bd14f71427d1e84f3dd0314c0f7b2291e5b200ac8c7c3b92585604051611c9591815260200190565b60405180910390a35b5050505050565b611058838383611e7c565b6001600160a01b038316611cd957604051634b637e8f60e11b81525f60048201526024016106ed565b6001600160a01b038216611d025760405163ec442f0560e01b81525f60048201526024016106ed565b611058838383611ca5565b5f805160206127ca8339815191525460ff1661075d57604051638dfc202b60e01b815260040160405180910390fd5b5f805160206127ca8339815191525460ff161561075d5760405163d93c066560e01b815260040160405180910390fd5b7ff0c57e16840df040f15088dc2f81fe391c3923bec73e23a9662efc9c229c6a0054600160401b900460ff1661075d57604051631afcd79f60e31b815260040160405180910390fd5b611dbd611d6c565b5f805160206127aa8339815191527f52c63247e1f47db19d5ce0460030c497f067ca4cebf71ba98eeadabe20bace03611df684826126a5565b506004810161123b83826126a5565b611e0d611d6c565b7f0f070392f17d5f958cc1ac31867dabecfc5c9758b4a419a200803226d7155d005f829003611e515760405163392e1e2760e01b81525f60048201526024016106ed565b55565b611e5c611d6c565b5f805160206127ca833981519152805460ff19169055565b610feb611d6c565b611e84611d3c565b611058838383611e95838383611f24565b6001600160a01b038316611058575f611ecc7f0f070392f17d5f958cc1ac31867dabecfc5c9758b4a419a200803226d7155d005490565b90505f611ef77f52c63247e1f47db19d5ce0460030c497f067ca4cebf71ba98eeadabe20bace025490565b905081811115611c9e5760405163279e7e1560e21b815260048101829052602481018390526044016106ed565b5f805160206127aa8339815191526001600160a01b038416611f5e5781816002015f828254611f539190612776565b90915550611fce9050565b6001600160a01b0384165f9081526020829052604090205482811015611fb05760405163391434e360e21b81526001600160a01b038616600482015260248101829052604481018490526064016106ed565b6001600160a01b0385165f9081526020839052604090209083900390555b6001600160a01b038316611fec57600281018054839003905561200a565b6001600160a01b0383165f9081526020829052604090208054830190555b826001600160a01b0316846001600160a01b03167fddf252ad1be2c89b69c2b068fc378daa952ba7f163c4a11628f55a4df523b3ef8460405161204f91815260200190565b60405180910390a350505050565b5f6020828403121561206d575f80fd5b5035919050565b5f81518084525f5b818110156120985760208185018101518683018201520161207c565b505f602082860101526020601f19601f83011685010191505092915050565b61018081525f6120cb61018083018f612074565b602083019d909d525099151560408b015297151560608a0152951515608089015293151560a088015260c087019290925260e086015261010085015261012084015261014083015261016090910152919050565b602081525f6109fc6020830184612074565b80356001600160a01b0381168114612147575f80fd5b919050565b5f806040838503121561215d575f80fd5b61216683612131565b946020939093013593505050565b5f805f60608486031215612186575f80fd5b61218f84612131565b925061219d60208501612131565b9150604084013590509250925092565b5f602082840312156121bd575f80fd5b6109fc82612131565b5f61018082518185526121db82860182612074565b9150506020830151602085015260408301516121fb604086018215159052565b50606083015161220f606086018215159052565b506080830151612223608086018215159052565b5060a083015161223760a086018215159052565b5060c0838101519085015260e080840151908501526101008084015190850152610120808401519085015261014080840151908501526101609283015192909301919091525090565b5f602080830181845280855180835260408601915060408160051b87010192508387015f5b828110156122d357603f198886030184526122c18583516121c6565b945092850192908501906001016122a5565b5092979650505050505050565b634e487b7160e01b5f52604160045260245ffd5b604051610180810167ffffffffffffffff81118282101715612318576123186122e0565b60405290565b5f82601f83011261232d575f80fd5b813567ffffffffffffffff80821115612348576123486122e0565b604051601f8301601f19908116603f01168101908282118183101715612370576123706122e0565b81604052838152866020858801011115612388575f80fd5b836020870160208301375f602085830101528094505050505092915050565b80358015158114612147575f80fd5b5f80604083850312156123c7575f80fd5b82359150602083013567ffffffffffffffff808211156123e5575f80fd5b9084019061018082870312156123f9575f80fd5b6124016122f4565b82358281111561240f575f80fd5b61241b8882860161231e565b82525060208301356020820152612434604084016123a7565b6040820152612445606084016123a7565b6060820152612456608084016123a7565b608082015261246760a084016123a7565b60a082015260c0838101359082015260e08084013590820152610100808401359082015261012080840135908201526101408084013590820152610160928301359281019290925250919491935090915050565b5f805f606084860312156124cd575f80fd5b833567ffffffffffffffff808211156124e4575f80fd5b6124f08783880161231e565b94506020860135915080821115612505575f80fd5b506125128682870161231e565b925050604084013590509250925092565b5f8060408385031215612534575f80fd5b61253d83612131565b915061254b60208401612131565b90509250929050565b602081525f6109fc60208301846121c6565b600181811c9082168061257a57607f821691505b60208210810361259857634e487b7160e01b5f52602260045260245ffd5b50919050565b60208082526029908201527f45524332303a2073656e646572206f7220726563697069656e7420697320626c6040820152681858dadb1a5cdd195960ba1b606082015260800190565b634e487b7160e01b5f52601160045260245ffd5b8181038181111561068b5761068b6125e7565b808202811582820484141761068b5761068b6125e7565b5f8261263f57634e487b7160e01b5f52601260045260245ffd5b500490565b634e487b7160e01b5f52603260045260245ffd5b601f821115611058575f81815260208120601f850160051c8101602086101561267e5750805b601f850160051c820191505b8181101561269d5782815560010161268a565b505050505050565b815167ffffffffffffffff8111156126bf576126bf6122e0565b6126d3816126cd8454612566565b84612658565b602080601f831160018114612706575f84156126ef5750858301515b5f19600386901b1c1916600185901b17855561269d565b5f85815260208120601f198616915b8281101561273457888601518255948401946001909101908401612715565b508582101561275157878501515f19600388901b60f8161c191681555b5050505050600190811b01905550565b5f8161276f5761276f6125e7565b505f190190565b8082018082111561068b5761068b6125e756fe405787fa12a823e0f2b7631cc41b3ba8828b3321ca811111fa75cd3aa3bb5ace52c63247e1f47db19d5ce0460030c497f067ca4cebf71ba98eeadabe20bace00cd5ed15c6e187e77e9aee88184c21f4f2182ab5827cb3b7e07fbedcd63f03300a2646970667358221220baed69baa820d03ddde70509ff2050e35cb73f0d47240ee8d1954777a5c0961964736f6c63430008140033",
  "immutableReferences": {},
  "source": "// SPDX-License-Identifier: MIT\npragma solidity ^0.8.20;\n\nimport \"@openzeppelin/contracts-upgradeable/token/ERC20/extensions/ERC20BurnableUpgradeable.sol\";\nimport \"@openzeppelin/contracts-upgradeable/token/ERC20/extensions/ERC20CappedUpgradeable.sol\";\nimport \"@openzeppelin/contracts-upgradeable/token/ERC20/extensions/ERC20PausableUpgradeable.sol\";\nimport \"@openzeppelin/contracts-upgradeable/access/OwnableUpgradeable.sol\";\nimport \"@openzeppelin/contracts-upgradeable/proxy/utils/Initializable.sol\";\n\ncontract CertixToken is Initializable, ERC20BurnableUpgradeable, ERC20CappedUpgradeable, ERC20PausableUpgradeable,  OwnableUpgradeable {\n\n    struct Tier {\n        string name;\n        uint256 minCertixBalance;\n        bool canMint;\n        bool canMelt;\n        bool canMerge;\n        bool hasAuctionAccess;\n        uint256 magicItemLootingChance;\n        uint256 maxWeightForMergeInMilligrams;\n        uint256 transactionBurnFee;\n        uint256 mintingFeePercentage;\n        uint256 meltingFeePercentage;\n        uint256 auctionFeePercentage;\n    }\n\n    // Maps for blacklist and skipBurnFeesList\n    mapping(address => bool) public blacklist;\n    mapping(address => bool) public skipBurnFeesList;\n\n    Tier[] public tiers;\n\n    uint256 private constant RATE_DENOMINATOR = 10000; // Denominator to calculate burn rate\n\n    function initialize(string memory _name, string memory _symbol, uint256 _maxSupply) public initializer {\n        __ERC20_init(_name, _symbol);\n        __ERC20Capped_init(_maxSupply); // Initialize the cap\n        __ERC20Pausable_init(); // Initialize the pausable functionality\n        __ERC20Burnable_init();\n        __Ownable_init(msg.sender);\n\n        // Mint initial supply if specified and ensure it does not exceed max supply\n        _mint(_msgSender(), _maxSupply);\n\n        initializeTiers();\n    }\n    \n    function initializeTiers() internal {\n        // Initialize tiers with specified attributes\n        tiers.push(Tier(\"NO_TIER\", 0, false, false, false, false, 0, 0, 50, 9999, 9999, 9999)); // Maximum fees and no permissions\n        tiers.push(Tier(\"Pioneer\", 250e18, false, true, false, false, 1, 0, 50, 9999, 300, 9999));\n        tiers.push(Tier(\"Prospector\", 1000e18, true, true, false, false, 2, 0, 40, 300, 200, 9999));\n        tiers.push(Tier(\"Artisan\", 2500e18, true, true, true, true, 3, 32000, 30, 200, 100, 300));\n        tiers.push(Tier(\"Baron\", 10000e18, true, true, true, true, 5, 70000, 20, 100, 50, 200));\n        tiers.push(Tier(\"Emperor\", 20000e18, true, true, true, true, 10, type(uint256).max, 10, 0, 0, 100));\n    }\n\n    function getUserTierIndex(address _wallet) public view returns (uint256) {\n        uint256 balance = balanceOf(_wallet);\n        for (uint256 i = tiers.length; i > 0; i--) {\n            if (balance >= tiers[i - 1].minCertixBalance) return i - 1;\n        }\n        return 0; // Returns 0 for NO_TIER\n    }\n\n    function getUserTier(address _wallet) public view returns (Tier memory) {\n        return tiers[getUserTierIndex(_wallet)];\n    }\n\n    function getAllTiers() public view returns (Tier[] memory) {\n        return tiers;\n    }\n    \n\n    function addToBlacklist(address account) public onlyOwner {\n        blacklist[account] = true;\n    }\n\n    function removeFromBlacklist(address account) public onlyOwner {\n        blacklist[account] = false;\n    }\n\n    function addToSkipBurnFeesList(address account) public onlyOwner {\n        skipBurnFeesList[account] = true;\n    }\n\n    function removeFromSkipBurnFeesList(address account) public onlyOwner {\n        skipBurnFeesList[account] = false;\n    }\n\n    function transfer(address _to, uint256 _amount) public override returns (bool) {\n        require(!blacklist[msg.sender] && !blacklist[_to], \"ERC20: sender or recipient is blacklisted\");\n\n        uint256 burnAmount = 0;\n        if (!skipBurnFeesList[msg.sender]) {\n            burnAmount = calculateBurnAmount(msg.sender, _amount);\n            super._burn(msg.sender, burnAmount);\n        }\n\n        uint256 amountWithoutBurn = _amount - burnAmount;\n        return super.transfer(_to, amountWithoutBurn);\n    }\n\n    function transferFrom(address _from, address _to, uint256 _amount) public override returns (bool) {\n        require(!blacklist[_from] && !blacklist[_to], \"ERC20: sender or recipient is blacklisted\");\n\n        uint256 burnAmount = 0;\n        if (!skipBurnFeesList[_from]) {\n            burnAmount = calculateBurnAmount(_from, _amount);\n            super._burn(_from, burnAmount);\n        }\n\n        uint256 amountWithoutBurn = _amount - burnAmount;\n        return super.transferFrom(_from, _to, amountWithoutBurn);\n    }\n\n    function calculateBurnAmount(address sender, uint256 amount) public view returns (uint256) {\n        if (skipBurnFeesList[sender]) {\n            return 0;\n        }\n        return amount * getUserTier(sender).transactionBurnFee / RATE_DENOMINATOR;\n    }\n\n    // Function to pause the token transfers - can only be called by the owner\n    function pause() public onlyOwner {\n        _pause();\n    }\n\n    // Function to unpause the token transfers - can only be called by the owner\n    function unpause() public onlyOwner {\n        _unpause();\n    }\n\n    function _update(address from, address to, uint256 value) internal override(ERC20Upgradeable, ERC20CappedUpgradeable, ERC20PausableUpgradeable) {\n        super._update(from, to, value);\n    }\n\n    // Function to update a specific tier\n    function updateTier(uint256 tierIndex, Tier memory params) public onlyOwner{\n        require(tierIndex < tiers.length, \"Tier index out of bounds\");\n\n        Tier storage tier = tiers[tierIndex];\n        tier.name = params.name;\n        tier.minCertixBalance = params.minCertixBalance;\n        tier.canMint = params.canMint;\n        tier.canMelt = params.canMelt;\n        tier.canMerge = params.canMerge;\n        tier.hasAuctionAccess = params.hasAuctionAccess;\n        tier.magicItemLootingChance = params.magicItemLootingChance;\n        tier.maxWeightForMergeInMilligrams = params.maxWeightForMergeInMilligrams;\n        tier.transactionBurnFee = params.transactionBurnFee;\n        tier.mintingFeePercentage = params.mintingFeePercentage;\n        tier.meltingFeePercentage = params.meltingFeePercentage;\n        tier.auctionFeePercentage = params.auctionFeePercentage;\n    }\n}",
  "sourcePath": "/Users/maximereynders/Documents/CertixGold/certix-contracts/contracts/CertixToken.sol",
  "compiler": {
    "name": "solc",
    "version": "0.8.20+commit.a1b79de6.Emscripten.clang"
  },
  "schemaVersion": "3.4.16",
  "updatedAt": "2024-04-21T11:45:06.401Z",
  "devdoc": {
    "errors": {
      "ERC20ExceededCap(uint256,uint256)": [
        {
          "details": "Total supply cap has been exceeded."
        }
      ],
      "ERC20InsufficientAllowance(address,uint256,uint256)": [
        {
          "details": "Indicates a failure with the `spender`s `allowance`. Used in transfers.",
          "params": {
            "allowance": "Amount of tokens a `spender` is allowed to operate with.",
            "needed": "Minimum amount required to perform a transfer.",
            "spender": "Address that may be allowed to operate on tokens without being their owner."
          }
        }
      ],
      "ERC20InsufficientBalance(address,uint256,uint256)": [
        {
          "details": "Indicates an error related to the current `balance` of a `sender`. Used in transfers.",
          "params": {
            "balance": "Current balance for the interacting account.",
            "needed": "Minimum amount required to perform a transfer.",
            "sender": "Address whose tokens are being transferred."
          }
        }
      ],
      "ERC20InvalidApprover(address)": [
        {
          "details": "Indicates a failure with the `approver` of a token to be approved. Used in approvals.",
          "params": {
            "approver": "Address initiating an approval operation."
          }
        }
      ],
      "ERC20InvalidCap(uint256)": [
        {
          "details": "The supplied cap is not a valid cap."
        }
      ],
      "ERC20InvalidReceiver(address)": [
        {
          "details": "Indicates a failure with the token `receiver`. Used in transfers.",
          "params": {
            "receiver": "Address to which tokens are being transferred."
          }
        }
      ],
      "ERC20InvalidSender(address)": [
        {
          "details": "Indicates a failure with the token `sender`. Used in transfers.",
          "params": {
            "sender": "Address whose tokens are being transferred."
          }
        }
      ],
      "ERC20InvalidSpender(address)": [
        {
          "details": "Indicates a failure with the `spender` to be approved. Used in approvals.",
          "params": {
            "spender": "Address that may be allowed to operate on tokens without being their owner."
          }
        }
      ],
      "EnforcedPause()": [
        {
          "details": "The operation failed because the contract is paused."
        }
      ],
      "ExpectedPause()": [
        {
          "details": "The operation failed because the contract is not paused."
        }
      ],
      "InvalidInitialization()": [
        {
          "details": "The contract is already initialized."
        }
      ],
      "NotInitializing()": [
        {
          "details": "The contract is not initializing."
        }
      ],
      "OwnableInvalidOwner(address)": [
        {
          "details": "The owner is not a valid owner account. (eg. `address(0)`)"
        }
      ],
      "OwnableUnauthorizedAccount(address)": [
        {
          "details": "The caller account is not authorized to perform an operation."
        }
      ]
    },
    "events": {
      "Approval(address,address,uint256)": {
        "details": "Emitted when the allowance of a `spender` for an `owner` is set by a call to {approve}. `value` is the new allowance."
      },
      "Initialized(uint64)": {
        "details": "Triggered when the contract has been initialized or reinitialized."
      },
      "Paused(address)": {
        "details": "Emitted when the pause is triggered by `account`."
      },
      "Transfer(address,address,uint256)": {
        "details": "Emitted when `value` tokens are moved from one account (`from`) to another (`to`). Note that `value` may be zero."
      },
      "Unpaused(address)": {
        "details": "Emitted when the pause is lifted by `account`."
      }
    },
    "kind": "dev",
    "methods": {
      "allowance(address,address)": {
        "details": "See {IERC20-allowance}."
      },
      "approve(address,uint256)": {
        "details": "See {IERC20-approve}. NOTE: If `value` is the maximum `uint256`, the allowance is not updated on `transferFrom`. This is semantically equivalent to an infinite approval. Requirements: - `spender` cannot be the zero address."
      },
      "balanceOf(address)": {
        "details": "See {IERC20-balanceOf}."
      },
      "burn(uint256)": {
        "details": "Destroys a `value` amount of tokens from the caller. See {ERC20-_burn}."
      },
      "burnFrom(address,uint256)": {
        "details": "Destroys a `value` amount of tokens from `account`, deducting from the caller's allowance. See {ERC20-_burn} and {ERC20-allowance}. Requirements: - the caller must have allowance for ``accounts``'s tokens of at least `value`."
      },
      "cap()": {
        "details": "Returns the cap on the token's total supply."
      },
      "decimals()": {
        "details": "Returns the number of decimals used to get its user representation. For example, if `decimals` equals `2`, a balance of `505` tokens should be displayed to a user as `5.05` (`505 / 10 ** 2`). Tokens usually opt for a value of 18, imitating the relationship between Ether and Wei. This is the default value returned by this function, unless it's overridden. NOTE: This information is only used for _display_ purposes: it in no way affects any of the arithmetic of the contract, including {IERC20-balanceOf} and {IERC20-transfer}."
      },
      "name()": {
        "details": "Returns the name of the token."
      },
      "owner()": {
        "details": "Returns the address of the current owner."
      },
      "paused()": {
        "details": "Returns true if the contract is paused, and false otherwise."
      },
      "renounceOwnership()": {
        "details": "Leaves the contract without owner. It will not be possible to call `onlyOwner` functions. Can only be called by the current owner. NOTE: Renouncing ownership will leave the contract without an owner, thereby disabling any functionality that is only available to the owner."
      },
      "symbol()": {
        "details": "Returns the symbol of the token, usually a shorter version of the name."
      },
      "totalSupply()": {
        "details": "See {IERC20-totalSupply}."
      },
      "transferOwnership(address)": {
        "details": "Transfers ownership of the contract to a new account (`newOwner`). Can only be called by the current owner."
      }
    },
    "version": 1
  },
  "userdoc": {
    "kind": "user",
    "methods": {},
    "version": 1
  }
}