{
  "contractName": "CertixToken",
  "abi": [
    {
      "inputs": [
        {
          "internalType": "uint256",
          "name": "increasedSupply",
          "type": "uint256"
        },
        {
          "internalType": "uint256",
          "name": "cap",
          "type": "uint256"
        }
      ],
      "name": "ERC20ExceededCap",
      "type": "error"
    },
    {
      "inputs": [
        {
          "internalType": "address",
          "name": "spender",
          "type": "address"
        },
        {
          "internalType": "uint256",
          "name": "allowance",
          "type": "uint256"
        },
        {
          "internalType": "uint256",
          "name": "needed",
          "type": "uint256"
        }
      ],
      "name": "ERC20InsufficientAllowance",
      "type": "error"
    },
    {
      "inputs": [
        {
          "internalType": "address",
          "name": "sender",
          "type": "address"
        },
        {
          "internalType": "uint256",
          "name": "balance",
          "type": "uint256"
        },
        {
          "internalType": "uint256",
          "name": "needed",
          "type": "uint256"
        }
      ],
      "name": "ERC20InsufficientBalance",
      "type": "error"
    },
    {
      "inputs": [
        {
          "internalType": "address",
          "name": "approver",
          "type": "address"
        }
      ],
      "name": "ERC20InvalidApprover",
      "type": "error"
    },
    {
      "inputs": [
        {
          "internalType": "uint256",
          "name": "cap",
          "type": "uint256"
        }
      ],
      "name": "ERC20InvalidCap",
      "type": "error"
    },
    {
      "inputs": [
        {
          "internalType": "address",
          "name": "receiver",
          "type": "address"
        }
      ],
      "name": "ERC20InvalidReceiver",
      "type": "error"
    },
    {
      "inputs": [
        {
          "internalType": "address",
          "name": "sender",
          "type": "address"
        }
      ],
      "name": "ERC20InvalidSender",
      "type": "error"
    },
    {
      "inputs": [
        {
          "internalType": "address",
          "name": "spender",
          "type": "address"
        }
      ],
      "name": "ERC20InvalidSpender",
      "type": "error"
    },
    {
      "inputs": [],
      "name": "EnforcedPause",
      "type": "error"
    },
    {
      "inputs": [],
      "name": "ExpectedPause",
      "type": "error"
    },
    {
      "inputs": [],
      "name": "InvalidInitialization",
      "type": "error"
    },
    {
      "inputs": [],
      "name": "NotInitializing",
      "type": "error"
    },
    {
      "inputs": [
        {
          "internalType": "address",
          "name": "owner",
          "type": "address"
        }
      ],
      "name": "OwnableInvalidOwner",
      "type": "error"
    },
    {
      "inputs": [
        {
          "internalType": "address",
          "name": "account",
          "type": "address"
        }
      ],
      "name": "OwnableUnauthorizedAccount",
      "type": "error"
    },
    {
      "anonymous": false,
      "inputs": [
        {
          "indexed": true,
          "internalType": "address",
          "name": "owner",
          "type": "address"
        },
        {
          "indexed": true,
          "internalType": "address",
          "name": "spender",
          "type": "address"
        },
        {
          "indexed": false,
          "internalType": "uint256",
          "name": "value",
          "type": "uint256"
        }
      ],
      "name": "Approval",
      "type": "event"
    },
    {
      "anonymous": false,
      "inputs": [
        {
          "indexed": false,
          "internalType": "uint64",
          "name": "version",
          "type": "uint64"
        }
      ],
      "name": "Initialized",
      "type": "event"
    },
    {
      "anonymous": false,
      "inputs": [
        {
          "indexed": true,
          "internalType": "address",
          "name": "previousOwner",
          "type": "address"
        },
        {
          "indexed": true,
          "internalType": "address",
          "name": "newOwner",
          "type": "address"
        }
      ],
      "name": "OwnershipTransferred",
      "type": "event"
    },
    {
      "anonymous": false,
      "inputs": [
        {
          "indexed": false,
          "internalType": "address",
          "name": "account",
          "type": "address"
        }
      ],
      "name": "Paused",
      "type": "event"
    },
    {
      "anonymous": false,
      "inputs": [
        {
          "indexed": true,
          "internalType": "address",
          "name": "from",
          "type": "address"
        },
        {
          "indexed": true,
          "internalType": "address",
          "name": "to",
          "type": "address"
        },
        {
          "indexed": false,
          "internalType": "uint256",
          "name": "value",
          "type": "uint256"
        }
      ],
      "name": "Transfer",
      "type": "event"
    },
    {
      "anonymous": false,
      "inputs": [
        {
          "indexed": false,
          "internalType": "address",
          "name": "account",
          "type": "address"
        }
      ],
      "name": "Unpaused",
      "type": "event"
    },
    {
      "inputs": [
        {
          "internalType": "address",
          "name": "owner",
          "type": "address"
        },
        {
          "internalType": "address",
          "name": "spender",
          "type": "address"
        }
      ],
      "name": "allowance",
      "outputs": [
        {
          "internalType": "uint256",
          "name": "",
          "type": "uint256"
        }
      ],
      "stateMutability": "view",
      "type": "function",
      "constant": true
    },
    {
      "inputs": [
        {
          "internalType": "address",
          "name": "spender",
          "type": "address"
        },
        {
          "internalType": "uint256",
          "name": "value",
          "type": "uint256"
        }
      ],
      "name": "approve",
      "outputs": [
        {
          "internalType": "bool",
          "name": "",
          "type": "bool"
        }
      ],
      "stateMutability": "nonpayable",
      "type": "function"
    },
    {
      "inputs": [
        {
          "internalType": "address",
          "name": "account",
          "type": "address"
        }
      ],
      "name": "balanceOf",
      "outputs": [
        {
          "internalType": "uint256",
          "name": "",
          "type": "uint256"
        }
      ],
      "stateMutability": "view",
      "type": "function",
      "constant": true
    },
    {
      "inputs": [
        {
          "internalType": "address",
          "name": "",
          "type": "address"
        }
      ],
      "name": "blacklist",
      "outputs": [
        {
          "internalType": "bool",
          "name": "",
          "type": "bool"
        }
      ],
      "stateMutability": "view",
      "type": "function",
      "constant": true
    },
    {
      "inputs": [
        {
          "internalType": "uint256",
          "name": "value",
          "type": "uint256"
        }
      ],
      "name": "burn",
      "outputs": [],
      "stateMutability": "nonpayable",
      "type": "function"
    },
    {
      "inputs": [
        {
          "internalType": "address",
          "name": "account",
          "type": "address"
        },
        {
          "internalType": "uint256",
          "name": "value",
          "type": "uint256"
        }
      ],
      "name": "burnFrom",
      "outputs": [],
      "stateMutability": "nonpayable",
      "type": "function"
    },
    {
      "inputs": [],
      "name": "cap",
      "outputs": [
        {
          "internalType": "uint256",
          "name": "",
          "type": "uint256"
        }
      ],
      "stateMutability": "view",
      "type": "function",
      "constant": true
    },
    {
      "inputs": [],
      "name": "decimals",
      "outputs": [
        {
          "internalType": "uint8",
          "name": "",
          "type": "uint8"
        }
      ],
      "stateMutability": "view",
      "type": "function",
      "constant": true
    },
    {
      "inputs": [],
      "name": "name",
      "outputs": [
        {
          "internalType": "string",
          "name": "",
          "type": "string"
        }
      ],
      "stateMutability": "view",
      "type": "function",
      "constant": true
    },
    {
      "inputs": [],
      "name": "owner",
      "outputs": [
        {
          "internalType": "address",
          "name": "",
          "type": "address"
        }
      ],
      "stateMutability": "view",
      "type": "function",
      "constant": true
    },
    {
      "inputs": [],
      "name": "paused",
      "outputs": [
        {
          "internalType": "bool",
          "name": "",
          "type": "bool"
        }
      ],
      "stateMutability": "view",
      "type": "function",
      "constant": true
    },
    {
      "inputs": [],
      "name": "renounceOwnership",
      "outputs": [],
      "stateMutability": "nonpayable",
      "type": "function"
    },
    {
      "inputs": [
        {
          "internalType": "address",
          "name": "",
          "type": "address"
        }
      ],
      "name": "skipBurnFeesList",
      "outputs": [
        {
          "internalType": "bool",
          "name": "",
          "type": "bool"
        }
      ],
      "stateMutability": "view",
      "type": "function",
      "constant": true
    },
    {
      "inputs": [],
      "name": "symbol",
      "outputs": [
        {
          "internalType": "string",
          "name": "",
          "type": "string"
        }
      ],
      "stateMutability": "view",
      "type": "function",
      "constant": true
    },
    {
      "inputs": [
        {
          "internalType": "uint256",
          "name": "",
          "type": "uint256"
        }
      ],
      "name": "tiers",
      "outputs": [
        {
          "internalType": "string",
          "name": "name",
          "type": "string"
        },
        {
          "internalType": "uint256",
          "name": "minCertixBalance",
          "type": "uint256"
        },
        {
          "internalType": "bool",
          "name": "canMint",
          "type": "bool"
        },
        {
          "internalType": "bool",
          "name": "canMelt",
          "type": "bool"
        },
        {
          "internalType": "bool",
          "name": "canMerge",
          "type": "bool"
        },
        {
          "internalType": "bool",
          "name": "hasAuctionAccess",
          "type": "bool"
        },
        {
          "internalType": "uint256",
          "name": "magicItemLootingChance",
          "type": "uint256"
        },
        {
          "internalType": "uint256",
          "name": "maxWeightForMergeInMilligrams",
          "type": "uint256"
        },
        {
          "internalType": "uint256",
          "name": "transactionBurnFee",
          "type": "uint256"
        },
        {
          "internalType": "uint256",
          "name": "mintingFeePercentage",
          "type": "uint256"
        },
        {
          "internalType": "uint256",
          "name": "meltingFeePercentage",
          "type": "uint256"
        },
        {
          "internalType": "uint256",
          "name": "auctionFeePercentage",
          "type": "uint256"
        }
      ],
      "stateMutability": "view",
      "type": "function",
      "constant": true
    },
    {
      "inputs": [],
      "name": "totalSupply",
      "outputs": [
        {
          "internalType": "uint256",
          "name": "",
          "type": "uint256"
        }
      ],
      "stateMutability": "view",
      "type": "function",
      "constant": true
    },
    {
      "inputs": [
        {
          "internalType": "address",
          "name": "newOwner",
          "type": "address"
        }
      ],
      "name": "transferOwnership",
      "outputs": [],
      "stateMutability": "nonpayable",
      "type": "function"
    },
    {
      "inputs": [
        {
          "internalType": "string",
          "name": "_name",
          "type": "string"
        },
        {
          "internalType": "string",
          "name": "_symbol",
          "type": "string"
        },
        {
          "internalType": "uint256",
          "name": "_maxSupply",
          "type": "uint256"
        }
      ],
      "name": "initialize",
      "outputs": [],
      "stateMutability": "nonpayable",
      "type": "function"
    },
    {
      "inputs": [
        {
          "internalType": "address",
          "name": "_wallet",
          "type": "address"
        }
      ],
      "name": "getUserTierIndex",
      "outputs": [
        {
          "internalType": "uint256",
          "name": "",
          "type": "uint256"
        }
      ],
      "stateMutability": "view",
      "type": "function",
      "constant": true
    },
    {
      "inputs": [
        {
          "internalType": "address",
          "name": "_wallet",
          "type": "address"
        }
      ],
      "name": "getUserTier",
      "outputs": [
        {
          "components": [
            {
              "internalType": "string",
              "name": "name",
              "type": "string"
            },
            {
              "internalType": "uint256",
              "name": "minCertixBalance",
              "type": "uint256"
            },
            {
              "internalType": "bool",
              "name": "canMint",
              "type": "bool"
            },
            {
              "internalType": "bool",
              "name": "canMelt",
              "type": "bool"
            },
            {
              "internalType": "bool",
              "name": "canMerge",
              "type": "bool"
            },
            {
              "internalType": "bool",
              "name": "hasAuctionAccess",
              "type": "bool"
            },
            {
              "internalType": "uint256",
              "name": "magicItemLootingChance",
              "type": "uint256"
            },
            {
              "internalType": "uint256",
              "name": "maxWeightForMergeInMilligrams",
              "type": "uint256"
            },
            {
              "internalType": "uint256",
              "name": "transactionBurnFee",
              "type": "uint256"
            },
            {
              "internalType": "uint256",
              "name": "mintingFeePercentage",
              "type": "uint256"
            },
            {
              "internalType": "uint256",
              "name": "meltingFeePercentage",
              "type": "uint256"
            },
            {
              "internalType": "uint256",
              "name": "auctionFeePercentage",
              "type": "uint256"
            }
          ],
          "internalType": "struct CertixToken.Tier",
          "name": "",
          "type": "tuple"
        }
      ],
      "stateMutability": "view",
      "type": "function",
      "constant": true
    },
    {
      "inputs": [],
      "name": "getAllTiers",
      "outputs": [
        {
          "components": [
            {
              "internalType": "string",
              "name": "name",
              "type": "string"
            },
            {
              "internalType": "uint256",
              "name": "minCertixBalance",
              "type": "uint256"
            },
            {
              "internalType": "bool",
              "name": "canMint",
              "type": "bool"
            },
            {
              "internalType": "bool",
              "name": "canMelt",
              "type": "bool"
            },
            {
              "internalType": "bool",
              "name": "canMerge",
              "type": "bool"
            },
            {
              "internalType": "bool",
              "name": "hasAuctionAccess",
              "type": "bool"
            },
            {
              "internalType": "uint256",
              "name": "magicItemLootingChance",
              "type": "uint256"
            },
            {
              "internalType": "uint256",
              "name": "maxWeightForMergeInMilligrams",
              "type": "uint256"
            },
            {
              "internalType": "uint256",
              "name": "transactionBurnFee",
              "type": "uint256"
            },
            {
              "internalType": "uint256",
              "name": "mintingFeePercentage",
              "type": "uint256"
            },
            {
              "internalType": "uint256",
              "name": "meltingFeePercentage",
              "type": "uint256"
            },
            {
              "internalType": "uint256",
              "name": "auctionFeePercentage",
              "type": "uint256"
            }
          ],
          "internalType": "struct CertixToken.Tier[]",
          "name": "",
          "type": "tuple[]"
        }
      ],
      "stateMutability": "view",
      "type": "function",
      "constant": true
    },
    {
      "inputs": [
        {
          "internalType": "address",
          "name": "account",
          "type": "address"
        }
      ],
      "name": "addToBlacklist",
      "outputs": [],
      "stateMutability": "nonpayable",
      "type": "function"
    },
    {
      "inputs": [
        {
          "internalType": "address",
          "name": "account",
          "type": "address"
        }
      ],
      "name": "removeFromBlacklist",
      "outputs": [],
      "stateMutability": "nonpayable",
      "type": "function"
    },
    {
      "inputs": [
        {
          "internalType": "address",
          "name": "account",
          "type": "address"
        }
      ],
      "name": "addToSkipBurnFeesList",
      "outputs": [],
      "stateMutability": "nonpayable",
      "type": "function"
    },
    {
      "inputs": [
        {
          "internalType": "address",
          "name": "account",
          "type": "address"
        }
      ],
      "name": "removeFromSkipBurnFeesList",
      "outputs": [],
      "stateMutability": "nonpayable",
      "type": "function"
    },
    {
      "inputs": [
        {
          "internalType": "address",
          "name": "_to",
          "type": "address"
        },
        {
          "internalType": "uint256",
          "name": "_amount",
          "type": "uint256"
        }
      ],
      "name": "transfer",
      "outputs": [
        {
          "internalType": "bool",
          "name": "",
          "type": "bool"
        }
      ],
      "stateMutability": "nonpayable",
      "type": "function"
    },
    {
      "inputs": [
        {
          "internalType": "address",
          "name": "_from",
          "type": "address"
        },
        {
          "internalType": "address",
          "name": "_to",
          "type": "address"
        },
        {
          "internalType": "uint256",
          "name": "_amount",
          "type": "uint256"
        }
      ],
      "name": "transferFrom",
      "outputs": [
        {
          "internalType": "bool",
          "name": "",
          "type": "bool"
        }
      ],
      "stateMutability": "nonpayable",
      "type": "function"
    },
    {
      "inputs": [
        {
          "internalType": "address",
          "name": "sender",
          "type": "address"
        },
        {
          "internalType": "uint256",
          "name": "amount",
          "type": "uint256"
        }
      ],
      "name": "calculateBurnAmount",
      "outputs": [
        {
          "internalType": "uint256",
          "name": "",
          "type": "uint256"
        }
      ],
      "stateMutability": "view",
      "type": "function",
      "constant": true
    },
    {
      "inputs": [],
      "name": "pause",
      "outputs": [],
      "stateMutability": "nonpayable",
      "type": "function"
    },
    {
      "inputs": [],
      "name": "unpause",
      "outputs": [],
      "stateMutability": "nonpayable",
      "type": "function"
    },
    {
      "inputs": [
        {
          "internalType": "uint256",
          "name": "tierIndex",
          "type": "uint256"
        },
        {
          "components": [
            {
              "internalType": "string",
              "name": "name",
              "type": "string"
            },
            {
              "internalType": "uint256",
              "name": "minCertixBalance",
              "type": "uint256"
            },
            {
              "internalType": "bool",
              "name": "canMint",
              "type": "bool"
            },
            {
              "internalType": "bool",
              "name": "canMelt",
              "type": "bool"
            },
            {
              "internalType": "bool",
              "name": "canMerge",
              "type": "bool"
            },
            {
              "internalType": "bool",
              "name": "hasAuctionAccess",
              "type": "bool"
            },
            {
              "internalType": "uint256",
              "name": "magicItemLootingChance",
              "type": "uint256"
            },
            {
              "internalType": "uint256",
              "name": "maxWeightForMergeInMilligrams",
              "type": "uint256"
            },
            {
              "internalType": "uint256",
              "name": "transactionBurnFee",
              "type": "uint256"
            },
            {
              "internalType": "uint256",
              "name": "mintingFeePercentage",
              "type": "uint256"
            },
            {
              "internalType": "uint256",
              "name": "meltingFeePercentage",
              "type": "uint256"
            },
            {
              "internalType": "uint256",
              "name": "auctionFeePercentage",
              "type": "uint256"
            }
          ],
          "internalType": "struct CertixToken.Tier",
          "name": "params",
          "type": "tuple"
        }
      ],
      "name": "updateTier",
      "outputs": [],
      "stateMutability": "nonpayable",
      "type": "function"
    }
  ],
  "bytecode": "0x608060405234801561000f575f80fd5b50613fb58061001d5f395ff3fe608060405234801561000f575f80fd5b50600436106101e3575f3560e01c806375ee8bfd1161010d578063b119490e116100a0578063e4d2620e1161006f578063e4d2620e14610574578063f2fde38b146105a4578063f9f92be4146105c0578063ffe8c0fa146105f0576101e3565b8063b119490e146104c8578063bb9d537b146104e4578063c703807d14610514578063dd62ed3e14610544576101e3565b80638456cb59116100dc5780638456cb59146104525780638da5cb5b1461045c57806395d89b411461047a578063a9059cbb14610498576101e3565b806375ee8bfd146103ce57806379cc6790146103ea5780637ac96b84146104065780637be1367614610436576101e3565b80633f4ba83a116101855780635c975abb116101545780635c975abb146103585780636471af831461037657806370a0823114610394578063715018a6146103c4576101e3565b80633f4ba83a146102fa57806342966c681461030457806344337ea114610320578063537df3b61461033c576101e3565b806318160ddd116101c157806318160ddd1461027057806323b872dd1461028e578063313ce567146102be578063355274ea146102dc576101e3565b8063039af9eb146101e757806306fdde0314610222578063095ea7b314610240575b5f80fd5b61020160048036038101906101fc9190612eae565b61060c565b6040516102199c9b9a99989796959493929190612f8c565b60405180910390f35b61022a610730565b604051610237919061304b565b60405180910390f35b61025a600480360381019061025591906130c5565b6107ce565b6040516102679190613103565b60405180910390f35b6102786107f0565b604051610285919061311c565b60405180910390f35b6102a860048036038101906102a39190613135565b610807565b6040516102b59190613103565b60405180910390f35b6102c661096e565b6040516102d391906131a0565b60405180910390f35b6102e4610976565b6040516102f1919061311c565b60405180910390f35b61030261098c565b005b61031e60048036038101906103199190612eae565b61099e565b005b61033a600480360381019061033591906131b9565b6109b2565b005b610356600480360381019061035191906131b9565b610a11565b005b610360610a6f565b60405161036d9190613103565b60405180910390f35b61037e610a91565b60405161038b9190613406565b60405180910390f35b6103ae60048036038101906103a991906131b9565b610c2e565b6040516103bb919061311c565b60405180910390f35b6103cc610c81565b005b6103e860048036038101906103e391906131b9565b610c94565b005b61040460048036038101906103ff91906130c5565b610cf3565b005b610420600480360381019061041b91906130c5565b610d13565b60405161042d919061311c565b60405180910390f35b610450600480360381019061044b91906136bf565b610d9a565b005b61045a610f03565b005b610464610f15565b6040516104719190613728565b60405180910390f35b610482610f4a565b60405161048f919061304b565b60405180910390f35b6104b260048036038101906104ad91906130c5565b610fe8565b6040516104bf9190613103565b60405180910390f35b6104e260048036038101906104dd9190613741565b61114d565b005b6104fe60048036038101906104f991906131b9565b61130c565b60405161050b919061311c565b60405180910390f35b61052e600480360381019061052991906131b9565b611395565b60405161053b9190613103565b60405180910390f35b61055e600480360381019061055991906137c9565b6113b2565b60405161056b919061311c565b60405180910390f35b61058e600480360381019061058991906131b9565b611442565b60405161059b9190613908565b60405180910390f35b6105be60048036038101906105b991906131b9565b6115c5565b005b6105da60048036038101906105d591906131b9565b611649565b6040516105e79190613103565b60405180910390f35b61060a600480360381019061060591906131b9565b611665565b005b6002818154811061061b575f80fd5b905f5260205f2090600902015f91509050805f01805461063a90613955565b80601f016020809104026020016040519081016040528092919081815260200182805461066690613955565b80156106b15780601f10610688576101008083540402835291602001916106b1565b820191905f5260205f20905b81548152906001019060200180831161069457829003601f168201915b505050505090806001015490806002015f9054906101000a900460ff16908060020160019054906101000a900460ff16908060020160029054906101000a900460ff16908060020160039054906101000a900460ff1690806003015490806004015490806005015490806006015490806007015490806008015490508c565b60605f61073b6116c4565b905080600301805461074c90613955565b80601f016020809104026020016040519081016040528092919081815260200182805461077890613955565b80156107c35780601f1061079a576101008083540402835291602001916107c3565b820191905f5260205f20905b8154815290600101906020018083116107a657829003601f168201915b505050505091505090565b5f806107d86116eb565b90506107e58185856116f2565b600191505092915050565b5f806107fa6116c4565b9050806002015491505090565b5f805f8573ffffffffffffffffffffffffffffffffffffffff1673ffffffffffffffffffffffffffffffffffffffff1681526020019081526020015f205f9054906101000a900460ff161580156108a457505f808473ffffffffffffffffffffffffffffffffffffffff1673ffffffffffffffffffffffffffffffffffffffff1681526020019081526020015f205f9054906101000a900460ff16155b6108e3576040517f08c379a00000000000000000000000000000000000000000000000000000000081526004016108da906139f5565b60405180910390fd5b5f60015f8673ffffffffffffffffffffffffffffffffffffffff1673ffffffffffffffffffffffffffffffffffffffff1681526020019081526020015f205f9054906101000a900460ff166109495761093c8584610d13565b90506109488582611704565b5b5f81846109569190613a40565b9050610963868683611783565b925050509392505050565b5f6012905090565b5f806109806117b1565b9050805f015491505090565b6109946117d8565b61099c61185f565b565b6109af6109a96116eb565b82611704565b50565b6109ba6117d8565b60015f808373ffffffffffffffffffffffffffffffffffffffff1673ffffffffffffffffffffffffffffffffffffffff1681526020019081526020015f205f6101000a81548160ff02191690831515021790555050565b610a196117d8565b5f805f8373ffffffffffffffffffffffffffffffffffffffff1673ffffffffffffffffffffffffffffffffffffffff1681526020019081526020015f205f6101000a81548160ff02191690831515021790555050565b5f80610a796118cd565b9050805f015f9054906101000a900460ff1691505090565b60606002805480602002602001604051908101604052809291908181526020015f905b82821015610c25578382905f5260205f209060090201604051806101800160405290815f82018054610ae590613955565b80601f0160208091040260200160405190810160405280929190818152602001828054610b1190613955565b8015610b5c5780601f10610b3357610100808354040283529160200191610b5c565b820191905f5260205f20905b815481529060010190602001808311610b3f57829003601f168201915b5050505050815260200160018201548152602001600282015f9054906101000a900460ff161515151581526020016002820160019054906101000a900460ff161515151581526020016002820160029054906101000a900460ff161515151581526020016002820160039054906101000a900460ff16151515158152602001600382015481526020016004820154815260200160058201548152602001600682015481526020016007820154815260200160088201548152505081526020019060010190610ab4565b50505050905090565b5f80610c386116c4565b9050805f015f8473ffffffffffffffffffffffffffffffffffffffff1673ffffffffffffffffffffffffffffffffffffffff1681526020019081526020015f2054915050919050565b610c896117d8565b610c925f6118f4565b565b610c9c6117d8565b5f60015f8373ffffffffffffffffffffffffffffffffffffffff1673ffffffffffffffffffffffffffffffffffffffff1681526020019081526020015f205f6101000a81548160ff02191690831515021790555050565b610d0582610cff6116eb565b836119c5565b610d0f8282611704565b5050565b5f60015f8473ffffffffffffffffffffffffffffffffffffffff1673ffffffffffffffffffffffffffffffffffffffff1681526020019081526020015f205f9054906101000a900460ff1615610d6b575f9050610d94565b612710610d7784611442565b610100015183610d879190613a73565b610d919190613ae1565b90505b92915050565b610da26117d8565b6002805490508210610de9576040517f08c379a0000000000000000000000000000000000000000000000000000000008152600401610de090613b5b565b60405180910390fd5b5f60028381548110610dfe57610dfd613b79565b5b905f5260205f2090600902019050815f0151815f019081610e1f9190613d43565b50816020015181600101819055508160400151816002015f6101000a81548160ff02191690831515021790555081606001518160020160016101000a81548160ff02191690831515021790555081608001518160020160026101000a81548160ff0219169083151502179055508160a001518160020160036101000a81548160ff0219169083151502179055508160c0015181600301819055508160e0015181600401819055508161010001518160050181905550816101200151816006018190555081610140015181600701819055508161016001518160080181905550505050565b610f0b6117d8565b610f13611a57565b565b5f80610f1f611ac6565b9050805f015f9054906101000a900473ffffffffffffffffffffffffffffffffffffffff1691505090565b60605f610f556116c4565b9050806004018054610f6690613955565b80601f0160208091040260200160405190810160405280929190818152602001828054610f9290613955565b8015610fdd5780601f10610fb457610100808354040283529160200191610fdd565b820191905f5260205f20905b815481529060010190602001808311610fc057829003601f168201915b505050505091505090565b5f805f3373ffffffffffffffffffffffffffffffffffffffff1673ffffffffffffffffffffffffffffffffffffffff1681526020019081526020015f205f9054906101000a900460ff1615801561108557505f808473ffffffffffffffffffffffffffffffffffffffff1673ffffffffffffffffffffffffffffffffffffffff1681526020019081526020015f205f9054906101000a900460ff16155b6110c4576040517f08c379a00000000000000000000000000000000000000000000000000000000081526004016110bb906139f5565b60405180910390fd5b5f60015f3373ffffffffffffffffffffffffffffffffffffffff1673ffffffffffffffffffffffffffffffffffffffff1681526020019081526020015f205f9054906101000a900460ff1661112a5761111d3384610d13565b90506111293382611704565b5b5f81846111379190613a40565b90506111438582611aed565b9250505092915050565b5f611156611b0f565b90505f815f0160089054906101000a900460ff161590505f825f015f9054906101000a900467ffffffffffffffff1690505f808267ffffffffffffffff1614801561119e5750825b90505f60018367ffffffffffffffff161480156111d157505f3073ffffffffffffffffffffffffffffffffffffffff163b145b9050811580156111df575080155b15611216576040517ff92ee8a900000000000000000000000000000000000000000000000000000000815260040160405180910390fd5b6001855f015f6101000a81548167ffffffffffffffff021916908367ffffffffffffffff1602179055508315611263576001855f0160086101000a81548160ff0219169083151502179055505b61126d8888611b36565b61127686611b4c565b61127e611b60565b611286611b72565b61128f33611b7c565b6112a061129a6116eb565b87611b90565b6112a8611c0f565b8315611302575f855f0160086101000a81548160ff0219169083151502179055507fc7f505b2f371ae2175ee4913f4499e1f2633a7b5936321eed1cdaeb6115181d260016040516112f99190613e5e565b60405180910390a15b5050505050505050565b5f8061131783610c2e565b90505f60028054905090505b5f81111561138a57600260018261133a9190613a40565b8154811061134b5761134a613b79565b5b905f5260205f2090600902016001015482106113775760018161136e9190613a40565b92505050611390565b808061138290613e77565b915050611323565b505f9150505b919050565b6001602052805f5260405f205f915054906101000a900460ff1681565b5f806113bc6116c4565b9050806001015f8573ffffffffffffffffffffffffffffffffffffffff1673ffffffffffffffffffffffffffffffffffffffff1681526020019081526020015f205f8473ffffffffffffffffffffffffffffffffffffffff1673ffffffffffffffffffffffffffffffffffffffff1681526020019081526020015f205491505092915050565b61144a612e0c565b60026114558361130c565b8154811061146657611465613b79565b5b905f5260205f209060090201604051806101800160405290815f8201805461148d90613955565b80601f01602080910402602001604051908101604052809291908181526020018280546114b990613955565b80156115045780601f106114db57610100808354040283529160200191611504565b820191905f5260205f20905b8154815290600101906020018083116114e757829003601f168201915b5050505050815260200160018201548152602001600282015f9054906101000a900460ff161515151581526020016002820160019054906101000a900460ff161515151581526020016002820160029054906101000a900460ff161515151581526020016002820160039054906101000a900460ff1615151515815260200160038201548152602001600482015481526020016005820154815260200160068201548152602001600782015481526020016008820154815250509050919050565b6115cd6117d8565b5f73ffffffffffffffffffffffffffffffffffffffff168173ffffffffffffffffffffffffffffffffffffffff160361163d575f6040517f1e4fbdf70000000000000000000000000000000000000000000000000000000081526004016116349190613728565b60405180910390fd5b611646816118f4565b50565b5f602052805f5260405f205f915054906101000a900460ff1681565b61166d6117d8565b6001805f8373ffffffffffffffffffffffffffffffffffffffff1673ffffffffffffffffffffffffffffffffffffffff1681526020019081526020015f205f6101000a81548160ff02191690831515021790555050565b5f7f52c63247e1f47db19d5ce0460030c497f067ca4cebf71ba98eeadabe20bace00905090565b5f33905090565b6116ff8383836001612613565b505050565b5f73ffffffffffffffffffffffffffffffffffffffff168273ffffffffffffffffffffffffffffffffffffffff1603611774575f6040517f96c6fd1e00000000000000000000000000000000000000000000000000000000815260040161176b9190613728565b60405180910390fd5b61177f825f836127f0565b5050565b5f8061178d6116eb565b905061179a8582856119c5565b6117a5858585612800565b60019150509392505050565b5f7f0f070392f17d5f958cc1ac31867dabecfc5c9758b4a419a200803226d7155d00905090565b6117e06116eb565b73ffffffffffffffffffffffffffffffffffffffff166117fe610f15565b73ffffffffffffffffffffffffffffffffffffffff161461185d576118216116eb565b6040517f118cdaa70000000000000000000000000000000000000000000000000000000081526004016118549190613728565b60405180910390fd5b565b6118676128f0565b5f6118706118cd565b90505f815f015f6101000a81548160ff0219169083151502179055507f5db9ee0a495bf2e6ff9c91a7834c1ba4fdd244a5e8aa4e537bd38aeae4b073aa6118b56116eb565b6040516118c29190613728565b60405180910390a150565b5f7fcd5ed15c6e187e77e9aee88184c21f4f2182ab5827cb3b7e07fbedcd63f03300905090565b5f6118fd611ac6565b90505f815f015f9054906101000a900473ffffffffffffffffffffffffffffffffffffffff16905082825f015f6101000a81548173ffffffffffffffffffffffffffffffffffffffff021916908373ffffffffffffffffffffffffffffffffffffffff1602179055508273ffffffffffffffffffffffffffffffffffffffff168173ffffffffffffffffffffffffffffffffffffffff167f8be0079c531659141344cd1fd0a4f28419497f9722a3daafe3b4186f6b6457e060405160405180910390a3505050565b5f6119d084846113b2565b90507fffffffffffffffffffffffffffffffffffffffffffffffffffffffffffffffff8114611a515781811015611a42578281836040517ffb8f41b2000000000000000000000000000000000000000000000000000000008152600401611a3993929190613e9e565b60405180910390fd5b611a5084848484035f612613565b5b50505050565b611a5f612930565b5f611a686118cd565b90506001815f015f6101000a81548160ff0219169083151502179055507f62e78cea01bee320cd4e420270b5ea74000d11b0c9f74754ebdbfc544b05a258611aae6116eb565b604051611abb9190613728565b60405180910390a150565b5f7f9016d09d72d40fdae2fd8ceac6b6234c7706214fd39c1cd1e609a0528c199300905090565b5f80611af76116eb565b9050611b04818585612800565b600191505092915050565b5f7ff0c57e16840df040f15088dc2f81fe391c3923bec73e23a9662efc9c229c6a00905090565b611b3e612971565b611b4882826129b1565b5050565b611b54612971565b611b5d816129ed565b50565b611b68612971565b611b70612a50565b565b611b7a612971565b565b611b84612971565b611b8d81612a80565b50565b5f73ffffffffffffffffffffffffffffffffffffffff168273ffffffffffffffffffffffffffffffffffffffff1603611c00575f6040517fec442f05000000000000000000000000000000000000000000000000000000008152600401611bf79190613728565b60405180910390fd5b611c0b5f83836127f0565b5050565b60026040518061018001604052806040518060400160405280600781526020017f4e4f5f544945520000000000000000000000000000000000000000000000000081525081526020015f81526020015f151581526020015f151581526020015f151581526020015f151581526020015f81526020015f81526020016032815260200160648152602001606481526020016064815250908060018154018082558091505060019003905f5260205f2090600902015f909190919091505f820151815f019081611cdd9190613d43565b50602082015181600101556040820151816002015f6101000a81548160ff02191690831515021790555060608201518160020160016101000a81548160ff02191690831515021790555060808201518160020160026101000a81548160ff02191690831515021790555060a08201518160020160036101000a81548160ff02191690831515021790555060c0820151816003015560e082015181600401556101008201518160050155610120820151816006015561014082015181600701556101608201518160080155505060026040518061018001604052806040518060400160405280600781526020017f50696f6e656572000000000000000000000000000000000000000000000000008152508152602001680d8d726b7177a8000081526020015f151581526020016001151581526020015f151581526020015f15158152602001600181526020015f8152602001603281526020015f815260200161012c81526020015f815250908060018154018082558091505060019003905f5260205f2090600902015f909190919091505f820151815f019081611e819190613d43565b50602082015181600101556040820151816002015f6101000a81548160ff02191690831515021790555060608201518160020160016101000a81548160ff02191690831515021790555060808201518160020160026101000a81548160ff02191690831515021790555060a08201518160020160036101000a81548160ff02191690831515021790555060c0820151816003015560e082015181600401556101008201518160050155610120820151816006015561014082015181600701556101608201518160080155505060026040518061018001604052806040518060400160405280600a81526020017f50726f73706563746f72000000000000000000000000000000000000000000008152508152602001683635c9adc5dea0000081526020016001151581526020016001151581526020015f151581526020015f15158152602001600281526020015f81526020016028815260200161012c815260200160c881526020015f815250908060018154018082558091505060019003905f5260205f2090600902015f909190919091505f820151815f0190816120279190613d43565b50602082015181600101556040820151816002015f6101000a81548160ff02191690831515021790555060608201518160020160016101000a81548160ff02191690831515021790555060808201518160020160026101000a81548160ff02191690831515021790555060a08201518160020160036101000a81548160ff02191690831515021790555060c0820151816003015560e082015181600401556101008201518160050155610120820151816006015561014082015181600701556101608201518160080155505060026040518061018001604052806040518060400160405280600781526020017f4172746973616e00000000000000000000000000000000000000000000000000815250815260200168878678326eac900000815260200160011515815260200160011515815260200160011515815260200160011515815260200160038152602001617d008152602001601e815260200160c881526020016064815260200161012c815250908060018154018082558091505060019003905f5260205f2090600902015f909190919091505f820151815f0190816121d29190613d43565b50602082015181600101556040820151816002015f6101000a81548160ff02191690831515021790555060608201518160020160016101000a81548160ff02191690831515021790555060808201518160020160026101000a81548160ff02191690831515021790555060a08201518160020160036101000a81548160ff02191690831515021790555060c0820151816003015560e082015181600401556101008201518160050155610120820151816006015561014082015181600701556101608201518160080155505060026040518061018001604052806040518060400160405280600581526020017f4261726f6e000000000000000000000000000000000000000000000000000000815250815260200169021e19e0c9bab240000081526020016001151581526020016001151581526020016001151581526020016001151581526020016005815260200162011170815260200160148152602001606481526020016032815260200160c8815250908060018154018082558091505060019003905f5260205f2090600902015f909190919091505f820151815f01908161237e9190613d43565b50602082015181600101556040820151816002015f6101000a81548160ff02191690831515021790555060608201518160020160016101000a81548160ff02191690831515021790555060808201518160020160026101000a81548160ff02191690831515021790555060a08201518160020160036101000a81548160ff02191690831515021790555060c0820151816003015560e082015181600401556101008201518160050155610120820151816006015561014082015181600701556101608201518160080155505060026040518061018001604052806040518060400160405280600781526020017f456d7065726f7200000000000000000000000000000000000000000000000000815250815260200169043c33c19375648000008152602001600115158152602001600115158152602001600115158152602001600115158152602001600a81526020017fffffffffffffffffffffffffffffffffffffffffffffffffffffffffffffffff8152602001600a81526020015f81526020015f81526020016064815250908060018154018082558091505060019003905f5260205f2090600902015f909190919091505f820151815f0190816125459190613d43565b50602082015181600101556040820151816002015f6101000a81548160ff02191690831515021790555060608201518160020160016101000a81548160ff02191690831515021790555060808201518160020160026101000a81548160ff02191690831515021790555060a08201518160020160036101000a81548160ff02191690831515021790555060c0820151816003015560e0820151816004015561010082015181600501556101208201518160060155610140820151816007015561016082015181600801555050565b5f61261c6116c4565b90505f73ffffffffffffffffffffffffffffffffffffffff168573ffffffffffffffffffffffffffffffffffffffff160361268e575f6040517fe602df050000000000000000000000000000000000000000000000000000000081526004016126859190613728565b60405180910390fd5b5f73ffffffffffffffffffffffffffffffffffffffff168473ffffffffffffffffffffffffffffffffffffffff16036126fe575f6040517f94280d620000000000000000000000000000000000000000000000000000000081526004016126f59190613728565b60405180910390fd5b82816001015f8773ffffffffffffffffffffffffffffffffffffffff1673ffffffffffffffffffffffffffffffffffffffff1681526020019081526020015f205f8673ffffffffffffffffffffffffffffffffffffffff1673ffffffffffffffffffffffffffffffffffffffff1681526020019081526020015f208190555081156127e9578373ffffffffffffffffffffffffffffffffffffffff168573ffffffffffffffffffffffffffffffffffffffff167f8c5be1e5ebec7d5bd14f71427d1e84f3dd0314c0f7b2291e5b200ac8c7c3b925856040516127e0919061311c565b60405180910390a35b5050505050565b6127fb838383612b04565b505050565b5f73ffffffffffffffffffffffffffffffffffffffff168373ffffffffffffffffffffffffffffffffffffffff1603612870575f6040517f96c6fd1e0000000000000000000000000000000000000000000000000000000081526004016128679190613728565b60405180910390fd5b5f73ffffffffffffffffffffffffffffffffffffffff168273ffffffffffffffffffffffffffffffffffffffff16036128e0575f6040517fec442f050000000000000000000000000000000000000000000000000000000081526004016128d79190613728565b60405180910390fd5b6128eb8383836127f0565b505050565b6128f8610a6f565b61292e576040517f8dfc202b00000000000000000000000000000000000000000000000000000000815260040160405180910390fd5b565b612938610a6f565b1561296f576040517fd93c066500000000000000000000000000000000000000000000000000000000815260040160405180910390fd5b565b612979612b1c565b6129af576040517fd7e6bcf800000000000000000000000000000000000000000000000000000000815260040160405180910390fd5b565b6129b9612971565b5f6129c26116c4565b9050828160030190816129d59190613d43565b50818160040190816129e79190613d43565b50505050565b6129f5612971565b5f6129fe6117b1565b90505f8203612a44575f6040517f392e1e27000000000000000000000000000000000000000000000000000000008152600401612a3b9190613f0c565b60405180910390fd5b81815f01819055505050565b612a58612971565b5f612a616118cd565b90505f815f015f6101000a81548160ff02191690831515021790555050565b612a88612971565b5f73ffffffffffffffffffffffffffffffffffffffff168173ffffffffffffffffffffffffffffffffffffffff1603612af8575f6040517f1e4fbdf7000000000000000000000000000000000000000000000000000000008152600401612aef9190613728565b60405180910390fd5b612b01816118f4565b50565b612b0c612930565b612b17838383612b3a565b505050565b5f612b25611b0f565b5f0160089054906101000a900460ff16905090565b612b45838383612bdd565b5f73ffffffffffffffffffffffffffffffffffffffff168373ffffffffffffffffffffffffffffffffffffffff1603612bd8575f612b81610976565b90505f612b8c6107f0565b905081811115612bd55780826040517f9e79f854000000000000000000000000000000000000000000000000000000008152600401612bcc929190613f25565b60405180910390fd5b50505b505050565b5f612be66116c4565b90505f73ffffffffffffffffffffffffffffffffffffffff168473ffffffffffffffffffffffffffffffffffffffff1603612c3a5781816002015f828254612c2e9190613f4c565b92505081905550612d0c565b5f815f015f8673ffffffffffffffffffffffffffffffffffffffff1673ffffffffffffffffffffffffffffffffffffffff1681526020019081526020015f2054905082811015612cc5578481846040517fe450d38c000000000000000000000000000000000000000000000000000000008152600401612cbc93929190613e9e565b60405180910390fd5b828103825f015f8773ffffffffffffffffffffffffffffffffffffffff1673ffffffffffffffffffffffffffffffffffffffff1681526020019081526020015f2081905550505b5f73ffffffffffffffffffffffffffffffffffffffff168373ffffffffffffffffffffffffffffffffffffffff1603612d555781816002015f8282540392505081905550612da1565b81815f015f8573ffffffffffffffffffffffffffffffffffffffff1673ffffffffffffffffffffffffffffffffffffffff1681526020019081526020015f205f82825401925050819055505b8273ffffffffffffffffffffffffffffffffffffffff168473ffffffffffffffffffffffffffffffffffffffff167fddf252ad1be2c89b69c2b068fc378daa952ba7f163c4a11628f55a4df523b3ef84604051612dfe919061311c565b60405180910390a350505050565b604051806101800160405280606081526020015f81526020015f151581526020015f151581526020015f151581526020015f151581526020015f81526020015f81526020015f81526020015f81526020015f81526020015f81525090565b5f604051905090565b5f80fd5b5f80fd5b5f819050919050565b612e8d81612e7b565b8114612e97575f80fd5b50565b5f81359050612ea881612e84565b92915050565b5f60208284031215612ec357612ec2612e73565b5b5f612ed084828501612e9a565b91505092915050565b5f81519050919050565b5f82825260208201905092915050565b5f5b83811015612f10578082015181840152602081019050612ef5565b5f8484015250505050565b5f601f19601f8301169050919050565b5f612f3582612ed9565b612f3f8185612ee3565b9350612f4f818560208601612ef3565b612f5881612f1b565b840191505092915050565b612f6c81612e7b565b82525050565b5f8115159050919050565b612f8681612f72565b82525050565b5f610180820190508181035f830152612fa5818f612f2b565b9050612fb4602083018e612f63565b612fc1604083018d612f7d565b612fce606083018c612f7d565b612fdb608083018b612f7d565b612fe860a083018a612f7d565b612ff560c0830189612f63565b61300260e0830188612f63565b613010610100830187612f63565b61301e610120830186612f63565b61302c610140830185612f63565b61303a610160830184612f63565b9d9c50505050505050505050505050565b5f6020820190508181035f8301526130638184612f2b565b905092915050565b5f73ffffffffffffffffffffffffffffffffffffffff82169050919050565b5f6130948261306b565b9050919050565b6130a48161308a565b81146130ae575f80fd5b50565b5f813590506130bf8161309b565b92915050565b5f80604083850312156130db576130da612e73565b5b5f6130e8858286016130b1565b92505060206130f985828601612e9a565b9150509250929050565b5f6020820190506131165f830184612f7d565b92915050565b5f60208201905061312f5f830184612f63565b92915050565b5f805f6060848603121561314c5761314b612e73565b5b5f613159868287016130b1565b935050602061316a868287016130b1565b925050604061317b86828701612e9a565b9150509250925092565b5f60ff82169050919050565b61319a81613185565b82525050565b5f6020820190506131b35f830184613191565b92915050565b5f602082840312156131ce576131cd612e73565b5b5f6131db848285016130b1565b91505092915050565b5f81519050919050565b5f82825260208201905092915050565b5f819050602082019050919050565b5f82825260208201905092915050565b5f61322782612ed9565b613231818561320d565b9350613241818560208601612ef3565b61324a81612f1b565b840191505092915050565b61325e81612e7b565b82525050565b61326d81612f72565b82525050565b5f61018083015f8301518482035f86015261328e828261321d565b91505060208301516132a36020860182613255565b5060408301516132b66040860182613264565b5060608301516132c96060860182613264565b5060808301516132dc6080860182613264565b5060a08301516132ef60a0860182613264565b5060c083015161330260c0860182613255565b5060e083015161331560e0860182613255565b5061010083015161332a610100860182613255565b5061012083015161333f610120860182613255565b50610140830151613354610140860182613255565b50610160830151613369610160860182613255565b508091505092915050565b5f61337f8383613273565b905092915050565b5f602082019050919050565b5f61339d826131e4565b6133a781856131ee565b9350836020820285016133b9856131fe565b805f5b858110156133f457848403895281516133d58582613374565b94506133e083613387565b925060208a019950506001810190506133bc565b50829750879550505050505092915050565b5f6020820190508181035f83015261341e8184613393565b905092915050565b5f80fd5b7f4e487b71000000000000000000000000000000000000000000000000000000005f52604160045260245ffd5b61346082612f1b565b810181811067ffffffffffffffff8211171561347f5761347e61342a565b5b80604052505050565b5f613491612e6a565b905061349d8282613457565b919050565b5f80fd5b5f80fd5b5f80fd5b5f67ffffffffffffffff8211156134c8576134c761342a565b5b6134d182612f1b565b9050602081019050919050565b828183375f83830152505050565b5f6134fe6134f9846134ae565b613488565b90508281526020810184848401111561351a576135196134aa565b5b6135258482856134de565b509392505050565b5f82601f830112613541576135406134a6565b5b81356135518482602086016134ec565b91505092915050565b61356381612f72565b811461356d575f80fd5b50565b5f8135905061357e8161355a565b92915050565b5f610180828403121561359a57613599613426565b5b6135a5610180613488565b90505f82013567ffffffffffffffff8111156135c4576135c36134a2565b5b6135d08482850161352d565b5f8301525060206135e384828501612e9a565b60208301525060406135f784828501613570565b604083015250606061360b84828501613570565b606083015250608061361f84828501613570565b60808301525060a061363384828501613570565b60a08301525060c061364784828501612e9a565b60c08301525060e061365b84828501612e9a565b60e08301525061010061367084828501612e9a565b6101008301525061012061368684828501612e9a565b6101208301525061014061369c84828501612e9a565b610140830152506101606136b284828501612e9a565b6101608301525092915050565b5f80604083850312156136d5576136d4612e73565b5b5f6136e285828601612e9a565b925050602083013567ffffffffffffffff81111561370357613702612e77565b5b61370f85828601613584565b9150509250929050565b6137228161308a565b82525050565b5f60208201905061373b5f830184613719565b92915050565b5f805f6060848603121561375857613757612e73565b5b5f84013567ffffffffffffffff81111561377557613774612e77565b5b6137818682870161352d565b935050602084013567ffffffffffffffff8111156137a2576137a1612e77565b5b6137ae8682870161352d565b92505060406137bf86828701612e9a565b9150509250925092565b5f80604083850312156137df576137de612e73565b5b5f6137ec858286016130b1565b92505060206137fd858286016130b1565b9150509250929050565b5f61018083015f8301518482035f860152613822828261321d565b91505060208301516138376020860182613255565b50604083015161384a6040860182613264565b50606083015161385d6060860182613264565b5060808301516138706080860182613264565b5060a083015161388360a0860182613264565b5060c083015161389660c0860182613255565b5060e08301516138a960e0860182613255565b506101008301516138be610100860182613255565b506101208301516138d3610120860182613255565b506101408301516138e8610140860182613255565b506101608301516138fd610160860182613255565b508091505092915050565b5f6020820190508181035f8301526139208184613807565b905092915050565b7f4e487b71000000000000000000000000000000000000000000000000000000005f52602260045260245ffd5b5f600282049050600182168061396c57607f821691505b60208210810361397f5761397e613928565b5b50919050565b7f45524332303a2073656e646572206f7220726563697069656e7420697320626c5f8201527f61636b6c69737465640000000000000000000000000000000000000000000000602082015250565b5f6139df602983612ee3565b91506139ea82613985565b604082019050919050565b5f6020820190508181035f830152613a0c816139d3565b9050919050565b7f4e487b71000000000000000000000000000000000000000000000000000000005f52601160045260245ffd5b5f613a4a82612e7b565b9150613a5583612e7b565b9250828203905081811115613a6d57613a6c613a13565b5b92915050565b5f613a7d82612e7b565b9150613a8883612e7b565b9250828202613a9681612e7b565b91508282048414831517613aad57613aac613a13565b5b5092915050565b7f4e487b71000000000000000000000000000000000000000000000000000000005f52601260045260245ffd5b5f613aeb82612e7b565b9150613af683612e7b565b925082613b0657613b05613ab4565b5b828204905092915050565b7f5469657220696e646578206f7574206f6620626f756e647300000000000000005f82015250565b5f613b45601883612ee3565b9150613b5082613b11565b602082019050919050565b5f6020820190508181035f830152613b7281613b39565b9050919050565b7f4e487b71000000000000000000000000000000000000000000000000000000005f52603260045260245ffd5b5f819050815f5260205f209050919050565b5f6020601f8301049050919050565b5f82821b905092915050565b5f60088302613c027fffffffffffffffffffffffffffffffffffffffffffffffffffffffffffffffff82613bc7565b613c0c8683613bc7565b95508019841693508086168417925050509392505050565b5f819050919050565b5f613c47613c42613c3d84612e7b565b613c24565b612e7b565b9050919050565b5f819050919050565b613c6083613c2d565b613c74613c6c82613c4e565b848454613bd3565b825550505050565b5f90565b613c88613c7c565b613c93818484613c57565b505050565b5b81811015613cb657613cab5f82613c80565b600181019050613c99565b5050565b601f821115613cfb57613ccc81613ba6565b613cd584613bb8565b81016020851015613ce4578190505b613cf8613cf085613bb8565b830182613c98565b50505b505050565b5f82821c905092915050565b5f613d1b5f1984600802613d00565b1980831691505092915050565b5f613d338383613d0c565b9150826002028217905092915050565b613d4c82612ed9565b67ffffffffffffffff811115613d6557613d6461342a565b5b613d6f8254613955565b613d7a828285613cba565b5f60209050601f831160018114613dab575f8415613d99578287015190505b613da38582613d28565b865550613e0a565b601f198416613db986613ba6565b5f5b82811015613de057848901518255600182019150602085019450602081019050613dbb565b86831015613dfd5784890151613df9601f891682613d0c565b8355505b6001600288020188555050505b505050505050565b5f819050919050565b5f67ffffffffffffffff82169050919050565b5f613e48613e43613e3e84613e12565b613c24565b613e1b565b9050919050565b613e5881613e2e565b82525050565b5f602082019050613e715f830184613e4f565b92915050565b5f613e8182612e7b565b91505f8203613e9357613e92613a13565b5b600182039050919050565b5f606082019050613eb15f830186613719565b613ebe6020830185612f63565b613ecb6040830184612f63565b949350505050565b5f819050919050565b5f613ef6613ef1613eec84613ed3565b613c24565b612e7b565b9050919050565b613f0681613edc565b82525050565b5f602082019050613f1f5f830184613efd565b92915050565b5f604082019050613f385f830185612f63565b613f456020830184612f63565b9392505050565b5f613f5682612e7b565b9150613f6183612e7b565b9250828201905080821115613f7957613f78613a13565b5b9291505056fea26469706673582212206bfb8c83f524cc63d3c04cbf2267e4a0411e24a3890eccf78669f219c414148b64736f6c63430008140033",
  "immutableReferences": {},
  "source": "// SPDX-License-Identifier: MIT\npragma solidity ^0.8.20;\n\nimport \"@openzeppelin/contracts-upgradeable/token/ERC20/extensions/ERC20BurnableUpgradeable.sol\";\nimport \"@openzeppelin/contracts-upgradeable/token/ERC20/extensions/ERC20CappedUpgradeable.sol\";\nimport \"@openzeppelin/contracts-upgradeable/token/ERC20/extensions/ERC20PausableUpgradeable.sol\";\nimport \"@openzeppelin/contracts-upgradeable/access/OwnableUpgradeable.sol\";\nimport \"@openzeppelin/contracts-upgradeable/proxy/utils/Initializable.sol\";\n\ncontract CertixToken is Initializable, ERC20BurnableUpgradeable, ERC20CappedUpgradeable, ERC20PausableUpgradeable,  OwnableUpgradeable {\n\n    struct Tier {\n        string name;\n        uint256 minCertixBalance;\n        bool canMint;\n        bool canMelt;\n        bool canMerge;\n        bool hasAuctionAccess;\n        uint256 magicItemLootingChance;\n        uint256 maxWeightForMergeInMilligrams;\n        uint256 transactionBurnFee;\n        uint256 mintingFeePercentage;\n        uint256 meltingFeePercentage;\n        uint256 auctionFeePercentage;\n    }\n\n    // Maps for blacklist and skipBurnFeesList\n    mapping(address => bool) public blacklist;\n    mapping(address => bool) public skipBurnFeesList;\n\n    Tier[] public tiers;\n\n    uint256 private constant RATE_DENOMINATOR = 10000; // Denominator to calculate burn rate\n\n    function initialize(string memory _name, string memory _symbol, uint256 _maxSupply) public initializer {\n        __ERC20_init(_name, _symbol);\n        __ERC20Capped_init(_maxSupply); // Initialize the cap\n        __ERC20Pausable_init(); // Initialize the pausable functionality\n        __ERC20Burnable_init();\n        __Ownable_init(msg.sender);\n\n        // Mint initial supply if specified and ensure it does not exceed max supply\n        _mint(_msgSender(), _maxSupply);\n\n        initializeTiers();\n    }\n    \n    function initializeTiers() internal {\n        // Initialize tiers with specified attributes\n        tiers.push(Tier(\"NO_TIER\", 0, false, false, false, false, 0, 0, 50, 100, 100, 100)); // Maximum fees and no permissions\n        tiers.push(Tier(\"Pioneer\", 250e18, false, true, false, false, 1, 0, 50, 0, 300, 0));\n        tiers.push(Tier(\"Prospector\", 1000e18, true, true, false, false, 2, 0, 40, 300, 200, 0));\n        tiers.push(Tier(\"Artisan\", 2500e18, true, true, true, true, 3, 32000, 30, 200, 100, 300));\n        tiers.push(Tier(\"Baron\", 10000e18, true, true, true, true, 5, 70000, 20, 100, 50, 200));\n        tiers.push(Tier(\"Emperor\", 20000e18, true, true, true, true, 10, type(uint256).max, 10, 0, 0, 100));\n    }\n\n    function getUserTierIndex(address _wallet) public view returns (uint256) {\n        uint256 balance = balanceOf(_wallet);\n        for (uint256 i = tiers.length; i > 0; i--) {\n            if (balance >= tiers[i - 1].minCertixBalance) return i - 1;\n        }\n        return 0; // Returns 0 for NO_TIER\n    }\n\n    function getUserTier(address _wallet) public view returns (Tier memory) {\n        return tiers[getUserTierIndex(_wallet)];\n    }\n\n    function getAllTiers() public view returns (Tier[] memory) {\n        return tiers;\n    }\n    \n\n    function addToBlacklist(address account) public onlyOwner {\n        blacklist[account] = true;\n    }\n\n    function removeFromBlacklist(address account) public onlyOwner {\n        blacklist[account] = false;\n    }\n\n    function addToSkipBurnFeesList(address account) public onlyOwner {\n        skipBurnFeesList[account] = true;\n    }\n\n    function removeFromSkipBurnFeesList(address account) public onlyOwner {\n        skipBurnFeesList[account] = false;\n    }\n\n    function transfer(address _to, uint256 _amount) public override returns (bool) {\n        require(!blacklist[msg.sender] && !blacklist[_to], \"ERC20: sender or recipient is blacklisted\");\n\n        uint256 burnAmount = 0;\n        if (!skipBurnFeesList[msg.sender]) {\n            burnAmount = calculateBurnAmount(msg.sender, _amount);\n            super._burn(msg.sender, burnAmount);\n        }\n\n        uint256 amountWithoutBurn = _amount - burnAmount;\n        return super.transfer(_to, amountWithoutBurn);\n    }\n\n    function transferFrom(address _from, address _to, uint256 _amount) public override returns (bool) {\n        require(!blacklist[_from] && !blacklist[_to], \"ERC20: sender or recipient is blacklisted\");\n\n        uint256 burnAmount = 0;\n        if (!skipBurnFeesList[_from]) {\n            burnAmount = calculateBurnAmount(_from, _amount);\n            super._burn(_from, burnAmount);\n        }\n\n        uint256 amountWithoutBurn = _amount - burnAmount;\n        return super.transferFrom(_from, _to, amountWithoutBurn);\n    }\n\n    function calculateBurnAmount(address sender, uint256 amount) public view returns (uint256) {\n        if (skipBurnFeesList[sender]) {\n            return 0;\n        }\n        return amount * getUserTier(sender).transactionBurnFee / RATE_DENOMINATOR;\n    }\n\n    // Function to pause the token transfers - can only be called by the owner\n    function pause() public onlyOwner {\n        _pause();\n    }\n\n    // Function to unpause the token transfers - can only be called by the owner\n    function unpause() public onlyOwner {\n        _unpause();\n    }\n\n    function _update(address from, address to, uint256 value) internal override(ERC20Upgradeable, ERC20CappedUpgradeable, ERC20PausableUpgradeable) {\n        super._update(from, to, value);\n    }\n\n    // Function to update a specific tier\n    function updateTier(uint256 tierIndex, Tier memory params) public onlyOwner{\n        require(tierIndex < tiers.length, \"Tier index out of bounds\");\n\n        Tier storage tier = tiers[tierIndex];\n        tier.name = params.name;\n        tier.minCertixBalance = params.minCertixBalance;\n        tier.canMint = params.canMint;\n        tier.canMelt = params.canMelt;\n        tier.canMerge = params.canMerge;\n        tier.hasAuctionAccess = params.hasAuctionAccess;\n        tier.magicItemLootingChance = params.magicItemLootingChance;\n        tier.maxWeightForMergeInMilligrams = params.maxWeightForMergeInMilligrams;\n        tier.transactionBurnFee = params.transactionBurnFee;\n        tier.mintingFeePercentage = params.mintingFeePercentage;\n        tier.meltingFeePercentage = params.meltingFeePercentage;\n        tier.auctionFeePercentage = params.auctionFeePercentage;\n    }\n}",
  "sourcePath": "/Users/maximereynders/Documents/CertixGold/certix-contracts/contracts/CertixToken.sol",
  "compiler": {
    "name": "solc",
    "version": "0.8.20+commit.a1b79de6.Emscripten.clang"
  },
  "schemaVersion": "3.4.16",
  "updatedAt": "2024-03-25T23:24:16.009Z",
  "networkType": "ethereum",
  "devdoc": {
    "errors": {
      "ERC20ExceededCap(uint256,uint256)": [
        {
          "details": "Total supply cap has been exceeded."
        }
      ],
      "ERC20InsufficientAllowance(address,uint256,uint256)": [
        {
          "details": "Indicates a failure with the `spender`s `allowance`. Used in transfers.",
          "params": {
            "allowance": "Amount of tokens a `spender` is allowed to operate with.",
            "needed": "Minimum amount required to perform a transfer.",
            "spender": "Address that may be allowed to operate on tokens without being their owner."
          }
        }
      ],
      "ERC20InsufficientBalance(address,uint256,uint256)": [
        {
          "details": "Indicates an error related to the current `balance` of a `sender`. Used in transfers.",
          "params": {
            "balance": "Current balance for the interacting account.",
            "needed": "Minimum amount required to perform a transfer.",
            "sender": "Address whose tokens are being transferred."
          }
        }
      ],
      "ERC20InvalidApprover(address)": [
        {
          "details": "Indicates a failure with the `approver` of a token to be approved. Used in approvals.",
          "params": {
            "approver": "Address initiating an approval operation."
          }
        }
      ],
      "ERC20InvalidCap(uint256)": [
        {
          "details": "The supplied cap is not a valid cap."
        }
      ],
      "ERC20InvalidReceiver(address)": [
        {
          "details": "Indicates a failure with the token `receiver`. Used in transfers.",
          "params": {
            "receiver": "Address to which tokens are being transferred."
          }
        }
      ],
      "ERC20InvalidSender(address)": [
        {
          "details": "Indicates a failure with the token `sender`. Used in transfers.",
          "params": {
            "sender": "Address whose tokens are being transferred."
          }
        }
      ],
      "ERC20InvalidSpender(address)": [
        {
          "details": "Indicates a failure with the `spender` to be approved. Used in approvals.",
          "params": {
            "spender": "Address that may be allowed to operate on tokens without being their owner."
          }
        }
      ],
      "EnforcedPause()": [
        {
          "details": "The operation failed because the contract is paused."
        }
      ],
      "ExpectedPause()": [
        {
          "details": "The operation failed because the contract is not paused."
        }
      ],
      "InvalidInitialization()": [
        {
          "details": "The contract is already initialized."
        }
      ],
      "NotInitializing()": [
        {
          "details": "The contract is not initializing."
        }
      ],
      "OwnableInvalidOwner(address)": [
        {
          "details": "The owner is not a valid owner account. (eg. `address(0)`)"
        }
      ],
      "OwnableUnauthorizedAccount(address)": [
        {
          "details": "The caller account is not authorized to perform an operation."
        }
      ]
    },
    "events": {
      "Approval(address,address,uint256)": {
        "details": "Emitted when the allowance of a `spender` for an `owner` is set by a call to {approve}. `value` is the new allowance."
      },
      "Initialized(uint64)": {
        "details": "Triggered when the contract has been initialized or reinitialized."
      },
      "Paused(address)": {
        "details": "Emitted when the pause is triggered by `account`."
      },
      "Transfer(address,address,uint256)": {
        "details": "Emitted when `value` tokens are moved from one account (`from`) to another (`to`). Note that `value` may be zero."
      },
      "Unpaused(address)": {
        "details": "Emitted when the pause is lifted by `account`."
      }
    },
    "kind": "dev",
    "methods": {
      "allowance(address,address)": {
        "details": "See {IERC20-allowance}."
      },
      "approve(address,uint256)": {
        "details": "See {IERC20-approve}. NOTE: If `value` is the maximum `uint256`, the allowance is not updated on `transferFrom`. This is semantically equivalent to an infinite approval. Requirements: - `spender` cannot be the zero address."
      },
      "balanceOf(address)": {
        "details": "See {IERC20-balanceOf}."
      },
      "burn(uint256)": {
        "details": "Destroys a `value` amount of tokens from the caller. See {ERC20-_burn}."
      },
      "burnFrom(address,uint256)": {
        "details": "Destroys a `value` amount of tokens from `account`, deducting from the caller's allowance. See {ERC20-_burn} and {ERC20-allowance}. Requirements: - the caller must have allowance for ``accounts``'s tokens of at least `value`."
      },
      "cap()": {
        "details": "Returns the cap on the token's total supply."
      },
      "decimals()": {
        "details": "Returns the number of decimals used to get its user representation. For example, if `decimals` equals `2`, a balance of `505` tokens should be displayed to a user as `5.05` (`505 / 10 ** 2`). Tokens usually opt for a value of 18, imitating the relationship between Ether and Wei. This is the default value returned by this function, unless it's overridden. NOTE: This information is only used for _display_ purposes: it in no way affects any of the arithmetic of the contract, including {IERC20-balanceOf} and {IERC20-transfer}."
      },
      "name()": {
        "details": "Returns the name of the token."
      },
      "owner()": {
        "details": "Returns the address of the current owner."
      },
      "paused()": {
        "details": "Returns true if the contract is paused, and false otherwise."
      },
      "renounceOwnership()": {
        "details": "Leaves the contract without owner. It will not be possible to call `onlyOwner` functions. Can only be called by the current owner. NOTE: Renouncing ownership will leave the contract without an owner, thereby disabling any functionality that is only available to the owner."
      },
      "symbol()": {
        "details": "Returns the symbol of the token, usually a shorter version of the name."
      },
      "totalSupply()": {
        "details": "See {IERC20-totalSupply}."
      },
      "transferOwnership(address)": {
        "details": "Transfers ownership of the contract to a new account (`newOwner`). Can only be called by the current owner."
      }
    },
    "version": 1
  },
  "userdoc": {
    "kind": "user",
    "methods": {},
    "version": 1
  }
}