{
  "contractName": "CertixVault",
  "abi": [
    {
      "inputs": [],
      "name": "InvalidInitialization",
      "type": "error"
    },
    {
      "inputs": [],
      "name": "NotInitializing",
      "type": "error"
    },
    {
      "inputs": [
        {
          "internalType": "address",
          "name": "owner",
          "type": "address"
        }
      ],
      "name": "OwnableInvalidOwner",
      "type": "error"
    },
    {
      "inputs": [
        {
          "internalType": "address",
          "name": "account",
          "type": "address"
        }
      ],
      "name": "OwnableUnauthorizedAccount",
      "type": "error"
    },
    {
      "anonymous": false,
      "inputs": [
        {
          "indexed": false,
          "internalType": "uint64",
          "name": "version",
          "type": "uint64"
        }
      ],
      "name": "Initialized",
      "type": "event"
    },
    {
      "anonymous": false,
      "inputs": [
        {
          "indexed": true,
          "internalType": "address",
          "name": "previousOwner",
          "type": "address"
        },
        {
          "indexed": true,
          "internalType": "address",
          "name": "newOwner",
          "type": "address"
        }
      ],
      "name": "OwnershipTransferred",
      "type": "event"
    },
    {
      "inputs": [],
      "name": "owner",
      "outputs": [
        {
          "internalType": "address",
          "name": "",
          "type": "address"
        }
      ],
      "stateMutability": "view",
      "type": "function"
    },
    {
      "inputs": [],
      "name": "renounceOwnership",
      "outputs": [],
      "stateMutability": "nonpayable",
      "type": "function"
    },
    {
      "inputs": [
        {
          "internalType": "address",
          "name": "newOwner",
          "type": "address"
        }
      ],
      "name": "transferOwnership",
      "outputs": [],
      "stateMutability": "nonpayable",
      "type": "function"
    },
    {
      "inputs": [],
      "name": "usdt",
      "outputs": [
        {
          "internalType": "contract IERC20",
          "name": "",
          "type": "address"
        }
      ],
      "stateMutability": "view",
      "type": "function"
    },
    {
      "inputs": [],
      "name": "xaut",
      "outputs": [
        {
          "internalType": "contract IERC20",
          "name": "",
          "type": "address"
        }
      ],
      "stateMutability": "view",
      "type": "function"
    },
    {
      "inputs": [
        {
          "internalType": "address",
          "name": "_usdtAddress",
          "type": "address"
        },
        {
          "internalType": "address",
          "name": "_xautAddress",
          "type": "address"
        }
      ],
      "name": "initialize",
      "outputs": [],
      "stateMutability": "nonpayable",
      "type": "function"
    }
  ],
  "bytecode": "0x608060405234801561000f575f80fd5b506108b68061001d5f395ff3fe608060405234801561000f575f80fd5b5060043610610060575f3560e01c8063041be9f6146100645780632f48ab7d14610082578063485cc955146100a0578063715018a6146100bc5780638da5cb5b146100c6578063f2fde38b146100e4575b5f80fd5b61006c610100565b6040516100799190610732565b60405180910390f35b61008a610125565b6040516100979190610732565b60405180910390f35b6100ba60048036038101906100b5919061078a565b610148565b005b6100c4610349565b005b6100ce61035c565b6040516100db91906107d7565b60405180910390f35b6100fe60048036038101906100f991906107f0565b610391565b005b60015f9054906101000a900473ffffffffffffffffffffffffffffffffffffffff1681565b5f8054906101000a900473ffffffffffffffffffffffffffffffffffffffff1681565b5f610151610415565b90505f815f0160089054906101000a900460ff161590505f825f015f9054906101000a900467ffffffffffffffff1690505f808267ffffffffffffffff161480156101995750825b90505f60018367ffffffffffffffff161480156101cc57505f3073ffffffffffffffffffffffffffffffffffffffff163b145b9050811580156101da575080155b15610211576040517ff92ee8a900000000000000000000000000000000000000000000000000000000815260040160405180910390fd5b6001855f015f6101000a81548167ffffffffffffffff021916908367ffffffffffffffff160217905550831561025e576001855f0160086101000a81548160ff0219169083151502179055505b6102673361043c565b865f806101000a81548173ffffffffffffffffffffffffffffffffffffffff021916908373ffffffffffffffffffffffffffffffffffffffff1602179055508560015f6101000a81548173ffffffffffffffffffffffffffffffffffffffff021916908373ffffffffffffffffffffffffffffffffffffffff1602179055508315610340575f855f0160086101000a81548160ff0219169083151502179055507fc7f505b2f371ae2175ee4913f4499e1f2633a7b5936321eed1cdaeb6115181d260016040516103379190610867565b60405180910390a15b50505050505050565b610351610450565b61035a5f6104d7565b565b5f806103666105a8565b9050805f015f9054906101000a900473ffffffffffffffffffffffffffffffffffffffff1691505090565b610399610450565b5f73ffffffffffffffffffffffffffffffffffffffff168173ffffffffffffffffffffffffffffffffffffffff1603610409575f6040517f1e4fbdf700000000000000000000000000000000000000000000000000000000815260040161040091906107d7565b60405180910390fd5b610412816104d7565b50565b5f7ff0c57e16840df040f15088dc2f81fe391c3923bec73e23a9662efc9c229c6a00905090565b6104446105cf565b61044d8161060f565b50565b610458610693565b73ffffffffffffffffffffffffffffffffffffffff1661047661035c565b73ffffffffffffffffffffffffffffffffffffffff16146104d557610499610693565b6040517f118cdaa70000000000000000000000000000000000000000000000000000000081526004016104cc91906107d7565b60405180910390fd5b565b5f6104e06105a8565b90505f815f015f9054906101000a900473ffffffffffffffffffffffffffffffffffffffff16905082825f015f6101000a81548173ffffffffffffffffffffffffffffffffffffffff021916908373ffffffffffffffffffffffffffffffffffffffff1602179055508273ffffffffffffffffffffffffffffffffffffffff168173ffffffffffffffffffffffffffffffffffffffff167f8be0079c531659141344cd1fd0a4f28419497f9722a3daafe3b4186f6b6457e060405160405180910390a3505050565b5f7f9016d09d72d40fdae2fd8ceac6b6234c7706214fd39c1cd1e609a0528c199300905090565b6105d761069a565b61060d576040517fd7e6bcf800000000000000000000000000000000000000000000000000000000815260040160405180910390fd5b565b6106176105cf565b5f73ffffffffffffffffffffffffffffffffffffffff168173ffffffffffffffffffffffffffffffffffffffff1603610687575f6040517f1e4fbdf700000000000000000000000000000000000000000000000000000000815260040161067e91906107d7565b60405180910390fd5b610690816104d7565b50565b5f33905090565b5f6106a3610415565b5f0160089054906101000a900460ff16905090565b5f73ffffffffffffffffffffffffffffffffffffffff82169050919050565b5f819050919050565b5f6106fa6106f56106f0846106b8565b6106d7565b6106b8565b9050919050565b5f61070b826106e0565b9050919050565b5f61071c82610701565b9050919050565b61072c81610712565b82525050565b5f6020820190506107455f830184610723565b92915050565b5f80fd5b5f610759826106b8565b9050919050565b6107698161074f565b8114610773575f80fd5b50565b5f8135905061078481610760565b92915050565b5f80604083850312156107a05761079f61074b565b5b5f6107ad85828601610776565b92505060206107be85828601610776565b9150509250929050565b6107d18161074f565b82525050565b5f6020820190506107ea5f8301846107c8565b92915050565b5f602082840312156108055761080461074b565b5b5f61081284828501610776565b91505092915050565b5f819050919050565b5f67ffffffffffffffff82169050919050565b5f61085161084c6108478461081b565b6106d7565b610824565b9050919050565b61086181610837565b82525050565b5f60208201905061087a5f830184610858565b9291505056fea2646970667358221220a8b9901d9eb1cc7e3986b88ae79472a6aa1e124ebd75ce8ab0d74c18c510032964736f6c63430008140033",
  "immutableReferences": {},
  "source": "// SPDX-License-Identifier: MIT\npragma solidity ^0.8.20;\n\nimport \"@openzeppelin/contracts/token/ERC20/IERC20.sol\";\nimport \"@openzeppelin/contracts-upgradeable/access/OwnableUpgradeable.sol\";\nimport \"@openzeppelin/contracts-upgradeable/proxy/utils/Initializable.sol\";\n\ncontract CertixVault is Initializable, OwnableUpgradeable {\n    // Interfaces for USDT and XAUT tokens\n    IERC20 public usdt;\n    IERC20 public xaut;\n\n\n    function initialize(address _usdtAddress, address _xautAddress) public initializer {\n        __Ownable_init(msg.sender);\n\n        usdt = IERC20(_usdtAddress);\n        xaut = IERC20(_xautAddress);\n    }\n}",
  "sourcePath": "/Users/maximereynders/Documents/CertixGold/certix-contracts/contracts/CertixVault.sol",
  "compiler": {
    "name": "solc",
    "version": "0.8.20+commit.a1b79de6.Emscripten.clang"
  },
  "schemaVersion": "3.4.16",
  "updatedAt": "2024-03-25T23:23:51.971Z",
  "devdoc": {
    "errors": {
      "InvalidInitialization()": [
        {
          "details": "The contract is already initialized."
        }
      ],
      "NotInitializing()": [
        {
          "details": "The contract is not initializing."
        }
      ],
      "OwnableInvalidOwner(address)": [
        {
          "details": "The owner is not a valid owner account. (eg. `address(0)`)"
        }
      ],
      "OwnableUnauthorizedAccount(address)": [
        {
          "details": "The caller account is not authorized to perform an operation."
        }
      ]
    },
    "events": {
      "Initialized(uint64)": {
        "details": "Triggered when the contract has been initialized or reinitialized."
      }
    },
    "kind": "dev",
    "methods": {
      "owner()": {
        "details": "Returns the address of the current owner."
      },
      "renounceOwnership()": {
        "details": "Leaves the contract without owner. It will not be possible to call `onlyOwner` functions. Can only be called by the current owner. NOTE: Renouncing ownership will leave the contract without an owner, thereby disabling any functionality that is only available to the owner."
      },
      "transferOwnership(address)": {
        "details": "Transfers ownership of the contract to a new account (`newOwner`). Can only be called by the current owner."
      }
    },
    "version": 1
  },
  "userdoc": {
    "kind": "user",
    "methods": {},
    "version": 1
  }
}