{
  "contractName": "CertixNFT",
  "abi": [
    {
      "inputs": [],
      "name": "ERC721EnumerableForbiddenBatchMint",
      "type": "error"
    },
    {
      "inputs": [
        {
          "internalType": "address",
          "name": "sender",
          "type": "address"
        },
        {
          "internalType": "uint256",
          "name": "tokenId",
          "type": "uint256"
        },
        {
          "internalType": "address",
          "name": "owner",
          "type": "address"
        }
      ],
      "name": "ERC721IncorrectOwner",
      "type": "error"
    },
    {
      "inputs": [
        {
          "internalType": "address",
          "name": "operator",
          "type": "address"
        },
        {
          "internalType": "uint256",
          "name": "tokenId",
          "type": "uint256"
        }
      ],
      "name": "ERC721InsufficientApproval",
      "type": "error"
    },
    {
      "inputs": [
        {
          "internalType": "address",
          "name": "approver",
          "type": "address"
        }
      ],
      "name": "ERC721InvalidApprover",
      "type": "error"
    },
    {
      "inputs": [
        {
          "internalType": "address",
          "name": "operator",
          "type": "address"
        }
      ],
      "name": "ERC721InvalidOperator",
      "type": "error"
    },
    {
      "inputs": [
        {
          "internalType": "address",
          "name": "owner",
          "type": "address"
        }
      ],
      "name": "ERC721InvalidOwner",
      "type": "error"
    },
    {
      "inputs": [
        {
          "internalType": "address",
          "name": "receiver",
          "type": "address"
        }
      ],
      "name": "ERC721InvalidReceiver",
      "type": "error"
    },
    {
      "inputs": [
        {
          "internalType": "address",
          "name": "sender",
          "type": "address"
        }
      ],
      "name": "ERC721InvalidSender",
      "type": "error"
    },
    {
      "inputs": [
        {
          "internalType": "uint256",
          "name": "tokenId",
          "type": "uint256"
        }
      ],
      "name": "ERC721NonexistentToken",
      "type": "error"
    },
    {
      "inputs": [
        {
          "internalType": "address",
          "name": "owner",
          "type": "address"
        },
        {
          "internalType": "uint256",
          "name": "index",
          "type": "uint256"
        }
      ],
      "name": "ERC721OutOfBoundsIndex",
      "type": "error"
    },
    {
      "inputs": [],
      "name": "InvalidInitialization",
      "type": "error"
    },
    {
      "inputs": [],
      "name": "NotInitializing",
      "type": "error"
    },
    {
      "inputs": [
        {
          "internalType": "address",
          "name": "owner",
          "type": "address"
        }
      ],
      "name": "OwnableInvalidOwner",
      "type": "error"
    },
    {
      "inputs": [
        {
          "internalType": "address",
          "name": "account",
          "type": "address"
        }
      ],
      "name": "OwnableUnauthorizedAccount",
      "type": "error"
    },
    {
      "anonymous": false,
      "inputs": [
        {
          "indexed": true,
          "internalType": "address",
          "name": "owner",
          "type": "address"
        },
        {
          "indexed": true,
          "internalType": "address",
          "name": "approved",
          "type": "address"
        },
        {
          "indexed": true,
          "internalType": "uint256",
          "name": "tokenId",
          "type": "uint256"
        }
      ],
      "name": "Approval",
      "type": "event"
    },
    {
      "anonymous": false,
      "inputs": [
        {
          "indexed": true,
          "internalType": "address",
          "name": "owner",
          "type": "address"
        },
        {
          "indexed": true,
          "internalType": "address",
          "name": "operator",
          "type": "address"
        },
        {
          "indexed": false,
          "internalType": "bool",
          "name": "approved",
          "type": "bool"
        }
      ],
      "name": "ApprovalForAll",
      "type": "event"
    },
    {
      "anonymous": false,
      "inputs": [
        {
          "indexed": false,
          "internalType": "uint256",
          "name": "_fromTokenId",
          "type": "uint256"
        },
        {
          "indexed": false,
          "internalType": "uint256",
          "name": "_toTokenId",
          "type": "uint256"
        }
      ],
      "name": "BatchMetadataUpdate",
      "type": "event"
    },
    {
      "anonymous": false,
      "inputs": [
        {
          "indexed": false,
          "internalType": "uint64",
          "name": "version",
          "type": "uint64"
        }
      ],
      "name": "Initialized",
      "type": "event"
    },
    {
      "anonymous": false,
      "inputs": [
        {
          "indexed": false,
          "internalType": "uint256",
          "name": "_tokenId",
          "type": "uint256"
        }
      ],
      "name": "MetadataUpdate",
      "type": "event"
    },
    {
      "anonymous": false,
      "inputs": [
        {
          "indexed": true,
          "internalType": "address",
          "name": "previousOwner",
          "type": "address"
        },
        {
          "indexed": true,
          "internalType": "address",
          "name": "newOwner",
          "type": "address"
        }
      ],
      "name": "OwnershipTransferred",
      "type": "event"
    },
    {
      "anonymous": false,
      "inputs": [
        {
          "indexed": true,
          "internalType": "address",
          "name": "from",
          "type": "address"
        },
        {
          "indexed": true,
          "internalType": "address",
          "name": "to",
          "type": "address"
        },
        {
          "indexed": true,
          "internalType": "uint256",
          "name": "tokenId",
          "type": "uint256"
        }
      ],
      "name": "Transfer",
      "type": "event"
    },
    {
      "inputs": [
        {
          "internalType": "address",
          "name": "to",
          "type": "address"
        },
        {
          "internalType": "uint256",
          "name": "tokenId",
          "type": "uint256"
        }
      ],
      "name": "approve",
      "outputs": [],
      "stateMutability": "nonpayable",
      "type": "function"
    },
    {
      "inputs": [
        {
          "internalType": "address",
          "name": "owner",
          "type": "address"
        }
      ],
      "name": "balanceOf",
      "outputs": [
        {
          "internalType": "uint256",
          "name": "",
          "type": "uint256"
        }
      ],
      "stateMutability": "view",
      "type": "function",
      "constant": true
    },
    {
      "inputs": [],
      "name": "certixToken",
      "outputs": [
        {
          "internalType": "address",
          "name": "",
          "type": "address"
        }
      ],
      "stateMutability": "view",
      "type": "function",
      "constant": true
    },
    {
      "inputs": [
        {
          "internalType": "uint256",
          "name": "tokenId",
          "type": "uint256"
        }
      ],
      "name": "getApproved",
      "outputs": [
        {
          "internalType": "address",
          "name": "",
          "type": "address"
        }
      ],
      "stateMutability": "view",
      "type": "function",
      "constant": true
    },
    {
      "inputs": [
        {
          "internalType": "address",
          "name": "owner",
          "type": "address"
        },
        {
          "internalType": "address",
          "name": "operator",
          "type": "address"
        }
      ],
      "name": "isApprovedForAll",
      "outputs": [
        {
          "internalType": "bool",
          "name": "",
          "type": "bool"
        }
      ],
      "stateMutability": "view",
      "type": "function",
      "constant": true
    },
    {
      "inputs": [
        {
          "internalType": "string",
          "name": "",
          "type": "string"
        }
      ],
      "name": "itemTypes",
      "outputs": [
        {
          "internalType": "uint256",
          "name": "supplyLimit",
          "type": "uint256"
        },
        {
          "internalType": "uint256",
          "name": "currentSupply",
          "type": "uint256"
        },
        {
          "internalType": "uint256",
          "name": "burnCount",
          "type": "uint256"
        },
        {
          "internalType": "uint256",
          "name": "goldWeightInMilligrams",
          "type": "uint256"
        }
      ],
      "stateMutability": "view",
      "type": "function",
      "constant": true
    },
    {
      "inputs": [
        {
          "internalType": "uint256",
          "name": "",
          "type": "uint256"
        }
      ],
      "name": "itemTypesList",
      "outputs": [
        {
          "internalType": "string",
          "name": "",
          "type": "string"
        }
      ],
      "stateMutability": "view",
      "type": "function",
      "constant": true
    },
    {
      "inputs": [],
      "name": "name",
      "outputs": [
        {
          "internalType": "string",
          "name": "",
          "type": "string"
        }
      ],
      "stateMutability": "view",
      "type": "function",
      "constant": true
    },
    {
      "inputs": [],
      "name": "owner",
      "outputs": [
        {
          "internalType": "address",
          "name": "",
          "type": "address"
        }
      ],
      "stateMutability": "view",
      "type": "function",
      "constant": true
    },
    {
      "inputs": [
        {
          "internalType": "uint256",
          "name": "tokenId",
          "type": "uint256"
        }
      ],
      "name": "ownerOf",
      "outputs": [
        {
          "internalType": "address",
          "name": "",
          "type": "address"
        }
      ],
      "stateMutability": "view",
      "type": "function",
      "constant": true
    },
    {
      "inputs": [],
      "name": "renounceOwnership",
      "outputs": [],
      "stateMutability": "nonpayable",
      "type": "function"
    },
    {
      "inputs": [
        {
          "internalType": "address",
          "name": "from",
          "type": "address"
        },
        {
          "internalType": "address",
          "name": "to",
          "type": "address"
        },
        {
          "internalType": "uint256",
          "name": "tokenId",
          "type": "uint256"
        }
      ],
      "name": "safeTransferFrom",
      "outputs": [],
      "stateMutability": "nonpayable",
      "type": "function"
    },
    {
      "inputs": [
        {
          "internalType": "address",
          "name": "from",
          "type": "address"
        },
        {
          "internalType": "address",
          "name": "to",
          "type": "address"
        },
        {
          "internalType": "uint256",
          "name": "tokenId",
          "type": "uint256"
        },
        {
          "internalType": "bytes",
          "name": "data",
          "type": "bytes"
        }
      ],
      "name": "safeTransferFrom",
      "outputs": [],
      "stateMutability": "nonpayable",
      "type": "function"
    },
    {
      "inputs": [
        {
          "internalType": "address",
          "name": "operator",
          "type": "address"
        },
        {
          "internalType": "bool",
          "name": "approved",
          "type": "bool"
        }
      ],
      "name": "setApprovalForAll",
      "outputs": [],
      "stateMutability": "nonpayable",
      "type": "function"
    },
    {
      "inputs": [],
      "name": "symbol",
      "outputs": [
        {
          "internalType": "string",
          "name": "",
          "type": "string"
        }
      ],
      "stateMutability": "view",
      "type": "function",
      "constant": true
    },
    {
      "inputs": [
        {
          "internalType": "uint256",
          "name": "index",
          "type": "uint256"
        }
      ],
      "name": "tokenByIndex",
      "outputs": [
        {
          "internalType": "uint256",
          "name": "",
          "type": "uint256"
        }
      ],
      "stateMutability": "view",
      "type": "function",
      "constant": true
    },
    {
      "inputs": [],
      "name": "tokenIdCounter",
      "outputs": [
        {
          "internalType": "uint256",
          "name": "",
          "type": "uint256"
        }
      ],
      "stateMutability": "view",
      "type": "function",
      "constant": true
    },
    {
      "inputs": [
        {
          "internalType": "uint256",
          "name": "",
          "type": "uint256"
        }
      ],
      "name": "tokenIdToItemType",
      "outputs": [
        {
          "internalType": "string",
          "name": "",
          "type": "string"
        }
      ],
      "stateMutability": "view",
      "type": "function",
      "constant": true
    },
    {
      "inputs": [
        {
          "internalType": "address",
          "name": "owner",
          "type": "address"
        },
        {
          "internalType": "uint256",
          "name": "index",
          "type": "uint256"
        }
      ],
      "name": "tokenOfOwnerByIndex",
      "outputs": [
        {
          "internalType": "uint256",
          "name": "",
          "type": "uint256"
        }
      ],
      "stateMutability": "view",
      "type": "function",
      "constant": true
    },
    {
      "inputs": [
        {
          "internalType": "string",
          "name": "",
          "type": "string"
        },
        {
          "internalType": "uint256",
          "name": "",
          "type": "uint256"
        }
      ],
      "name": "tokensByType",
      "outputs": [
        {
          "internalType": "uint256",
          "name": "",
          "type": "uint256"
        }
      ],
      "stateMutability": "view",
      "type": "function",
      "constant": true
    },
    {
      "inputs": [],
      "name": "totalGoldWeightInMilligrams",
      "outputs": [
        {
          "internalType": "uint256",
          "name": "",
          "type": "uint256"
        }
      ],
      "stateMutability": "view",
      "type": "function",
      "constant": true
    },
    {
      "inputs": [],
      "name": "totalSupply",
      "outputs": [
        {
          "internalType": "uint256",
          "name": "",
          "type": "uint256"
        }
      ],
      "stateMutability": "view",
      "type": "function",
      "constant": true
    },
    {
      "inputs": [
        {
          "internalType": "address",
          "name": "from",
          "type": "address"
        },
        {
          "internalType": "address",
          "name": "to",
          "type": "address"
        },
        {
          "internalType": "uint256",
          "name": "tokenId",
          "type": "uint256"
        }
      ],
      "name": "transferFrom",
      "outputs": [],
      "stateMutability": "nonpayable",
      "type": "function"
    },
    {
      "inputs": [
        {
          "internalType": "address",
          "name": "newOwner",
          "type": "address"
        }
      ],
      "name": "transferOwnership",
      "outputs": [],
      "stateMutability": "nonpayable",
      "type": "function"
    },
    {
      "inputs": [],
      "name": "usdtAddress",
      "outputs": [
        {
          "internalType": "address",
          "name": "",
          "type": "address"
        }
      ],
      "stateMutability": "view",
      "type": "function",
      "constant": true
    },
    {
      "inputs": [],
      "name": "usdtPerGramGold",
      "outputs": [
        {
          "internalType": "uint256",
          "name": "",
          "type": "uint256"
        }
      ],
      "stateMutability": "view",
      "type": "function",
      "constant": true
    },
    {
      "inputs": [],
      "name": "xautAddress",
      "outputs": [
        {
          "internalType": "address",
          "name": "",
          "type": "address"
        }
      ],
      "stateMutability": "view",
      "type": "function",
      "constant": true
    },
    {
      "inputs": [
        {
          "internalType": "string",
          "name": "_name",
          "type": "string"
        },
        {
          "internalType": "string",
          "name": "_symbol",
          "type": "string"
        }
      ],
      "name": "initialize",
      "outputs": [],
      "stateMutability": "nonpayable",
      "type": "function"
    },
    {
      "inputs": [
        {
          "internalType": "address",
          "name": "_to",
          "type": "address"
        },
        {
          "internalType": "string",
          "name": "_itemType",
          "type": "string"
        }
      ],
      "name": "mint",
      "outputs": [],
      "stateMutability": "nonpayable",
      "type": "function"
    },
    {
      "inputs": [
        {
          "internalType": "uint256",
          "name": "_tokenId",
          "type": "uint256"
        }
      ],
      "name": "melt",
      "outputs": [],
      "stateMutability": "nonpayable",
      "type": "function"
    },
    {
      "inputs": [
        {
          "internalType": "uint256",
          "name": "_goldWeightInMilligrams",
          "type": "uint256"
        }
      ],
      "name": "getUSDTAmountForGoldWeight",
      "outputs": [
        {
          "internalType": "uint256",
          "name": "",
          "type": "uint256"
        }
      ],
      "stateMutability": "view",
      "type": "function",
      "constant": true
    },
    {
      "inputs": [
        {
          "internalType": "uint256",
          "name": "_goldWeightInMilligrams",
          "type": "uint256"
        }
      ],
      "name": "getXAUTAmountForGoldWeight",
      "outputs": [
        {
          "internalType": "uint256",
          "name": "",
          "type": "uint256"
        }
      ],
      "stateMutability": "pure",
      "type": "function",
      "constant": true
    },
    {
      "inputs": [
        {
          "internalType": "uint256",
          "name": "weightInMilligrams",
          "type": "uint256"
        }
      ],
      "name": "addGoldWeight",
      "outputs": [],
      "stateMutability": "nonpayable",
      "type": "function"
    },
    {
      "inputs": [
        {
          "internalType": "uint256",
          "name": "weightInMilligrams",
          "type": "uint256"
        }
      ],
      "name": "removeGoldWeight",
      "outputs": [],
      "stateMutability": "nonpayable",
      "type": "function"
    },
    {
      "inputs": [
        {
          "internalType": "string",
          "name": "_itemType",
          "type": "string"
        },
        {
          "internalType": "uint256",
          "name": "_supplyLimit",
          "type": "uint256"
        },
        {
          "internalType": "uint256",
          "name": "_goldWeightInMilligrams",
          "type": "uint256"
        }
      ],
      "name": "defineItemType",
      "outputs": [],
      "stateMutability": "nonpayable",
      "type": "function"
    },
    {
      "inputs": [
        {
          "internalType": "string",
          "name": "_itemType",
          "type": "string"
        },
        {
          "internalType": "string[]",
          "name": "_uris",
          "type": "string[]"
        },
        {
          "internalType": "uint256",
          "name": "_startIndex",
          "type": "uint256"
        }
      ],
      "name": "addMultipleMetadataUrisStartingAtIndex",
      "outputs": [],
      "stateMutability": "nonpayable",
      "type": "function"
    },
    {
      "inputs": [
        {
          "internalType": "string",
          "name": "_itemType",
          "type": "string"
        },
        {
          "internalType": "uint256",
          "name": "_supplyLimit",
          "type": "uint256"
        }
      ],
      "name": "setItemSupplyLimit",
      "outputs": [],
      "stateMutability": "nonpayable",
      "type": "function"
    },
    {
      "inputs": [
        {
          "internalType": "string",
          "name": "_itemType",
          "type": "string"
        },
        {
          "internalType": "uint256",
          "name": "_goldWeightInMilligrams",
          "type": "uint256"
        }
      ],
      "name": "setItemGoldWeight",
      "outputs": [],
      "stateMutability": "nonpayable",
      "type": "function"
    },
    {
      "inputs": [
        {
          "internalType": "address",
          "name": "_owner",
          "type": "address"
        }
      ],
      "name": "tokensOfOwner",
      "outputs": [
        {
          "internalType": "uint256[]",
          "name": "",
          "type": "uint256[]"
        }
      ],
      "stateMutability": "view",
      "type": "function",
      "constant": true
    },
    {
      "inputs": [
        {
          "internalType": "string[]",
          "name": "_itemTypes",
          "type": "string[]"
        },
        {
          "internalType": "bool",
          "name": "only1Metadata",
          "type": "bool"
        },
        {
          "internalType": "uint256",
          "name": "start",
          "type": "uint256"
        },
        {
          "internalType": "uint256",
          "name": "end",
          "type": "uint256"
        }
      ],
      "name": "getItemsDetails",
      "outputs": [
        {
          "components": [
            {
              "internalType": "uint256",
              "name": "supplyLimit",
              "type": "uint256"
            },
            {
              "internalType": "uint256",
              "name": "currentSupply",
              "type": "uint256"
            },
            {
              "internalType": "uint256",
              "name": "burnCount",
              "type": "uint256"
            },
            {
              "internalType": "uint256",
              "name": "goldWeightInMilligrams",
              "type": "uint256"
            },
            {
              "internalType": "string[]",
              "name": "metadataUris",
              "type": "string[]"
            }
          ],
          "internalType": "struct CertixNFT.ItemType[]",
          "name": "",
          "type": "tuple[]"
        }
      ],
      "stateMutability": "view",
      "type": "function",
      "constant": true
    },
    {
      "inputs": [
        {
          "internalType": "bool",
          "name": "only1Metadata",
          "type": "bool"
        },
        {
          "internalType": "uint256",
          "name": "start",
          "type": "uint256"
        },
        {
          "internalType": "uint256",
          "name": "end",
          "type": "uint256"
        }
      ],
      "name": "getAllItemsDetails",
      "outputs": [
        {
          "components": [
            {
              "internalType": "uint256",
              "name": "supplyLimit",
              "type": "uint256"
            },
            {
              "internalType": "uint256",
              "name": "currentSupply",
              "type": "uint256"
            },
            {
              "internalType": "uint256",
              "name": "burnCount",
              "type": "uint256"
            },
            {
              "internalType": "uint256",
              "name": "goldWeightInMilligrams",
              "type": "uint256"
            },
            {
              "internalType": "string[]",
              "name": "metadataUris",
              "type": "string[]"
            }
          ],
          "internalType": "struct CertixNFT.ItemType[]",
          "name": "",
          "type": "tuple[]"
        }
      ],
      "stateMutability": "view",
      "type": "function",
      "constant": true
    },
    {
      "inputs": [],
      "name": "getAllTypes",
      "outputs": [
        {
          "internalType": "string[]",
          "name": "",
          "type": "string[]"
        }
      ],
      "stateMutability": "view",
      "type": "function",
      "constant": true
    },
    {
      "inputs": [
        {
          "internalType": "uint256",
          "name": "_tokenId",
          "type": "uint256"
        }
      ],
      "name": "tokenURI",
      "outputs": [
        {
          "internalType": "string",
          "name": "",
          "type": "string"
        }
      ],
      "stateMutability": "view",
      "type": "function",
      "constant": true
    },
    {
      "inputs": [
        {
          "internalType": "bytes4",
          "name": "interfaceId",
          "type": "bytes4"
        }
      ],
      "name": "supportsInterface",
      "outputs": [
        {
          "internalType": "bool",
          "name": "",
          "type": "bool"
        }
      ],
      "stateMutability": "view",
      "type": "function",
      "constant": true
    },
    {
      "inputs": [
        {
          "internalType": "uint256",
          "name": "_usdtPerGramGold",
          "type": "uint256"
        }
      ],
      "name": "setUsdtPerGramGold",
      "outputs": [],
      "stateMutability": "nonpayable",
      "type": "function"
    },
    {
      "inputs": [
        {
          "internalType": "address",
          "name": "_usdtAddress",
          "type": "address"
        }
      ],
      "name": "setUsdtAddress",
      "outputs": [],
      "stateMutability": "nonpayable",
      "type": "function"
    },
    {
      "inputs": [
        {
          "internalType": "uint256",
          "name": "_amount",
          "type": "uint256"
        },
        {
          "internalType": "address",
          "name": "_to",
          "type": "address"
        }
      ],
      "name": "withdrawUsdt",
      "outputs": [],
      "stateMutability": "nonpayable",
      "type": "function"
    },
    {
      "inputs": [
        {
          "internalType": "address",
          "name": "_xautAddress",
          "type": "address"
        }
      ],
      "name": "setXAUTAddress",
      "outputs": [],
      "stateMutability": "nonpayable",
      "type": "function"
    },
    {
      "inputs": [
        {
          "internalType": "uint256",
          "name": "_amount",
          "type": "uint256"
        },
        {
          "internalType": "address",
          "name": "_to",
          "type": "address"
        }
      ],
      "name": "withdrawXAUT",
      "outputs": [],
      "stateMutability": "nonpayable",
      "type": "function"
    },
    {
      "inputs": [
        {
          "internalType": "address",
          "name": "_certixToken",
          "type": "address"
        }
      ],
      "name": "setCertixTokenAddress",
      "outputs": [],
      "stateMutability": "nonpayable",
      "type": "function"
    }
  ],
  "bytecode": "0x608060405234801561000f575f80fd5b50613de28061001d5f395ff3fe608060405234801561000f575f80fd5b50600436106102cb575f3560e01c8063715018a61161017b578063aee53fc1116100e4578063d51806d81161009e578063e288efdd11610079578063e288efdd146106cd578063e985e9c5146106e0578063f2fde38b146106f3578063fc674aa314610706575f80fd5b8063d51806d814610694578063db0c634f146106a7578063e0ceaa6d146106ba575f80fd5b8063aee53fc114610622578063b88d4fde14610635578063bee3cb5514610648578063c87b56dd1461065b578063d0def5211461066e578063d417c2d914610681575f80fd5b80638da5cb5b116101355780638da5cb5b146105a957806395d89b41146105d957806398bdf6f5146105e15780639ab4a445146105e9578063a0ea3b8b146105fc578063a22cb4651461060f575f80fd5b8063715018a6146104e557806375522fb4146104ed57806381e844f1146105005780638462151c1461051357806389ffb8a5146105335780638c83ed3314610596575f80fd5b8063394108d1116102375780635424145b116101f1578063676058c2116101cc578063676058c2146104ad5780636b4b654e146104b65780636df3f7fd146104bf57806370a08231146104d2575f80fd5b80635424145b146104745780636352211e1461048757806366de16001461049a575f80fd5b8063394108d1146103f557806342842e0e146104085780634335f5781461041b5780634b5c79741461043b5780634cd88b761461044e5780634f6ccce714610461575f80fd5b8063143b1eba11610288578063143b1eba1461037457806315db8a3f1461038757806318160ddd146103a857806323b872dd146103bc5780632f745c59146103cf578063376b71eb146103e2575f80fd5b806301ffc9a7146102cf57806306fdde03146102f7578063081812fc1461030c578063095ea7b31461033757806309dddcf01461034c5780630cb46b7514610361575b5f80fd5b6102e26102dd366004613146565b610719565b60405190151581526020015b60405180910390f35b6102ff610729565b6040516102ee91906131ae565b61031f61031a3660046131c0565b6107ca565b6040516001600160a01b0390911681526020016102ee565b61034a6103453660046131f2565b6107de565b005b6103546107ed565b6040516102ee919061321a565b61034a61036f36600461327a565b6108c1565b60095461031f906001600160a01b031681565b61039a6103953660046131c0565b6108eb565b6040519081526020016102ee565b5f80516020613d8d8339815191525461039a565b61034a6103ca366004613293565b610907565b61039a6103dd3660046131f2565b610995565b61039a6103f03660046131c0565b610a06565b61034a610403366004613452565b610a1e565b61034a610416366004613293565b610bed565b61042e6104293660046134c6565b610c0c565b6040516102ee9190613520565b6102ff6104493660046131c0565b61105f565b61034a61045c3660046135f5565b611105565b61039a61046f3660046131c0565b611224565b61034a610482366004613654565b611296565b61031f6104953660046131c0565b611355565b61042e6104a836600461367e565b61135f565b61039a60085481565b61039a60075481565b61034a6104cd3660046136b0565b611441565b61039a6104e036600461327a565b61166c565b61034a6116c4565b61039a6104fb3660046136f9565b6116d7565b61034a61050e3660046131c0565b611713565b61052661052136600461327a565b611734565b6040516102ee919061373a565b61057661054136600461377d565b805160208183018101805160028083529383019290940191909120929052815460018301549183015460039093015490929084565b6040805194855260208501939093529183015260608201526080016102ee565b61034a6105a43660046131c0565b6117f0565b7f9016d09d72d40fdae2fd8ceac6b6234c7706214fd39c1cd1e609a0528c199300546001600160a01b031661031f565b6102ff6119cf565b61039a5f5481565b60055461031f906001600160a01b031681565b6102ff61060a3660046131c0565b611a0d565b61034a61061d3660046137ae565b611a25565b61034a61063036600461327a565b611a30565b61034a6106433660046137e3565b611a5a565b61034a61065636600461327a565b611a71565b6102ff6106693660046131c0565b611a9b565b61034a61067c366004613859565b611aa6565b61034a61068f3660046136f9565b611f66565b60065461031f906001600160a01b031681565b61034a6106b53660046131c0565b611fd4565b61034a6106c8366004613654565b611fe1565b61034a6106db3660046131c0565b6120a0565b6102e26106ee366004613899565b61210b565b61034a61070136600461327a565b612157565b61034a6107143660046136f9565b612194565b5f610723826121ff565b92915050565b5f80516020613d6d8339815191528054606091908190610748906138c1565b80601f0160208091040260200160405190810160405280929190818152602001828054610774906138c1565b80156107bf5780601f10610796576101008083540402835291602001916107bf565b820191905f5260205f20905b8154815290600101906020018083116107a257829003601f168201915b505050505091505090565b5f6107d482612223565b506107238261225a565b6107e9828233612293565b5050565b60606004805480602002602001604051908101604052809291908181526020015f905b828210156108b8578382905f5260205f2001805461082d906138c1565b80601f0160208091040260200160405190810160405280929190818152602001828054610859906138c1565b80156108a45780601f1061087b576101008083540402835291602001916108a4565b820191905f5260205f20905b81548152906001019060200180831161088757829003601f168201915b505050505081526020019060010190610810565b50505050905090565b6108c96122a0565b600580546001600160a01b0319166001600160a01b0392909216919091179055565b5f6103e8600754836108fd9190613907565b610723919061391e565b6001600160a01b03821661093557604051633250574960e11b81525f60048201526024015b60405180910390fd5b5f6109418383336122fb565b9050836001600160a01b0316816001600160a01b03161461098f576040516364283d7b60e01b81526001600160a01b038086166004830152602482018490528216604482015260640161092c565b50505050565b5f5f80516020613d4d8339815191526109ad8461166c565b83106109de5760405163295f44f760e21b81526001600160a01b03851660048201526024810184905260440161092c565b6001600160a01b0384165f908152602091825260408082208583529092522054905092915050565b5f6301da9a0c6108fd83670de0b6b3a7640000613907565b610a266122a0565b600283604051610a36919061393d565b908152604051908190036020019020545f03610a645760405162461bcd60e51b815260040161092c90613958565b600283604051610a74919061393d565b90815260405190819003602001902060040154811115610ad65760405162461bcd60e51b815260206004820152601960248201527f537461727420696e646578206f7574206f6620626f756e647300000000000000604482015260640161092c565b5f5b825181101561098f575f610aec828461398f565b9050600285604051610afe919061393d565b908152604051908190036020019020600401548110610b7857600285604051610b27919061393d565b9081526020016040518091039020600401848381518110610b4a57610b4a6139a2565b60209081029190910181015182546001810184555f938452919092200190610b7290826139fb565b50610bda565b838281518110610b8a57610b8a6139a2565b6020026020010151600286604051610ba2919061393d565b90815260200160405180910390206004018281548110610bc457610bc46139a2565b905f5260205f20019081610bd891906139fb565b505b5080610be581613ab6565b915050610ad8565b610c0783838360405180602001604052805f815250611a5a565b505050565b6060818310610c4d5760405162461bcd60e51b815260206004820152600d60248201526c496e76616c69642072616e676560981b604482015260640161092c565b8451821115610c5b57845191505b5f610c668484613ace565b90505f816001600160401b03811115610c8157610c816132cc565b604051908082528060200260200182016040528015610ce057816020015b610ccd6040518060a001604052805f81526020015f81526020015f81526020015f8152602001606081525090565b815260200190600190039081610c9f5790505b5090505f855b85811015611052576002898281518110610d0257610d026139a2565b6020026020010151604051610d17919061393d565b9081526040519081900360200190205415611040576002898281518110610d4057610d406139a2565b6020026020010151604051610d55919061393d565b90815260200160405180910390206040518060a00160405290815f820154815260200160018201548152602001600282015481526020016003820154815260200160048201805480602002602001604051908101604052809291908181526020015f905b82821015610e61578382905f5260205f20018054610dd6906138c1565b80601f0160208091040260200160405190810160405280929190818152602001828054610e02906138c1565b8015610e4d5780601f10610e2457610100808354040283529160200191610e4d565b820191905f5260205f20905b815481529060010190602001808311610e3057829003601f168201915b505050505081526020019060010190610db9565b5050505081525050838381518110610e7b57610e7b6139a2565b6020026020010181905250878015610ecd57505f60028a8381518110610ea357610ea36139a2565b6020026020010151604051610eb8919061393d565b90815260405190819003602001902060040154115b156110325760408051600180825281830190925290816020015b6060815260200190600190039081610ee757905050838381518110610f0e57610f0e6139a2565b6020026020010151608001819052506002898281518110610f3157610f316139a2565b6020026020010151604051610f46919061393d565b90815260200160405180910390206004015f81548110610f6857610f686139a2565b905f5260205f20018054610f7b906138c1565b80601f0160208091040260200160405190810160405280929190818152602001828054610fa7906138c1565b8015610ff25780601f10610fc957610100808354040283529160200191610ff2565b820191905f5260205f20905b815481529060010190602001808311610fd557829003601f168201915b5050505050838381518110611009576110096139a2565b6020026020010151608001515f81518110611026576110266139a2565b60200260200101819052505b8161103c81613ab6565b9250505b8061104a81613ab6565b915050610ce6565b5090979650505050505050565b6004818154811061106e575f80fd5b905f5260205f20015f915090508054611086906138c1565b80601f01602080910402602001604051908101604052809291908181526020018280546110b2906138c1565b80156110fd5780601f106110d4576101008083540402835291602001916110fd565b820191905f5260205f20905b8154815290600101906020018083116110e057829003601f168201915b505050505081565b7ff0c57e16840df040f15088dc2f81fe391c3923bec73e23a9662efc9c229c6a008054600160401b810460ff1615906001600160401b03165f811580156111495750825b90505f826001600160401b031660011480156111645750303b155b905081158015611172575080155b156111905760405163f92ee8a960e01b815260040160405180910390fd5b845467ffffffffffffffff1916600117855583156111ba57845460ff60401b1916600160401b1785555b6111c48787612307565b6111cc612319565b6111d533612321565b831561121b57845460ff60401b19168555604051600181527fc7f505b2f371ae2175ee4913f4499e1f2633a7b5936321eed1cdaeb6115181d29060200160405180910390a15b50505050505050565b5f5f80516020613d4d8339815191526112485f80516020613d8d8339815191525490565b83106112705760405163295f44f760e21b81525f60048201526024810184905260440161092c565b806002018381548110611285576112856139a2565b905f5260205f200154915050919050565b61129e6122a0565b60055460405163a9059cbb60e01b81526001600160a01b038381166004830152602482018590529091169063a9059cbb906044016020604051808303815f875af11580156112ee573d5f803e3d5ffd5b505050506040513d601f19601f820116820180604052508101906113129190613aec565b6107e95760405162461bcd60e51b81526020600482015260146024820152731554d115081d1c985b9cd9995c8819985a5b195960621b604482015260640161092c565b5f61072382612223565b60606114396004805480602002602001604051908101604052809291908181526020015f905b8282101561142d578382905f5260205f200180546113a2906138c1565b80601f01602080910402602001604051908101604052809291908181526020018280546113ce906138c1565b80156114195780601f106113f057610100808354040283529160200191611419565b820191905f5260205f20905b8154815290600101906020018083116113fc57829003601f168201915b505050505081526020019060010190611385565b50505050858585610c0c565b949350505050565b6114496122a0565b600283604051611459919061393d565b90815260405190819003602001902054156114b65760405162461bcd60e51b815260206004820152601960248201527f4974656d207479706520616c726561647920646566696e656400000000000000604482015260640161092c565b600480546001810182555f919091527f8a35acfbc15ff81a39ae7d344fd709f28e8600b4aa8c65c6b64bfe7fe36bd19b016114f184826139fb565b506040518060a001604052808381526020015f81526020015f8152602001828152602001600285604051611525919061393d565b9081526020016040518091039020600401805480602002602001604051908101604052809291908181526020015f905b828210156115fd578382905f5260205f20018054611572906138c1565b80601f016020809104026020016040519081016040528092919081815260200182805461159e906138c1565b80156115e95780601f106115c0576101008083540402835291602001916115e9565b820191905f5260205f20905b8154815290600101906020018083116115cc57829003601f168201915b505050505081526020019060010190611555565b50505050815250600284604051611614919061393d565b90815260200160405180910390205f820151815f0155602082015181600101556040820151816002015560608201518160030155608082015181600401908051906020019061166492919061307b565b505050505050565b5f5f80516020613d6d8339815191526001600160a01b0383166116a4576040516322718ad960e21b81525f600482015260240161092c565b6001600160a01b039092165f908152600390920160205250604090205490565b6116cc6122a0565b6116d55f612332565b565b81516020818401810180516003825292820191850191909120919052805482908110611701575f80fd5b905f5260205f20015f91509150505481565b61171b6122a0565b8060085f82825461172c919061398f565b909155505050565b60605f6117408361166c565b9050805f0361176257604080515f80825260208201909252905b509392505050565b5f816001600160401b0381111561177b5761177b6132cc565b6040519080825280602002602001820160405280156117a4578160200160208202803683370190505b5090505f5b8281101561175a576117bb8582610995565b8282815181106117cd576117cd6139a2565b6020908102919091010152806117e281613ab6565b9150506117a9565b50919050565b336117fa82611355565b6001600160a01b03161461185a5760405162461bcd60e51b815260206004820152602160248201527f596f75206d757374206f776e2074686520746f6b656e20746f206d656c7420696044820152601d60fa1b606482015260840161092c565b5f81815260016020526040808220905160029161187691613b07565b90815260405190819003602001902060038101549091505f61189782610a06565b90506118a2846123a2565b6001836002015f8282546118b6919061398f565b909155506118c59050826120a0565b60065460405163a9059cbb60e01b8152336004820152602481018390526001600160a01b039091169063a9059cbb906044016020604051808303815f875af1158015611913573d5f803e3d5ffd5b505050506040513d601f19601f820116820180604052508101906119379190613aec565b6119835760405162461bcd60e51b815260206004820152601760248201527f4661696c656420746f207472616e736665722058415554000000000000000000604482015260640161092c565b6001600260015f8781526020019081526020015f206040516119a59190613b07565b90815260200160405180910390206002015f8282546119c4919061398f565b909155505050505050565b7f80bb2b638cc20bc4d0a60d66940f3ab4a00c1d7b313497ca82fb0b4ab007930180546060915f80516020613d6d83398151915291610748906138c1565b60016020525f908152604090208054611086906138c1565b6107e93383836123da565b611a386122a0565b600980546001600160a01b0319166001600160a01b0392909216919091179055565b611a65848484610907565b61098f84848484612489565b611a796122a0565b600680546001600160a01b0319166001600160a01b0392909216919091179055565b6060610723826125af565b5f600282604051611ab7919061393d565b908152604051908190036020018120600954637269310760e11b83523360048401529092505f916001600160a01b039091169063e4d2620e906024015f604051808303815f875af1158015611b0e573d5f803e3d5ffd5b505050506040513d5f823e601f3d908101601f19168201604052611b359190810190613bbb565b90508060400151611b885760405162461bcd60e51b815260206004820181905260248201527f557365722074696572206e6f7420617574686f72697a656420746f206d696e74604482015260640161092c565b8154600183015410611bec5760405162461bcd60e51b815260206004820152602760248201527f537570706c79206c696d6974207265616368656420666f722074686973206974604482015266656d207479706560c81b606482015260840161092c565b6001820154600483015411611c4d5760405162461bcd60e51b815260206004820152602160248201527f4e6f7420656e6f756768206d6574616461746120555249732070726f766964656044820152601960fa1b606482015260840161092c565b5f611c5b83600301546108eb565b90505f61271083610120015183611c729190613907565b611c7c919061391e565b6005546040516323b872dd60e01b8152336004820152306024820152604481018390529192506001600160a01b0316906323b872dd906064016020604051808303815f875af1158015611cd1573d5f803e3d5ffd5b505050506040513d601f19601f82011682018060405250810190611cf59190613aec565b611d4b5760405162461bcd60e51b815260206004820152602160248201527f55534454206d696e74696e672066656573207472616e73666572206661696c656044820152601960fa1b606482015260840161092c565b6005546040516323b872dd60e01b8152336004820152306024820152604481018490526001600160a01b03909116906323b872dd906064016020604051808303815f875af1158015611d9f573d5f803e3d5ffd5b505050506040513d601f19601f82011682018060405250810190611dc39190613aec565b611e0f5760405162461bcd60e51b815260206004820152601b60248201527f5553445420616d6f756e74207472616e73666572206661696c65640000000000604482015260640161092c565b611e1c8460030154611713565b5f805490505f85600401866001015481548110611e3b57611e3b6139a2565b905f5260205f20018054611e4e906138c1565b80601f0160208091040260200160405190810160405280929190818152602001828054611e7a906138c1565b8015611ec55780601f10611e9c57610100808354040283529160200191611ec5565b820191905f5260205f20905b815481529060010190602001808311611ea857829003601f168201915b505050505090506001866001015f828254611ee0919061398f565b9250508190555060015f80828254611ef8919061398f565b90915550505f828152600160205260409020611f1488826139fb565b50600387604051611f25919061393d565b9081526040516020918190038201902080546001810182555f91825291902001829055611f5288836126de565b611f5c82826126f7565b5050505050505050565b611f6e6122a0565b600282604051611f7e919061393d565b908152604051908190036020019020545f03611fac5760405162461bcd60e51b815260040161092c90613958565b80600283604051611fbd919061393d565b908152604051908190036020019020600301555050565b611fdc6122a0565b600755565b611fe96122a0565b60065460405163a9059cbb60e01b81526001600160a01b038381166004830152602482018590529091169063a9059cbb906044016020604051808303815f875af1158015612039573d5f803e3d5ffd5b505050506040513d601f19601f8201168201806040525081019061205d9190613aec565b6107e95760405162461bcd60e51b815260206004820152601460248201527316105555081d1c985b9cd9995c8819985a5b195960621b604482015260640161092c565b6120a86122a0565b6008548111156120fa5760405162461bcd60e51b815260206004820152601860248201527f496e73756666696369656e7420676f6c64207765696768740000000000000000604482015260640161092c565b8060085f82825461172c9190613ace565b6001600160a01b039182165f9081527f80bb2b638cc20bc4d0a60d66940f3ab4a00c1d7b313497ca82fb0b4ab00793056020908152604080832093909416825291909152205460ff1690565b61215f6122a0565b6001600160a01b03811661218857604051631e4fbdf760e01b81525f600482015260240161092c565b61219181612332565b50565b61219c6122a0565b6002826040516121ac919061393d565b908152604051908190036020019020545f036121da5760405162461bcd60e51b815260040161092c90613958565b806002836040516121eb919061393d565b908152604051908190036020019020555050565b5f6001600160e01b03198216632483248360e11b1480610723575061072382612769565b5f8061222e8361278d565b90506001600160a01b03811661072357604051637e27328960e01b81526004810184905260240161092c565b5f9081527f80bb2b638cc20bc4d0a60d66940f3ab4a00c1d7b313497ca82fb0b4ab007930460205260409020546001600160a01b031690565b610c0783838360016127c6565b336122d27f9016d09d72d40fdae2fd8ceac6b6234c7706214fd39c1cd1e609a0528c199300546001600160a01b031690565b6001600160a01b0316146116d55760405163118cdaa760e01b815233600482015260240161092c565b5f6114398484846128d9565b61230f6129cf565b6107e98282612a18565b6116d56129cf565b6123296129cf565b61219181612a48565b7f9016d09d72d40fdae2fd8ceac6b6234c7706214fd39c1cd1e609a0528c19930080546001600160a01b031981166001600160a01b03848116918217845560405192169182907f8be0079c531659141344cd1fd0a4f28419497f9722a3daafe3b4186f6b6457e0905f90a3505050565b5f6123ae5f835f6122fb565b90506001600160a01b0381166107e957604051637e27328960e01b81526004810183905260240161092c565b5f80516020613d6d8339815191526001600160a01b03831661241a57604051630b61174360e31b81526001600160a01b038416600482015260240161092c565b6001600160a01b038481165f818152600584016020908152604080832094881680845294825291829020805460ff191687151590811790915591519182527f17307eab39ab6107e8899845ad3d59bd9653f200f220920489ca2b5937696c31910160405180910390a350505050565b6001600160a01b0383163b1561098f57604051630a85bd0160e11b81526001600160a01b0384169063150b7a02906124cb903390889087908790600401613cb3565b6020604051808303815f875af1925050508015612505575060408051601f3d908101601f1916820190925261250291810190613cef565b60015b61256c573d808015612532576040519150601f19603f3d011682016040523d82523d5f602084013e612537565b606091505b5080515f0361256457604051633250574960e11b81526001600160a01b038516600482015260240161092c565b805181602001fd5b6001600160e01b03198116630a85bd0160e11b146125a857604051633250574960e11b81526001600160a01b038516600482015260240161092c565b5050505050565b60607f0542a41881ee128a365a727b282c86fa859579490b9bb45aab8503648c8e79006125db83612223565b505f83815260208290526040812080546125f4906138c1565b80601f0160208091040260200160405190810160405280929190818152602001828054612620906138c1565b801561266b5780601f106126425761010080835404028352916020019161266b565b820191905f5260205f20905b81548152906001019060200180831161264e57829003601f168201915b505050505090505f61268760408051602081019091525f815290565b905080515f0361269957509392505050565b8151156126cc5780826040516020016126b3929190613d0a565b6040516020818303038152906040529350505050919050565b6126d585612a50565b95945050505050565b6107e9828260405180602001604052805f815250612ac1565b5f8281527f0542a41881ee128a365a727b282c86fa859579490b9bb45aab8503648c8e79006020819052604090912061273083826139fb565b506040518381527ff8e1a15aba9398e019f0b49df1a4fde98ee17ae345cb5f6b5e2c27f5033e8ce79060200160405180910390a1505050565b5f6001600160e01b0319821663780e9d6360e01b1480610723575061072382612ad7565b5f9081527f80bb2b638cc20bc4d0a60d66940f3ab4a00c1d7b313497ca82fb0b4ab007930260205260409020546001600160a01b031690565b5f80516020613d6d83398151915281806127e857506001600160a01b03831615155b156128a9575f6127f785612223565b90506001600160a01b038416158015906128235750836001600160a01b0316816001600160a01b031614155b80156128365750612834818561210b565b155b1561285f5760405163a9fbf51f60e01b81526001600160a01b038516600482015260240161092c565b82156128a75784866001600160a01b0316826001600160a01b03167f8c5be1e5ebec7d5bd14f71427d1e84f3dd0314c0f7b2291e5b200ac8c7c3b92560405160405180910390a45b505b5f93845260040160205250506040902080546001600160a01b0319166001600160a01b0392909216919091179055565b5f806128e6858585612b26565b90506001600160a01b03811661296d57612968845f80516020613d8d83398151915280545f8381527f645e039705490088daad89bae25049a34f4a9072d398537b1ab2425f24cbed0360205260408120829055600182018355919091527fa42f15e5d656f8155fd7419d740a6073999f19cd6e061449ce4a257150545bf20155565b612990565b846001600160a01b0316816001600160a01b031614612990576129908185612c28565b6001600160a01b0385166129ac576129a784612cc7565b611439565b846001600160a01b0316816001600160a01b031614611439576114398585612d94565b7ff0c57e16840df040f15088dc2f81fe391c3923bec73e23a9662efc9c229c6a0054600160401b900460ff166116d557604051631afcd79f60e31b815260040160405180910390fd5b612a206129cf565b5f80516020613d6d83398151915280612a3984826139fb565b506001810161098f83826139fb565b61215f6129cf565b6060612a5b82612223565b505f612a7160408051602081019091525f815290565b90505f815111612a8f5760405180602001604052805f815250612aba565b80612a9984612dec565b604051602001612aaa929190613d0a565b6040516020818303038152906040525b9392505050565b612acb8383612e7b565b610c075f848484612489565b5f6001600160e01b031982166380ac58cd60e01b1480612b0757506001600160e01b03198216635b5e139f60e01b145b8061072357506301ffc9a760e01b6001600160e01b0319831614610723565b5f5f80516020613d6d83398151915281612b3f8561278d565b90506001600160a01b03841615612b5b57612b5b818587612edc565b6001600160a01b03811615612b9757612b765f865f806127c6565b6001600160a01b0381165f908152600383016020526040902080545f190190555b6001600160a01b03861615612bc7576001600160a01b0386165f9081526003830160205260409020805460010190555b5f85815260028301602052604080822080546001600160a01b0319166001600160a01b038a811691821790925591518893918516917fddf252ad1be2c89b69c2b068fc378daa952ba7f163c4a11628f55a4df523b3ef91a495945050505050565b5f80516020613d4d8339815191525f612c408461166c565b5f848152600184016020526040902054909150808214612c93576001600160a01b0385165f9081526020848152604080832085845282528083205484845281842081905583526001860190915290208190555b505f92835260018201602090815260408085208590556001600160a01b039095168452918252838320908352905290812055565b5f80516020613d8d833981519152545f80516020613d4d833981519152905f90612cf390600190613ace565b5f848152600384016020526040812054600285018054939450909284908110612d1e57612d1e6139a2565b905f5260205f200154905080846002018381548110612d3f57612d3f6139a2565b5f91825260208083209091019290925582815260038601909152604080822084905586825281205560028401805480612d7a57612d7a613d38565b600190038181905f5260205f20015f905590555050505050565b5f80516020613d4d8339815191525f6001612dae8561166c565b612db89190613ace565b6001600160a01b039094165f9081526020838152604080832087845282528083208690559482526001909301909252502055565b60605f612df883612f40565b60010190505f816001600160401b03811115612e1657612e166132cc565b6040519080825280601f01601f191660200182016040528015612e40576020820181803683370190505b5090508181016020015b5f19016f181899199a1a9b1b9c1cb0b131b232b360811b600a86061a8153600a8504945084612e4a57509392505050565b6001600160a01b038216612ea457604051633250574960e11b81525f600482015260240161092c565b5f612eb083835f6122fb565b90506001600160a01b03811615610c07576040516339e3563760e11b81525f600482015260240161092c565b612ee7838383613017565b610c07576001600160a01b038316612f1557604051637e27328960e01b81526004810182905260240161092c565b60405163177e802f60e01b81526001600160a01b03831660048201526024810182905260440161092c565b5f8072184f03e93ff9f4daa797ed6e38ed64bf6a1f0160401b8310612f7e5772184f03e93ff9f4daa797ed6e38ed64bf6a1f0160401b830492506040015b6d04ee2d6d415b85acef81000000008310612faa576d04ee2d6d415b85acef8100000000830492506020015b662386f26fc100008310612fc857662386f26fc10000830492506010015b6305f5e1008310612fe0576305f5e100830492506008015b6127108310612ff457612710830492506004015b60648310613006576064830492506002015b600a83106107235760010192915050565b5f6001600160a01b038316158015906114395750826001600160a01b0316846001600160a01b031614806130505750613050848461210b565b806114395750826001600160a01b03166130698361225a565b6001600160a01b031614949350505050565b828054828255905f5260205f209081019282156130bf579160200282015b828111156130bf57825182906130af90826139fb565b5091602001919060010190613099565b506130cb9291506130cf565b5090565b808211156130cb575f6130e282826130eb565b506001016130cf565b5080546130f7906138c1565b5f825580601f10613106575050565b601f0160209004905f5260205f209081019061219191905b808211156130cb575f815560010161311e565b6001600160e01b031981168114612191575f80fd5b5f60208284031215613156575f80fd5b8135612aba81613131565b5f5b8381101561317b578181015183820152602001613163565b50505f910152565b5f815180845261319a816020860160208601613161565b601f01601f19169290920160200192915050565b602081525f612aba6020830184613183565b5f602082840312156131d0575f80fd5b5035919050565b80356001600160a01b03811681146131ed575f80fd5b919050565b5f8060408385031215613203575f80fd5b61320c836131d7565b946020939093013593505050565b5f602080830181845280855180835260408601915060408160051b87010192508387015f5b8281101561326d57603f1988860301845261325b858351613183565b9450928501929085019060010161323f565b5092979650505050505050565b5f6020828403121561328a575f80fd5b612aba826131d7565b5f805f606084860312156132a5575f80fd5b6132ae846131d7565b92506132bc602085016131d7565b9150604084013590509250925092565b634e487b7160e01b5f52604160045260245ffd5b60405161018081016001600160401b0381118282101715613303576133036132cc565b60405290565b604051601f8201601f191681016001600160401b0381118282101715613331576133316132cc565b604052919050565b5f6001600160401b03821115613351576133516132cc565b50601f01601f191660200190565b5f61337161336c84613339565b613309565b9050828152838383011115613384575f80fd5b828260208301375f602084830101529392505050565b5f82601f8301126133a9575f80fd5b612aba8383356020850161335f565b5f82601f8301126133c7575f80fd5b813560206001600160401b03808311156133e3576133e36132cc565b8260051b6133f2838201613309565b938452858101830193838101908886111561340b575f80fd5b84880192505b8583101561344657823584811115613428575f8081fd5b6134368a87838c010161339a565b8352509184019190840190613411565b98975050505050505050565b5f805f60608486031215613464575f80fd5b83356001600160401b038082111561347a575f80fd5b6134868783880161339a565b9450602086013591508082111561349b575f80fd5b506134a8868287016133b8565b925050604084013590509250925092565b8015158114612191575f80fd5b5f805f80608085870312156134d9575f80fd5b84356001600160401b038111156134ee575f80fd5b6134fa878288016133b8565b945050602085013561350b816134b9565b93969395505050506040820135916060013590565b602080825282518282018190525f919060409081850190600581811b8701840188860187805b858110156135e5578a8403603f19018752825180518552898101518a86015288810151898601526060808201519086015260809081015160a091860182905280519186018290528a019060c08087019180891b880190910190855b818110156135cf5760bf198984030184526135bd838651613183565b948e0194938e019392506001016135a1565b5050988b01989550505091880191600101613546565b50919a9950505050505050505050565b5f8060408385031215613606575f80fd5b82356001600160401b038082111561361c575f80fd5b6136288683870161339a565b9350602085013591508082111561363d575f80fd5b5061364a8582860161339a565b9150509250929050565b5f8060408385031215613665575f80fd5b82359150613675602084016131d7565b90509250929050565b5f805f60608486031215613690575f80fd5b833561369b816134b9565b95602085013595506040909401359392505050565b5f805f606084860312156136c2575f80fd5b83356001600160401b038111156136d7575f80fd5b6136e38682870161339a565b9660208601359650604090950135949350505050565b5f806040838503121561370a575f80fd5b82356001600160401b0381111561371f575f80fd5b61372b8582860161339a565b95602094909401359450505050565b602080825282518282018190525f9190848201906040850190845b8181101561377157835183529284019291840191600101613755565b50909695505050505050565b5f6020828403121561378d575f80fd5b81356001600160401b038111156137a2575f80fd5b6114398482850161339a565b5f80604083850312156137bf575f80fd5b6137c8836131d7565b915060208301356137d8816134b9565b809150509250929050565b5f805f80608085870312156137f6575f80fd5b6137ff856131d7565b935061380d602086016131d7565b92506040850135915060608501356001600160401b0381111561382e575f80fd5b8501601f8101871361383e575f80fd5b61384d8782356020840161335f565b91505092959194509250565b5f806040838503121561386a575f80fd5b613873836131d7565b915060208301356001600160401b0381111561388d575f80fd5b61364a8582860161339a565b5f80604083850312156138aa575f80fd5b6138b3836131d7565b9150613675602084016131d7565b600181811c908216806138d557607f821691505b6020821081036117ea57634e487b7160e01b5f52602260045260245ffd5b634e487b7160e01b5f52601160045260245ffd5b8082028115828204841417610723576107236138f3565b5f8261393857634e487b7160e01b5f52601260045260245ffd5b500490565b5f825161394e818460208701613161565b9190910192915050565b60208082526017908201527f4974656d5479706520646f6573206e6f74206578697374000000000000000000604082015260600190565b80820180821115610723576107236138f3565b634e487b7160e01b5f52603260045260245ffd5b601f821115610c07575f81815260208120601f850160051c810160208610156139dc5750805b601f850160051c820191505b81811015611664578281556001016139e8565b81516001600160401b03811115613a1457613a146132cc565b613a2881613a2284546138c1565b846139b6565b602080601f831160018114613a5b575f8415613a445750858301515b5f19600386901b1c1916600185901b178555611664565b5f85815260208120601f198616915b82811015613a8957888601518255948401946001909101908401613a6a565b5085821015613aa657878501515f19600388901b60f8161c191681555b5050505050600190811b01905550565b5f60018201613ac757613ac76138f3565b5060010190565b81810381811115610723576107236138f3565b80516131ed816134b9565b5f60208284031215613afc575f80fd5b8151612aba816134b9565b5f808354613b14816138c1565b60018281168015613b2c5760018114613b4157613b6d565b60ff1984168752821515830287019450613b6d565b875f526020805f205f5b85811015613b645781548a820152908401908201613b4b565b50505082870194505b50929695505050505050565b5f82601f830112613b88575f80fd5b8151613b9661336c82613339565b818152846020838601011115613baa575f80fd5b611439826020830160208701613161565b5f60208284031215613bcb575f80fd5b81516001600160401b0380821115613be1575f80fd5b908301906101808286031215613bf5575f80fd5b613bfd6132e0565b825182811115613c0b575f80fd5b613c1787828601613b79565b82525060208301516020820152613c3060408401613ae1565b6040820152613c4160608401613ae1565b6060820152613c5260808401613ae1565b6080820152613c6360a08401613ae1565b60a082015260c0838101519082015260e080840151908201526101008084015190820152610120808401519082015261014080840151908201526101609283015192810192909252509392505050565b6001600160a01b03858116825284166020820152604081018390526080606082018190525f90613ce590830184613183565b9695505050505050565b5f60208284031215613cff575f80fd5b8151612aba81613131565b5f8351613d1b818460208801613161565b835190830190613d2f818360208801613161565b01949350505050565b634e487b7160e01b5f52603160045260245ffdfe645e039705490088daad89bae25049a34f4a9072d398537b1ab2425f24cbed0080bb2b638cc20bc4d0a60d66940f3ab4a00c1d7b313497ca82fb0b4ab0079300645e039705490088daad89bae25049a34f4a9072d398537b1ab2425f24cbed02a26469706673582212209b8b85ee8fce29222bd00c8c55d49ba3111cc15ead3a2e3696803bb23190a1e964736f6c63430008140033",
  "immutableReferences": {},
  "source": "// SPDX-License-Identifier: MIT\npragma solidity ^0.8.20;\n\nimport \"@openzeppelin/contracts-upgradeable/token/ERC721/extensions/ERC721EnumerableUpgradeable.sol\";\nimport \"@openzeppelin/contracts-upgradeable/proxy/utils/Initializable.sol\";\nimport \"@openzeppelin/contracts-upgradeable/access/OwnableUpgradeable.sol\";\nimport \"@openzeppelin/contracts-upgradeable/token/ERC721/extensions/ERC721URIStorageUpgradeable.sol\";\nimport \"@openzeppelin/contracts-upgradeable/token/ERC721/ERC721Upgradeable.sol\";\nimport \"@openzeppelin/contracts/token/ERC20/IERC20.sol\";\n\ninterface CERTIX_TOKEN {\n    struct Tier {\n        string name;\n        uint256 minCertixBalance;\n        bool canMint;\n        bool canMelt;\n        bool canMerge;\n        bool hasAuctionAccess;\n        uint256 magicItemLootingChance;\n        uint256 maxWeightForMergeInMilligrams;\n        uint256 transactionBurnFee;\n        uint256 mintingFeePercentage;\n        uint256 meltingFeePercentage;\n        uint256 auctionFeePercentage;\n    }\n    function getUserTier(address _wallet) external returns (Tier memory);\n}\n\n\n\n// Declaring the contract which is initializable for upgradeability, and inheriting ERC721 functionality, ownership, and URI storage.\ncontract CertixNFT is Initializable, ERC721Upgradeable, ERC721EnumerableUpgradeable, ERC721URIStorageUpgradeable, OwnableUpgradeable {\n\n    // Structure to hold item type information, including its supply limit, current supply, and weight in gold.\n    struct ItemType {\n        uint256 supplyLimit;\n        uint256 currentSupply;\n        uint256 burnCount;\n        uint256 goldWeightInMilligrams; // Using milligrams for precision\n        string[] metadataUris;\n    }\n\n    // A counter to keep track of token IDs.\n    uint256 public tokenIdCounter;\n    // Mapping from token ID to its item type.\n    mapping(uint256 => string) public tokenIdToItemType;\n    // Mapping from item type name to its details.\n    mapping(string => ItemType) public itemTypes;\n    //Mapping of token ids by item type name\n    mapping(string => uint256[]) public tokensByType;\n    string[] public itemTypesList;\n    address public usdtAddress;\n    address public xautAddress;\n    uint256 public usdtPerGramGold;\n    // Total weight in milligrams of Certix gold items\n    uint256 public totalGoldWeightInMilligrams;\n    address public certixToken;\n\n    // Contract initialization function, replacing the constructor for upgradeable contracts.\n    function initialize(string memory _name, string memory _symbol) public initializer {\n        __ERC721_init(_name, _symbol);\n        __ERC721URIStorage_init();\n        __Ownable_init(msg.sender);\n    }\n\n    // Function to mint new tokens, ensuring the supply limit for the item type has not been reached.\n    function mint(address _to, string memory _itemType) public {\n        ItemType storage item = itemTypes[_itemType];//Get the item\n        CERTIX_TOKEN.Tier memory tier = CERTIX_TOKEN(certixToken).getUserTier(msg.sender);\n\n        //Check if user's tier canMint\n        require(tier.canMint, \"User tier not authorized to mint\");\n\n        //Check supply limit\n        require(item.currentSupply < item.supplyLimit, \"Supply limit reached for this item type\");\n        //Check if an uri exists\n        require(item.metadataUris.length > item.currentSupply, \"Not enough metadata URIs provided\");\n\n        // Calculate the required USDT amount based on gold weight in milligrams\n        // Assuming usdtPerGramGold is per gram, convert milligrams to grams for calculation\n        uint256 requiredUsdtAmount = getUSDTAmountForGoldWeight(item.goldWeightInMilligrams);\n\n        //Fees FROM Tier contract to cold wallet\n        uint256 mintingFees = (requiredUsdtAmount * tier.mintingFeePercentage) / 10000;\n        require(IERC20(usdtAddress).transferFrom(msg.sender, address(this), mintingFees), \"USDT minting fees transfer failed\");\n\n        // Transfer USDT from the user to the contract\n        require(IERC20(usdtAddress).transferFrom(msg.sender, address(this), requiredUsdtAmount), \"USDT amount transfer failed\");\n\n        //Add item's weight\n        addGoldWeight(item.goldWeightInMilligrams);\n\n        //Get token id\n        uint256 tokenId = tokenIdCounter;\n        //Get token uri\n        string memory tokenUri = item.metadataUris[item.currentSupply];\n\n        item.currentSupply += 1;\n        tokenIdCounter += 1;\n        tokenIdToItemType[tokenId] = _itemType;\n        tokensByType[_itemType].push(tokenId);\n\n        _safeMint(_to, tokenId);\n        _setTokenURI(tokenId, tokenUri);\n    }\n\n    // Overrides required by Solidity for the ERC721 and URI storage functionalities.\n    function melt(uint256 _tokenId) public {\n        require(ownerOf(_tokenId) == msg.sender, \"You must own the token to melt it\");\n\n        ItemType storage itemType = itemTypes[tokenIdToItemType[_tokenId]];\n        uint256 goldWeightInMilligrams = itemType.goldWeightInMilligrams;\n        \n        // Convert item weight from milligrams to troy ounces for XAU\n        // 1 troy ounce = 31.1035 grams = 31,103.5 milligrams\n        // Using Solidity to avoid floating-point precision issues\n        uint256 xautAmount = getXAUTAmountForGoldWeight(goldWeightInMilligrams); \n\n        _burn(_tokenId);\n        itemType.burnCount += 1;\n\n        //Remove item's weight\n        removeGoldWeight(goldWeightInMilligrams);\n\n        // Ensure your contract has enough XAU to perform the transfer\n        //TODO from vault\n        require(IERC20(xautAddress).transfer(msg.sender, xautAmount), \"Failed to transfer XAUT\");\n\n        // Adjust the burn count\n        itemTypes[tokenIdToItemType[_tokenId]].burnCount += 1;\n    }\n\n    function getUSDTAmountForGoldWeight(uint256 _goldWeightInMilligrams) public view returns(uint256){\n        return (_goldWeightInMilligrams * usdtPerGramGold) / 1000;\n    }\n\n    function getXAUTAmountForGoldWeight(uint256 _goldWeightInMilligrams) public pure returns(uint256){\n        return (_goldWeightInMilligrams * 10**18) / 31103500;// Adding 10**18 for precision\n    }\n\n    // Function to add gold weight when a new Certix NFT is minted\n    function addGoldWeight(uint256 weightInMilligrams) public onlyOwner {\n        totalGoldWeightInMilligrams += weightInMilligrams;\n    }\n\n    // Function to remove gold weight when an Certix NFT is burned\n    function removeGoldWeight(uint256 weightInMilligrams) public onlyOwner {\n        require(weightInMilligrams <= totalGoldWeightInMilligrams, \"Insufficient gold weight\");\n        totalGoldWeightInMilligrams -= weightInMilligrams;\n    }\n\n    // Functions to define or update item types and their properties. These functions are protected by the `onlyOwner` modifier.\n    function defineItemType(string memory _itemType, uint256 _supplyLimit, uint256 _goldWeightInMilligrams) public onlyOwner {\n        // Check if item type doesn't exist\n        require(itemTypes[_itemType].supplyLimit == 0, \"Item type already defined\");\n\n        itemTypesList.push(_itemType);\n\n        itemTypes[_itemType] = ItemType(_supplyLimit, 0, 0, _goldWeightInMilligrams, itemTypes[_itemType].metadataUris);\n    }\n\n    function addMultipleMetadataUrisStartingAtIndex(string memory _itemType, string[] memory _uris, uint256 _startIndex) public onlyOwner {\n        require(itemTypes[_itemType].supplyLimit != 0, \"ItemType does not exist\");\n        \n        // Ensure the start index is within the current bounds of the array\n        require(_startIndex <= itemTypes[_itemType].metadataUris.length, \"Start index out of bounds\");\n\n        for (uint256 i = 0; i < _uris.length; i++) {\n            uint256 currentIndex = _startIndex + i;\n\n            // Check if we need to append or replace within the array\n            if (currentIndex >= itemTypes[_itemType].metadataUris.length) {\n                // Append the new URI to the array\n                itemTypes[_itemType].metadataUris.push(_uris[i]);\n            } else {\n                // Replace the URI at the specified index\n                itemTypes[_itemType].metadataUris[currentIndex] = _uris[i];\n            }\n        }\n    }\n\n    // Function to set the supply limit for a specific item type. \n    function setItemSupplyLimit(string memory _itemType, uint256 _supplyLimit) public onlyOwner {\n        require(itemTypes[_itemType].supplyLimit != 0, \"ItemType does not exist\");\n        itemTypes[_itemType].supplyLimit = _supplyLimit;\n    }\n\n    // Function to set the gold weight in grams for a specific item type. \n    function setItemGoldWeight(string memory _itemType, uint256 _goldWeightInMilligrams) public onlyOwner {\n        require(itemTypes[_itemType].supplyLimit != 0, \"ItemType does not exist\");\n        itemTypes[_itemType].goldWeightInMilligrams = _goldWeightInMilligrams;\n    }\n\n    // Function to get an array of token IDs owned by a specific address. Potentially gas-intensive for large datasets.\n    function tokensOfOwner(address _owner) public view returns (uint256[] memory) {\n        uint256 ownerTokenCount = balanceOf(_owner);\n        if (ownerTokenCount == 0) {\n            return new uint256[](0) ; // Return an empty array if the owner has no tokens\n        } else {\n            uint256[] memory ownedTokenIds = new uint256[](ownerTokenCount);\n            for (uint256 index = 0; index < ownerTokenCount; index++) {\n                ownedTokenIds[index] = tokenOfOwnerByIndex(_owner, index);\n            }\n\n            return ownedTokenIds;\n        }\n    }\n\n    // Function to retrieve details for a range of item types with optional metadata retrieval.\n    function getItemsDetails(string[] memory _itemTypes, bool only1Metadata, uint256 start, uint256 end) public view returns (ItemType[] memory) {\n        require(start < end, \"Invalid range\");\n\n        // Correction de la condition\n        if (end > _itemTypes.length) {\n            end = _itemTypes.length;\n        }\n\n        // Calculating the number of items to include in the response\n        uint256 rangeSize = end - start;\n        ItemType[] memory itemsDetails = new ItemType[](rangeSize);\n        uint256 count = 0;\n        \n\n        for (uint256 i = start; i < end; i++) {\n            if (itemTypes[_itemTypes[i]].supplyLimit != 0) { // Ensure the item type exists\n                itemsDetails[count] = itemTypes[_itemTypes[i]];\n                if (only1Metadata && itemTypes[_itemTypes[i]].metadataUris.length > 0) {\n                    itemsDetails[count].metadataUris = new string[](1);\n                    itemsDetails[count].metadataUris[0] = itemTypes[_itemTypes[i]].metadataUris[0];\n                }\n                count++;\n            }\n        }\n        return itemsDetails;\n    }\n\n    // Function to retrieve details for all item types with pagination.\n    function getAllItemsDetails(bool only1Metadata, uint256 start, uint256 end) public view returns (ItemType[] memory) {\n        return getItemsDetails(itemTypesList, only1Metadata, start, end);\n    }\n\n    // Function to retrieve details for all item types.\n    function getAllTypes() public view returns (string[] memory) {\n        return itemTypesList;\n    }\n\n    // Override of the tokenURI function from the ERC721URIStorage extension.\n    function tokenURI(uint256 _tokenId) public view override(ERC721Upgradeable, ERC721URIStorageUpgradeable) returns (string memory) {\n        return super.tokenURI(_tokenId);\n    }\n\n    // Override of the supportsInterface function from the ERC721URIStorage extension.\n    function supportsInterface(bytes4 interfaceId) public view override(ERC721Upgradeable, ERC721EnumerableUpgradeable, ERC721URIStorageUpgradeable) returns (bool) {\n        return super.supportsInterface(interfaceId);\n    }\n\n    // Override the conflicting functions\n    function _increaseBalance(address account, uint128 value) internal override(ERC721Upgradeable, ERC721EnumerableUpgradeable) {\n        super._increaseBalance(account, value);\n    }\n\n    function _update(address to, uint256 tokenId, address auth) internal override(ERC721Upgradeable, ERC721EnumerableUpgradeable) returns (address) {\n        return super._update(to, tokenId, auth);\n    }\n\n    function setUsdtPerGramGold(uint256 _usdtPerGramGold) public onlyOwner {\n        usdtPerGramGold = _usdtPerGramGold;\n    }\n\n    function setUsdtAddress(address _usdtAddress) public onlyOwner {\n        usdtAddress = _usdtAddress;\n    }\n\n    function withdrawUsdt(uint256 _amount, address _to) public onlyOwner {\n        require(IERC20(usdtAddress).transfer(_to, _amount), \"USDT transfer failed\");\n    }\n\n    function setXAUTAddress(address _xautAddress) public onlyOwner {\n        xautAddress = _xautAddress;\n    }\n\n    function withdrawXAUT(uint256 _amount, address _to) public onlyOwner {\n        require(IERC20(xautAddress).transfer(_to, _amount), \"XAUT transfer failed\");\n    }\n\n    function setCertixTokenAddress(address _certixToken) public onlyOwner {\n        certixToken = _certixToken;\n    }\n}",
  "sourcePath": "/Users/maximereynders/Documents/CertixGold/certix-contracts/contracts/CertixNFT.sol",
  "compiler": {
    "name": "solc",
    "version": "0.8.20+commit.a1b79de6.Emscripten.clang"
  },
  "schemaVersion": "3.4.16",
  "updatedAt": "2024-04-21T11:45:30.053Z",
  "networkType": "ethereum",
  "devdoc": {
    "errors": {
      "ERC721EnumerableForbiddenBatchMint()": [
        {
          "details": "Batch mint is not allowed."
        }
      ],
      "ERC721IncorrectOwner(address,uint256,address)": [
        {
          "details": "Indicates an error related to the ownership over a particular token. Used in transfers.",
          "params": {
            "owner": "Address of the current owner of a token.",
            "sender": "Address whose tokens are being transferred.",
            "tokenId": "Identifier number of a token."
          }
        }
      ],
      "ERC721InsufficientApproval(address,uint256)": [
        {
          "details": "Indicates a failure with the `operator`s approval. Used in transfers.",
          "params": {
            "operator": "Address that may be allowed to operate on tokens without being their owner.",
            "tokenId": "Identifier number of a token."
          }
        }
      ],
      "ERC721InvalidApprover(address)": [
        {
          "details": "Indicates a failure with the `approver` of a token to be approved. Used in approvals.",
          "params": {
            "approver": "Address initiating an approval operation."
          }
        }
      ],
      "ERC721InvalidOperator(address)": [
        {
          "details": "Indicates a failure with the `operator` to be approved. Used in approvals.",
          "params": {
            "operator": "Address that may be allowed to operate on tokens without being their owner."
          }
        }
      ],
      "ERC721InvalidOwner(address)": [
        {
          "details": "Indicates that an address can't be an owner. For example, `address(0)` is a forbidden owner in EIP-20. Used in balance queries.",
          "params": {
            "owner": "Address of the current owner of a token."
          }
        }
      ],
      "ERC721InvalidReceiver(address)": [
        {
          "details": "Indicates a failure with the token `receiver`. Used in transfers.",
          "params": {
            "receiver": "Address to which tokens are being transferred."
          }
        }
      ],
      "ERC721InvalidSender(address)": [
        {
          "details": "Indicates a failure with the token `sender`. Used in transfers.",
          "params": {
            "sender": "Address whose tokens are being transferred."
          }
        }
      ],
      "ERC721NonexistentToken(uint256)": [
        {
          "details": "Indicates a `tokenId` whose `owner` is the zero address.",
          "params": {
            "tokenId": "Identifier number of a token."
          }
        }
      ],
      "ERC721OutOfBoundsIndex(address,uint256)": [
        {
          "details": "An `owner`'s token query was out of bounds for `index`. NOTE: The owner being `address(0)` indicates a global out of bounds index."
        }
      ],
      "InvalidInitialization()": [
        {
          "details": "The contract is already initialized."
        }
      ],
      "NotInitializing()": [
        {
          "details": "The contract is not initializing."
        }
      ],
      "OwnableInvalidOwner(address)": [
        {
          "details": "The owner is not a valid owner account. (eg. `address(0)`)"
        }
      ],
      "OwnableUnauthorizedAccount(address)": [
        {
          "details": "The caller account is not authorized to perform an operation."
        }
      ]
    },
    "events": {
      "Approval(address,address,uint256)": {
        "details": "Emitted when `owner` enables `approved` to manage the `tokenId` token."
      },
      "ApprovalForAll(address,address,bool)": {
        "details": "Emitted when `owner` enables or disables (`approved`) `operator` to manage all of its assets."
      },
      "BatchMetadataUpdate(uint256,uint256)": {
        "details": "This event emits when the metadata of a range of tokens is changed. So that the third-party platforms such as NFT market could timely update the images and related attributes of the NFTs."
      },
      "Initialized(uint64)": {
        "details": "Triggered when the contract has been initialized or reinitialized."
      },
      "MetadataUpdate(uint256)": {
        "details": "This event emits when the metadata of a token is changed. So that the third-party platforms such as NFT market could timely update the images and related attributes of the NFT."
      },
      "Transfer(address,address,uint256)": {
        "details": "Emitted when `tokenId` token is transferred from `from` to `to`."
      }
    },
    "kind": "dev",
    "methods": {
      "approve(address,uint256)": {
        "details": "See {IERC721-approve}."
      },
      "balanceOf(address)": {
        "details": "See {IERC721-balanceOf}."
      },
      "getApproved(uint256)": {
        "details": "See {IERC721-getApproved}."
      },
      "isApprovedForAll(address,address)": {
        "details": "See {IERC721-isApprovedForAll}."
      },
      "name()": {
        "details": "See {IERC721Metadata-name}."
      },
      "owner()": {
        "details": "Returns the address of the current owner."
      },
      "ownerOf(uint256)": {
        "details": "See {IERC721-ownerOf}."
      },
      "renounceOwnership()": {
        "details": "Leaves the contract without owner. It will not be possible to call `onlyOwner` functions. Can only be called by the current owner. NOTE: Renouncing ownership will leave the contract without an owner, thereby disabling any functionality that is only available to the owner."
      },
      "safeTransferFrom(address,address,uint256)": {
        "details": "See {IERC721-safeTransferFrom}."
      },
      "safeTransferFrom(address,address,uint256,bytes)": {
        "details": "See {IERC721-safeTransferFrom}."
      },
      "setApprovalForAll(address,bool)": {
        "details": "See {IERC721-setApprovalForAll}."
      },
      "symbol()": {
        "details": "See {IERC721Metadata-symbol}."
      },
      "tokenByIndex(uint256)": {
        "details": "See {IERC721Enumerable-tokenByIndex}."
      },
      "tokenOfOwnerByIndex(address,uint256)": {
        "details": "See {IERC721Enumerable-tokenOfOwnerByIndex}."
      },
      "totalSupply()": {
        "details": "See {IERC721Enumerable-totalSupply}."
      },
      "transferFrom(address,address,uint256)": {
        "details": "See {IERC721-transferFrom}."
      },
      "transferOwnership(address)": {
        "details": "Transfers ownership of the contract to a new account (`newOwner`). Can only be called by the current owner."
      }
    },
    "version": 1
  },
  "userdoc": {
    "kind": "user",
    "methods": {},
    "version": 1
  }
}