{
  "contractName": "CertixNFT",
  "abi": [
    {
      "inputs": [],
      "name": "ERC721EnumerableForbiddenBatchMint",
      "type": "error"
    },
    {
      "inputs": [
        {
          "internalType": "address",
          "name": "sender",
          "type": "address"
        },
        {
          "internalType": "uint256",
          "name": "tokenId",
          "type": "uint256"
        },
        {
          "internalType": "address",
          "name": "owner",
          "type": "address"
        }
      ],
      "name": "ERC721IncorrectOwner",
      "type": "error"
    },
    {
      "inputs": [
        {
          "internalType": "address",
          "name": "operator",
          "type": "address"
        },
        {
          "internalType": "uint256",
          "name": "tokenId",
          "type": "uint256"
        }
      ],
      "name": "ERC721InsufficientApproval",
      "type": "error"
    },
    {
      "inputs": [
        {
          "internalType": "address",
          "name": "approver",
          "type": "address"
        }
      ],
      "name": "ERC721InvalidApprover",
      "type": "error"
    },
    {
      "inputs": [
        {
          "internalType": "address",
          "name": "operator",
          "type": "address"
        }
      ],
      "name": "ERC721InvalidOperator",
      "type": "error"
    },
    {
      "inputs": [
        {
          "internalType": "address",
          "name": "owner",
          "type": "address"
        }
      ],
      "name": "ERC721InvalidOwner",
      "type": "error"
    },
    {
      "inputs": [
        {
          "internalType": "address",
          "name": "receiver",
          "type": "address"
        }
      ],
      "name": "ERC721InvalidReceiver",
      "type": "error"
    },
    {
      "inputs": [
        {
          "internalType": "address",
          "name": "sender",
          "type": "address"
        }
      ],
      "name": "ERC721InvalidSender",
      "type": "error"
    },
    {
      "inputs": [
        {
          "internalType": "uint256",
          "name": "tokenId",
          "type": "uint256"
        }
      ],
      "name": "ERC721NonexistentToken",
      "type": "error"
    },
    {
      "inputs": [
        {
          "internalType": "address",
          "name": "owner",
          "type": "address"
        },
        {
          "internalType": "uint256",
          "name": "index",
          "type": "uint256"
        }
      ],
      "name": "ERC721OutOfBoundsIndex",
      "type": "error"
    },
    {
      "inputs": [],
      "name": "InvalidInitialization",
      "type": "error"
    },
    {
      "inputs": [],
      "name": "NotInitializing",
      "type": "error"
    },
    {
      "inputs": [
        {
          "internalType": "address",
          "name": "owner",
          "type": "address"
        }
      ],
      "name": "OwnableInvalidOwner",
      "type": "error"
    },
    {
      "inputs": [
        {
          "internalType": "address",
          "name": "account",
          "type": "address"
        }
      ],
      "name": "OwnableUnauthorizedAccount",
      "type": "error"
    },
    {
      "anonymous": false,
      "inputs": [
        {
          "indexed": true,
          "internalType": "address",
          "name": "owner",
          "type": "address"
        },
        {
          "indexed": true,
          "internalType": "address",
          "name": "approved",
          "type": "address"
        },
        {
          "indexed": true,
          "internalType": "uint256",
          "name": "tokenId",
          "type": "uint256"
        }
      ],
      "name": "Approval",
      "type": "event"
    },
    {
      "anonymous": false,
      "inputs": [
        {
          "indexed": true,
          "internalType": "address",
          "name": "owner",
          "type": "address"
        },
        {
          "indexed": true,
          "internalType": "address",
          "name": "operator",
          "type": "address"
        },
        {
          "indexed": false,
          "internalType": "bool",
          "name": "approved",
          "type": "bool"
        }
      ],
      "name": "ApprovalForAll",
      "type": "event"
    },
    {
      "anonymous": false,
      "inputs": [
        {
          "indexed": false,
          "internalType": "uint256",
          "name": "_fromTokenId",
          "type": "uint256"
        },
        {
          "indexed": false,
          "internalType": "uint256",
          "name": "_toTokenId",
          "type": "uint256"
        }
      ],
      "name": "BatchMetadataUpdate",
      "type": "event"
    },
    {
      "anonymous": false,
      "inputs": [
        {
          "indexed": false,
          "internalType": "uint64",
          "name": "version",
          "type": "uint64"
        }
      ],
      "name": "Initialized",
      "type": "event"
    },
    {
      "anonymous": false,
      "inputs": [
        {
          "indexed": false,
          "internalType": "uint256",
          "name": "_tokenId",
          "type": "uint256"
        }
      ],
      "name": "MetadataUpdate",
      "type": "event"
    },
    {
      "anonymous": false,
      "inputs": [
        {
          "indexed": true,
          "internalType": "address",
          "name": "previousOwner",
          "type": "address"
        },
        {
          "indexed": true,
          "internalType": "address",
          "name": "newOwner",
          "type": "address"
        }
      ],
      "name": "OwnershipTransferred",
      "type": "event"
    },
    {
      "anonymous": false,
      "inputs": [
        {
          "indexed": true,
          "internalType": "address",
          "name": "from",
          "type": "address"
        },
        {
          "indexed": true,
          "internalType": "address",
          "name": "to",
          "type": "address"
        },
        {
          "indexed": true,
          "internalType": "uint256",
          "name": "tokenId",
          "type": "uint256"
        }
      ],
      "name": "Transfer",
      "type": "event"
    },
    {
      "inputs": [
        {
          "internalType": "address",
          "name": "to",
          "type": "address"
        },
        {
          "internalType": "uint256",
          "name": "tokenId",
          "type": "uint256"
        }
      ],
      "name": "approve",
      "outputs": [],
      "stateMutability": "nonpayable",
      "type": "function"
    },
    {
      "inputs": [
        {
          "internalType": "address",
          "name": "owner",
          "type": "address"
        }
      ],
      "name": "balanceOf",
      "outputs": [
        {
          "internalType": "uint256",
          "name": "",
          "type": "uint256"
        }
      ],
      "stateMutability": "view",
      "type": "function"
    },
    {
      "inputs": [
        {
          "internalType": "uint256",
          "name": "tokenId",
          "type": "uint256"
        }
      ],
      "name": "getApproved",
      "outputs": [
        {
          "internalType": "address",
          "name": "",
          "type": "address"
        }
      ],
      "stateMutability": "view",
      "type": "function"
    },
    {
      "inputs": [
        {
          "internalType": "address",
          "name": "owner",
          "type": "address"
        },
        {
          "internalType": "address",
          "name": "operator",
          "type": "address"
        }
      ],
      "name": "isApprovedForAll",
      "outputs": [
        {
          "internalType": "bool",
          "name": "",
          "type": "bool"
        }
      ],
      "stateMutability": "view",
      "type": "function"
    },
    {
      "inputs": [
        {
          "internalType": "string",
          "name": "",
          "type": "string"
        }
      ],
      "name": "itemTypes",
      "outputs": [
        {
          "internalType": "uint256",
          "name": "supplyLimit",
          "type": "uint256"
        },
        {
          "internalType": "uint256",
          "name": "currentSupply",
          "type": "uint256"
        },
        {
          "internalType": "uint256",
          "name": "burnCount",
          "type": "uint256"
        },
        {
          "internalType": "uint256",
          "name": "goldWeightInMilligrams",
          "type": "uint256"
        }
      ],
      "stateMutability": "view",
      "type": "function"
    },
    {
      "inputs": [
        {
          "internalType": "uint256",
          "name": "",
          "type": "uint256"
        }
      ],
      "name": "itemTypesList",
      "outputs": [
        {
          "internalType": "string",
          "name": "",
          "type": "string"
        }
      ],
      "stateMutability": "view",
      "type": "function"
    },
    {
      "inputs": [],
      "name": "name",
      "outputs": [
        {
          "internalType": "string",
          "name": "",
          "type": "string"
        }
      ],
      "stateMutability": "view",
      "type": "function"
    },
    {
      "inputs": [],
      "name": "owner",
      "outputs": [
        {
          "internalType": "address",
          "name": "",
          "type": "address"
        }
      ],
      "stateMutability": "view",
      "type": "function"
    },
    {
      "inputs": [
        {
          "internalType": "uint256",
          "name": "tokenId",
          "type": "uint256"
        }
      ],
      "name": "ownerOf",
      "outputs": [
        {
          "internalType": "address",
          "name": "",
          "type": "address"
        }
      ],
      "stateMutability": "view",
      "type": "function"
    },
    {
      "inputs": [],
      "name": "renounceOwnership",
      "outputs": [],
      "stateMutability": "nonpayable",
      "type": "function"
    },
    {
      "inputs": [
        {
          "internalType": "address",
          "name": "from",
          "type": "address"
        },
        {
          "internalType": "address",
          "name": "to",
          "type": "address"
        },
        {
          "internalType": "uint256",
          "name": "tokenId",
          "type": "uint256"
        }
      ],
      "name": "safeTransferFrom",
      "outputs": [],
      "stateMutability": "nonpayable",
      "type": "function"
    },
    {
      "inputs": [
        {
          "internalType": "address",
          "name": "from",
          "type": "address"
        },
        {
          "internalType": "address",
          "name": "to",
          "type": "address"
        },
        {
          "internalType": "uint256",
          "name": "tokenId",
          "type": "uint256"
        },
        {
          "internalType": "bytes",
          "name": "data",
          "type": "bytes"
        }
      ],
      "name": "safeTransferFrom",
      "outputs": [],
      "stateMutability": "nonpayable",
      "type": "function"
    },
    {
      "inputs": [
        {
          "internalType": "address",
          "name": "operator",
          "type": "address"
        },
        {
          "internalType": "bool",
          "name": "approved",
          "type": "bool"
        }
      ],
      "name": "setApprovalForAll",
      "outputs": [],
      "stateMutability": "nonpayable",
      "type": "function"
    },
    {
      "inputs": [],
      "name": "symbol",
      "outputs": [
        {
          "internalType": "string",
          "name": "",
          "type": "string"
        }
      ],
      "stateMutability": "view",
      "type": "function"
    },
    {
      "inputs": [
        {
          "internalType": "uint256",
          "name": "index",
          "type": "uint256"
        }
      ],
      "name": "tokenByIndex",
      "outputs": [
        {
          "internalType": "uint256",
          "name": "",
          "type": "uint256"
        }
      ],
      "stateMutability": "view",
      "type": "function"
    },
    {
      "inputs": [],
      "name": "tokenIdCounter",
      "outputs": [
        {
          "internalType": "uint256",
          "name": "",
          "type": "uint256"
        }
      ],
      "stateMutability": "view",
      "type": "function"
    },
    {
      "inputs": [
        {
          "internalType": "uint256",
          "name": "",
          "type": "uint256"
        }
      ],
      "name": "tokenIdToItemType",
      "outputs": [
        {
          "internalType": "string",
          "name": "",
          "type": "string"
        }
      ],
      "stateMutability": "view",
      "type": "function"
    },
    {
      "inputs": [
        {
          "internalType": "address",
          "name": "owner",
          "type": "address"
        },
        {
          "internalType": "uint256",
          "name": "index",
          "type": "uint256"
        }
      ],
      "name": "tokenOfOwnerByIndex",
      "outputs": [
        {
          "internalType": "uint256",
          "name": "",
          "type": "uint256"
        }
      ],
      "stateMutability": "view",
      "type": "function"
    },
    {
      "inputs": [
        {
          "internalType": "string",
          "name": "",
          "type": "string"
        },
        {
          "internalType": "uint256",
          "name": "",
          "type": "uint256"
        }
      ],
      "name": "tokensByType",
      "outputs": [
        {
          "internalType": "uint256",
          "name": "",
          "type": "uint256"
        }
      ],
      "stateMutability": "view",
      "type": "function"
    },
    {
      "inputs": [],
      "name": "totalGoldWeightInMilligrams",
      "outputs": [
        {
          "internalType": "uint256",
          "name": "",
          "type": "uint256"
        }
      ],
      "stateMutability": "view",
      "type": "function"
    },
    {
      "inputs": [],
      "name": "totalSupply",
      "outputs": [
        {
          "internalType": "uint256",
          "name": "",
          "type": "uint256"
        }
      ],
      "stateMutability": "view",
      "type": "function"
    },
    {
      "inputs": [
        {
          "internalType": "address",
          "name": "from",
          "type": "address"
        },
        {
          "internalType": "address",
          "name": "to",
          "type": "address"
        },
        {
          "internalType": "uint256",
          "name": "tokenId",
          "type": "uint256"
        }
      ],
      "name": "transferFrom",
      "outputs": [],
      "stateMutability": "nonpayable",
      "type": "function"
    },
    {
      "inputs": [
        {
          "internalType": "address",
          "name": "newOwner",
          "type": "address"
        }
      ],
      "name": "transferOwnership",
      "outputs": [],
      "stateMutability": "nonpayable",
      "type": "function"
    },
    {
      "inputs": [],
      "name": "usdtAddress",
      "outputs": [
        {
          "internalType": "address",
          "name": "",
          "type": "address"
        }
      ],
      "stateMutability": "view",
      "type": "function"
    },
    {
      "inputs": [],
      "name": "usdtPerGramGold",
      "outputs": [
        {
          "internalType": "uint256",
          "name": "",
          "type": "uint256"
        }
      ],
      "stateMutability": "view",
      "type": "function"
    },
    {
      "inputs": [
        {
          "internalType": "string",
          "name": "_name",
          "type": "string"
        },
        {
          "internalType": "string",
          "name": "_symbol",
          "type": "string"
        }
      ],
      "name": "initialize",
      "outputs": [],
      "stateMutability": "nonpayable",
      "type": "function"
    },
    {
      "inputs": [
        {
          "internalType": "address",
          "name": "_to",
          "type": "address"
        },
        {
          "internalType": "string",
          "name": "_itemType",
          "type": "string"
        }
      ],
      "name": "mint",
      "outputs": [],
      "stateMutability": "nonpayable",
      "type": "function"
    },
    {
      "inputs": [
        {
          "internalType": "uint256",
          "name": "_tokenId",
          "type": "uint256"
        }
      ],
      "name": "melt",
      "outputs": [],
      "stateMutability": "nonpayable",
      "type": "function"
    },
    {
      "inputs": [
        {
          "internalType": "uint256",
          "name": "weightInMilligrams",
          "type": "uint256"
        }
      ],
      "name": "addGoldWeight",
      "outputs": [],
      "stateMutability": "nonpayable",
      "type": "function"
    },
    {
      "inputs": [
        {
          "internalType": "uint256",
          "name": "weightInMilligrams",
          "type": "uint256"
        }
      ],
      "name": "removeGoldWeight",
      "outputs": [],
      "stateMutability": "nonpayable",
      "type": "function"
    },
    {
      "inputs": [
        {
          "internalType": "string",
          "name": "_itemType",
          "type": "string"
        },
        {
          "internalType": "uint256",
          "name": "_supplyLimit",
          "type": "uint256"
        },
        {
          "internalType": "uint256",
          "name": "_goldWeightInMilligrams",
          "type": "uint256"
        }
      ],
      "name": "defineItemType",
      "outputs": [],
      "stateMutability": "nonpayable",
      "type": "function"
    },
    {
      "inputs": [
        {
          "internalType": "string",
          "name": "_itemType",
          "type": "string"
        },
        {
          "internalType": "string[]",
          "name": "_uris",
          "type": "string[]"
        },
        {
          "internalType": "uint256",
          "name": "_startIndex",
          "type": "uint256"
        }
      ],
      "name": "addMultipleMetadataUrisStartingAtIndex",
      "outputs": [],
      "stateMutability": "nonpayable",
      "type": "function"
    },
    {
      "inputs": [
        {
          "internalType": "string",
          "name": "_itemType",
          "type": "string"
        },
        {
          "internalType": "uint256",
          "name": "_supplyLimit",
          "type": "uint256"
        }
      ],
      "name": "setItemSupplyLimit",
      "outputs": [],
      "stateMutability": "nonpayable",
      "type": "function"
    },
    {
      "inputs": [
        {
          "internalType": "string",
          "name": "_itemType",
          "type": "string"
        },
        {
          "internalType": "uint256",
          "name": "_goldWeightInMilligrams",
          "type": "uint256"
        }
      ],
      "name": "setItemGoldWeight",
      "outputs": [],
      "stateMutability": "nonpayable",
      "type": "function"
    },
    {
      "inputs": [
        {
          "internalType": "address",
          "name": "_owner",
          "type": "address"
        }
      ],
      "name": "tokensOfOwner",
      "outputs": [
        {
          "internalType": "uint256[]",
          "name": "",
          "type": "uint256[]"
        }
      ],
      "stateMutability": "view",
      "type": "function"
    },
    {
      "inputs": [
        {
          "internalType": "string[]",
          "name": "_itemTypes",
          "type": "string[]"
        }
      ],
      "name": "getItemsDetails",
      "outputs": [
        {
          "components": [
            {
              "internalType": "uint256",
              "name": "supplyLimit",
              "type": "uint256"
            },
            {
              "internalType": "uint256",
              "name": "currentSupply",
              "type": "uint256"
            },
            {
              "internalType": "uint256",
              "name": "burnCount",
              "type": "uint256"
            },
            {
              "internalType": "uint256",
              "name": "goldWeightInMilligrams",
              "type": "uint256"
            },
            {
              "internalType": "string[]",
              "name": "metadataUris",
              "type": "string[]"
            }
          ],
          "internalType": "struct CertixNFT.ItemType[]",
          "name": "",
          "type": "tuple[]"
        }
      ],
      "stateMutability": "view",
      "type": "function"
    },
    {
      "inputs": [],
      "name": "getAllItemsDetails",
      "outputs": [
        {
          "components": [
            {
              "internalType": "uint256",
              "name": "supplyLimit",
              "type": "uint256"
            },
            {
              "internalType": "uint256",
              "name": "currentSupply",
              "type": "uint256"
            },
            {
              "internalType": "uint256",
              "name": "burnCount",
              "type": "uint256"
            },
            {
              "internalType": "uint256",
              "name": "goldWeightInMilligrams",
              "type": "uint256"
            },
            {
              "internalType": "string[]",
              "name": "metadataUris",
              "type": "string[]"
            }
          ],
          "internalType": "struct CertixNFT.ItemType[]",
          "name": "",
          "type": "tuple[]"
        }
      ],
      "stateMutability": "view",
      "type": "function"
    },
    {
      "inputs": [],
      "name": "getAllTypes",
      "outputs": [
        {
          "internalType": "string[]",
          "name": "",
          "type": "string[]"
        }
      ],
      "stateMutability": "view",
      "type": "function"
    },
    {
      "inputs": [
        {
          "internalType": "uint256",
          "name": "_tokenId",
          "type": "uint256"
        }
      ],
      "name": "tokenURI",
      "outputs": [
        {
          "internalType": "string",
          "name": "",
          "type": "string"
        }
      ],
      "stateMutability": "view",
      "type": "function"
    },
    {
      "inputs": [
        {
          "internalType": "bytes4",
          "name": "interfaceId",
          "type": "bytes4"
        }
      ],
      "name": "supportsInterface",
      "outputs": [
        {
          "internalType": "bool",
          "name": "",
          "type": "bool"
        }
      ],
      "stateMutability": "view",
      "type": "function"
    },
    {
      "inputs": [
        {
          "internalType": "address",
          "name": "_usdtAddress",
          "type": "address"
        }
      ],
      "name": "setUsdtAddress",
      "outputs": [],
      "stateMutability": "nonpayable",
      "type": "function"
    },
    {
      "inputs": [
        {
          "internalType": "uint256",
          "name": "_usdtPerGramGold",
          "type": "uint256"
        }
      ],
      "name": "setUsdtPerGramGold",
      "outputs": [],
      "stateMutability": "nonpayable",
      "type": "function"
    },
    {
      "inputs": [
        {
          "internalType": "uint256",
          "name": "_amount",
          "type": "uint256"
        },
        {
          "internalType": "address",
          "name": "_to",
          "type": "address"
        }
      ],
      "name": "withdrawUsdt",
      "outputs": [],
      "stateMutability": "nonpayable",
      "type": "function"
    }
  ],
  "bytecode": "0x608060405234801561000f575f80fd5b50615689806200001e5f395ff3fe608060405234801561000f575f80fd5b5060043610610267575f3560e01c8063715018a61161014f578063a22cb465116100c1578063db0c634f11610085578063db0c634f1461076c578063e288efdd14610788578063e9268921146107a4578063e985e9c5146107d4578063f2fde38b14610804578063fc674aa31461082057610267565b8063a22cb465146106cc578063b88d4fde146106e8578063c87b56dd14610704578063d0def52114610734578063d417c2d91461075057610267565b80638c83ed33116101135780638c83ed33146106085780638da5cb5b1461062457806395d89b411461064257806398bdf6f5146106605780639ab4a4451461067e578063a0ea3b8b1461069c57610267565b8063715018a61461054f57806375522fb41461055957806381e844f1146105895780638462151c146105a557806389ffb8a5146105d557610267565b8063394108d1116101e85780635424145b116101ac5780635424145b1461047b5780636352211e14610497578063676058c2146104c75780636b4b654e146104e55780636df3f7fd1461050357806370a082311461051f57610267565b8063394108d1146103c757806342842e0e146103e35780634b5c7974146103ff5780634cd88b761461042f5780634f6ccce71461044b57610267565b80630cb46b751161022f5780630cb46b7514610323578063164176d01461033f57806318160ddd1461035d57806323b872dd1461037b5780632f745c591461039757610267565b806301ffc9a71461026b57806306fdde031461029b578063081812fc146102b9578063095ea7b3146102e957806309dddcf014610305575b5f80fd5b61028560048036038101906102809190613d5a565b61083c565b6040516102929190613d9f565b60405180910390f35b6102a361084d565b6040516102b09190613e42565b60405180910390f35b6102d360048036038101906102ce9190613e95565b6108ea565b6040516102e09190613eff565b60405180910390f35b61030360048036038101906102fe9190613f42565b610905565b005b61030d61091b565b60405161031a9190614083565b60405180910390f35b61033d600480360381019061033891906140a3565b6109ef565b005b610347610a3a565b604051610354919061428e565b60405180910390f35b610365610b16565b60405161037291906142bd565b60405180910390f35b610395600480360381019061039091906142d6565b610b30565b005b6103b160048036038101906103ac9190613f42565b610c2f565b6040516103be91906142bd565b60405180910390f35b6103e160048036038101906103dc9190614534565b610ce0565b005b6103fd60048036038101906103f891906142d6565b610ee4565b005b61041960048036038101906104149190613e95565b610f03565b6040516104269190613e42565b60405180910390f35b610449600480360381019061044491906145bc565b610fa9565b005b61046560048036038101906104609190613e95565b61113d565b60405161047291906142bd565b60405180910390f35b61049560048036038101906104909190614632565b6111bd565b005b6104b160048036038101906104ac9190613e95565b6112a4565b6040516104be9190613eff565b60405180910390f35b6104cf6112b5565b6040516104dc91906142bd565b60405180910390f35b6104ed6112bb565b6040516104fa91906142bd565b60405180910390f35b61051d60048036038101906105189190614670565b6112c1565b005b610539600480360381019061053491906140a3565b6114d8565b60405161054691906142bd565b60405180910390f35b61055761159c565b005b610573600480360381019061056e91906146dc565b6115af565b60405161058091906142bd565b60405180910390f35b6105a3600480360381019061059e9190613e95565b6115f2565b005b6105bf60048036038101906105ba91906140a3565b611615565b6040516105cc91906147de565b60405180910390f35b6105ef60048036038101906105ea91906147fe565b611719565b6040516105ff9493929190614845565b60405180910390f35b610622600480360381019061061d9190613e95565b61175d565b005b61062c6118ad565b6040516106399190613eff565b60405180910390f35b61064a6118e2565b6040516106579190613e42565b60405180910390f35b610668611980565b60405161067591906142bd565b60405180910390f35b610686611985565b6040516106939190613eff565b60405180910390f35b6106b660048036038101906106b19190613e95565b6119aa565b6040516106c39190613e42565b60405180910390f35b6106e660048036038101906106e191906148b2565b611a45565b005b61070260048036038101906106fd919061498e565b611a5b565b005b61071e60048036038101906107199190613e95565b611a78565b60405161072b9190613e42565b60405180910390f35b61074e60048036038101906107499190614a0e565b611a8a565b005b61076a600480360381019061076591906146dc565b611dae565b005b61078660048036038101906107819190613e95565b611e42565b005b6107a2600480360381019061079d9190613e95565b611e54565b005b6107be60048036038101906107b99190614a68565b611ebc565b6040516107cb919061428e565b60405180910390f35b6107ee60048036038101906107e99190614aaf565b6120dc565b6040516107fb9190613d9f565b60405180910390f35b61081e600480360381019061081991906140a3565b612178565b005b61083a600480360381019061083591906146dc565b6121fc565b005b5f6108468261228f565b9050919050565b60605f6108586122ef565b9050805f01805461086890614b1a565b80601f016020809104026020016040519081016040528092919081815260200182805461089490614b1a565b80156108df5780601f106108b6576101008083540402835291602001916108df565b820191905f5260205f20905b8154815290600101906020018083116108c257829003601f168201915b505050505091505090565b5f6108f482612316565b506108fe8261239c565b9050919050565b61091782826109126123e3565b6123ea565b5050565b60606004805480602002602001604051908101604052809291908181526020015f905b828210156109e6578382905f5260205f2001805461095b90614b1a565b80601f016020809104026020016040519081016040528092919081815260200182805461098790614b1a565b80156109d25780601f106109a9576101008083540402835291602001916109d2565b820191905f5260205f20905b8154815290600101906020018083116109b557829003601f168201915b50505050508152602001906001019061093e565b50505050905090565b6109f76123fc565b8060055f6101000a81548173ffffffffffffffffffffffffffffffffffffffff021916908373ffffffffffffffffffffffffffffffffffffffff16021790555050565b6060610b116004805480602002602001604051908101604052809291908181526020015f905b82821015610b08578382905f5260205f20018054610a7d90614b1a565b80601f0160208091040260200160405190810160405280929190818152602001828054610aa990614b1a565b8015610af45780601f10610acb57610100808354040283529160200191610af4565b820191905f5260205f20905b815481529060010190602001808311610ad757829003601f168201915b505050505081526020019060010190610a60565b50505050611ebc565b905090565b5f80610b20612483565b9050806002018054905091505090565b5f73ffffffffffffffffffffffffffffffffffffffff168273ffffffffffffffffffffffffffffffffffffffff1603610ba0575f6040517f64a0ae92000000000000000000000000000000000000000000000000000000008152600401610b979190613eff565b60405180910390fd5b5f610bb38383610bae6123e3565b6124aa565b90508373ffffffffffffffffffffffffffffffffffffffff168173ffffffffffffffffffffffffffffffffffffffff1614610c29578382826040517f64283d7b000000000000000000000000000000000000000000000000000000008152600401610c2093929190614b4a565b60405180910390fd5b50505050565b5f80610c39612483565b9050610c44846114d8565b8310610c895783836040517fa57d13dc000000000000000000000000000000000000000000000000000000008152600401610c80929190614b7f565b60405180910390fd5b805f015f8573ffffffffffffffffffffffffffffffffffffffff1673ffffffffffffffffffffffffffffffffffffffff1681526020019081526020015f205f8481526020019081526020015f205491505092915050565b610ce86123fc565b5f600284604051610cf99190614be0565b90815260200160405180910390205f015403610d4a576040517f08c379a0000000000000000000000000000000000000000000000000000000008152600401610d4190614c40565b60405180910390fd5b600283604051610d5a9190614be0565b908152602001604051809103902060040180549050811115610db1576040517f08c379a0000000000000000000000000000000000000000000000000000000008152600401610da890614ca8565b60405180910390fd5b5f5b8251811015610ede575f8183610dc99190614cf3565b9050600285604051610ddb9190614be0565b9081526020016040518091039020600401805490508110610e6657600285604051610e069190614be0565b9081526020016040518091039020600401848381518110610e2a57610e29614d26565b5b6020026020010151908060018154018082558091505060019003905f5260205f20015f909190919091509081610e609190614ef0565b50610eca565b838281518110610e7957610e78614d26565b5b6020026020010151600286604051610e919190614be0565b90815260200160405180910390206004018281548110610eb457610eb3614d26565b5b905f5260205f20019081610ec89190614ef0565b505b508080610ed690614fbf565b915050610db3565b50505050565b610efe83838360405180602001604052805f815250611a5b565b505050565b60048181548110610f12575f80fd5b905f5260205f20015f915090508054610f2a90614b1a565b80601f0160208091040260200160405190810160405280929190818152602001828054610f5690614b1a565b8015610fa15780601f10610f7857610100808354040283529160200191610fa1565b820191905f5260205f20905b815481529060010190602001808311610f8457829003601f168201915b505050505081565b5f610fb26124bf565b90505f815f0160089054906101000a900460ff161590505f825f015f9054906101000a900467ffffffffffffffff1690505f808267ffffffffffffffff16148015610ffa5750825b90505f60018367ffffffffffffffff1614801561102d57505f3073ffffffffffffffffffffffffffffffffffffffff163b145b90508115801561103b575080155b15611072576040517ff92ee8a900000000000000000000000000000000000000000000000000000000815260040160405180910390fd5b6001855f015f6101000a81548167ffffffffffffffff021916908367ffffffffffffffff16021790555083156110bf576001855f0160086101000a81548160ff0219169083151502179055505b6110c987876124e6565b6110d16124fc565b6110da33612506565b8315611134575f855f0160086101000a81548160ff0219169083151502179055507fc7f505b2f371ae2175ee4913f4499e1f2633a7b5936321eed1cdaeb6115181d2600160405161112b9190615052565b60405180910390a15b50505050505050565b5f80611147612483565b9050611151610b16565b8310611196575f836040517fa57d13dc00000000000000000000000000000000000000000000000000000000815260040161118d929190614b7f565b60405180910390fd5b8060020183815481106111ac576111ab614d26565b5b905f5260205f200154915050919050565b6111c56123fc565b60055f9054906101000a900473ffffffffffffffffffffffffffffffffffffffff1673ffffffffffffffffffffffffffffffffffffffff1663a9059cbb82846040518363ffffffff1660e01b8152600401611221929190614b7f565b6020604051808303815f875af115801561123d573d5f803e3d5ffd5b505050506040513d601f19601f82011682018060405250810190611261919061507f565b6112a0576040517f08c379a0000000000000000000000000000000000000000000000000000000008152600401611297906150f4565b60405180910390fd5b5050565b5f6112ae82612316565b9050919050565b60075481565b60065481565b6112c96123fc565b5f6002846040516112da9190614be0565b90815260200160405180910390205f01541461132b576040517f08c379a00000000000000000000000000000000000000000000000000000000081526004016113229061515c565b60405180910390fd5b600483908060018154018082558091505060019003905f5260205f20015f90919091909150908161135c9190614ef0565b506040518060a001604052808381526020015f81526020015f81526020018281526020016002856040516113909190614be0565b9081526020016040518091039020600401805480602002602001604051908101604052809291908181526020015f905b82821015611468578382905f5260205f200180546113dd90614b1a565b80601f016020809104026020016040519081016040528092919081815260200182805461140990614b1a565b80156114545780601f1061142b57610100808354040283529160200191611454565b820191905f5260205f20905b81548152906001019060200180831161143757829003601f168201915b5050505050815260200190600101906113c0565b5050505081525060028460405161147f9190614be0565b90815260200160405180910390205f820151815f015560208201518160010155604082015181600201556060820151816003015560808201518160040190805190602001906114cf929190613bf7565b50905050505050565b5f806114e26122ef565b90505f73ffffffffffffffffffffffffffffffffffffffff168373ffffffffffffffffffffffffffffffffffffffff1603611554575f6040517f89c62b6400000000000000000000000000000000000000000000000000000000815260040161154b9190613eff565b60405180910390fd5b806003015f8473ffffffffffffffffffffffffffffffffffffffff1673ffffffffffffffffffffffffffffffffffffffff1681526020019081526020015f2054915050919050565b6115a46123fc565b6115ad5f61251a565b565b60038280516020810182018051848252602083016020850120818352809550505050505081815481106115e0575f80fd5b905f5260205f20015f91509150505481565b6115fa6123fc565b8060075f82825461160b9190614cf3565b9250508190555050565b60605f611621836114d8565b90505f810361167b575f67ffffffffffffffff8111156116445761164361432e565b5b6040519080825280602002602001820160405280156116725781602001602082028036833780820191505090505b50915050611714565b5f8167ffffffffffffffff8111156116965761169561432e565b5b6040519080825280602002602001820160405280156116c45781602001602082028036833780820191505090505b5090505f5b8281101561170d576116db8582610c2f565b8282815181106116ee576116ed614d26565b5b602002602001018181525050808061170590614fbf565b9150506116c9565b5080925050505b919050565b6002818051602081018201805184825260208301602085012081835280955050505050505f91509050805f0154908060010154908060020154908060030154905084565b3373ffffffffffffffffffffffffffffffffffffffff1661177d826112a4565b73ffffffffffffffffffffffffffffffffffffffff16146117d3576040517f08c379a00000000000000000000000000000000000000000000000000000000081526004016117ca906151ea565b60405180910390fd5b5f600260015f8481526020019081526020015f206040516117f49190615288565b908152602001604051809103902090505f816003015490505f6301da9a0c670de0b6b3a764000083611826919061529e565b611830919061530c565b905061183b846125eb565b6001836002015f82825461184f9190614cf3565b9250508190555061185f82611e54565b6001600260015f8781526020019081526020015f206040516118819190615288565b90815260200160405180910390206002015f8282546118a09190614cf3565b9250508190555050505050565b5f806118b761266d565b9050805f015f9054906101000a900473ffffffffffffffffffffffffffffffffffffffff1691505090565b60605f6118ed6122ef565b90508060010180546118fe90614b1a565b80601f016020809104026020016040519081016040528092919081815260200182805461192a90614b1a565b80156119755780601f1061194c57610100808354040283529160200191611975565b820191905f5260205f20905b81548152906001019060200180831161195857829003601f168201915b505050505091505090565b5f5481565b60055f9054906101000a900473ffffffffffffffffffffffffffffffffffffffff1681565b6001602052805f5260405f205f9150905080546119c690614b1a565b80601f01602080910402602001604051908101604052809291908181526020018280546119f290614b1a565b8015611a3d5780601f10611a1457610100808354040283529160200191611a3d565b820191905f5260205f20905b815481529060010190602001808311611a2057829003601f168201915b505050505081565b611a57611a506123e3565b8383612694565b5050565b611a66848484610b30565b611a728484848461280b565b50505050565b6060611a83826129bd565b9050919050565b5f600282604051611a9b9190614be0565b90815260200160405180910390209050805f0154816001015410611af4576040517f08c379a0000000000000000000000000000000000000000000000000000000008152600401611aeb906153ac565b60405180910390fd5b8060010154816004018054905011611b41576040517f08c379a0000000000000000000000000000000000000000000000000000000008152600401611b389061543a565b60405180910390fd5b5f6103e86006548360030154611b57919061529e565b611b61919061530c565b9050611b7082600301546115f2565b60055f9054906101000a900473ffffffffffffffffffffffffffffffffffffffff1673ffffffffffffffffffffffffffffffffffffffff166323b872dd3330846040518463ffffffff1660e01b8152600401611bce93929190615458565b6020604051808303815f875af1158015611bea573d5f803e3d5ffd5b505050506040513d601f19601f82011682018060405250810190611c0e919061507f565b611c4d576040517f08c379a0000000000000000000000000000000000000000000000000000000008152600401611c44906150f4565b60405180910390fd5b5f805490505f83600401846001015481548110611c6d57611c6c614d26565b5b905f5260205f20018054611c8090614b1a565b80601f0160208091040260200160405190810160405280929190818152602001828054611cac90614b1a565b8015611cf75780601f10611cce57610100808354040283529160200191611cf7565b820191905f5260205f20905b815481529060010190602001808311611cda57829003601f168201915b505050505090506001846001015f828254611d129190614cf3565b9250508190555060015f80828254611d2a9190614cf3565b925050819055508460015f8481526020019081526020015f209081611d4f9190614ef0565b50600385604051611d609190614be0565b908152602001604051809103902082908060018154018082558091505060019003905f5260205f20015f9091909190915055611d9c8683612ad7565b611da68282612af4565b505050505050565b611db66123fc565b5f600283604051611dc79190614be0565b90815260200160405180910390205f015403611e18576040517f08c379a0000000000000000000000000000000000000000000000000000000008152600401611e0f90614c40565b60405180910390fd5b80600283604051611e299190614be0565b9081526020016040518091039020600301819055505050565b611e4a6123fc565b8060068190555050565b611e5c6123fc565b600754811115611ea1576040517f08c379a0000000000000000000000000000000000000000000000000000000008152600401611e98906154d7565b60405180910390fd5b8060075f828254611eb291906154f5565b9250508190555050565b60605f825167ffffffffffffffff811115611eda57611ed961432e565b5b604051908082528060200260200182016040528015611f1357816020015b611f00613c4e565b815260200190600190039081611ef85790505b5090505f5b83518110156120d2575f6002858381518110611f3757611f36614d26565b5b6020026020010151604051611f4c9190614be0565b90815260200160405180910390205f0154146120bf576002848281518110611f7757611f76614d26565b5b6020026020010151604051611f8c9190614be0565b90815260200160405180910390206040518060a00160405290815f820154815260200160018201548152602001600282015481526020016003820154815260200160048201805480602002602001604051908101604052809291908181526020015f905b82821015612098578382905f5260205f2001805461200d90614b1a565b80601f016020809104026020016040519081016040528092919081815260200182805461203990614b1a565b80156120845780601f1061205b57610100808354040283529160200191612084565b820191905f5260205f20905b81548152906001019060200180831161206757829003601f168201915b505050505081526020019060010190611ff0565b50505050815250508282815181106120b3576120b2614d26565b5b60200260200101819052505b80806120ca90614fbf565b915050611f18565b5080915050919050565b5f806120e66122ef565b9050806005015f8573ffffffffffffffffffffffffffffffffffffffff1673ffffffffffffffffffffffffffffffffffffffff1681526020019081526020015f205f8473ffffffffffffffffffffffffffffffffffffffff1673ffffffffffffffffffffffffffffffffffffffff1681526020019081526020015f205f9054906101000a900460ff1691505092915050565b6121806123fc565b5f73ffffffffffffffffffffffffffffffffffffffff168173ffffffffffffffffffffffffffffffffffffffff16036121f0575f6040517f1e4fbdf70000000000000000000000000000000000000000000000000000000081526004016121e79190613eff565b60405180910390fd5b6121f98161251a565b50565b6122046123fc565b5f6002836040516122159190614be0565b90815260200160405180910390205f015403612266576040517f08c379a000000000000000000000000000000000000000000000000000000000815260040161225d90614c40565b60405180910390fd5b806002836040516122779190614be0565b90815260200160405180910390205f01819055505050565b5f634906490660e01b7bffffffffffffffffffffffffffffffffffffffffffffffffffffffff1916827bffffffffffffffffffffffffffffffffffffffffffffffffffffffff191614806122e857506122e782612b5b565b5b9050919050565b5f7f80bb2b638cc20bc4d0a60d66940f3ab4a00c1d7b313497ca82fb0b4ab0079300905090565b5f8061232183612bd4565b90505f73ffffffffffffffffffffffffffffffffffffffff168173ffffffffffffffffffffffffffffffffffffffff160361239357826040517f7e27328900000000000000000000000000000000000000000000000000000000815260040161238a91906142bd565b60405180910390fd5b80915050919050565b5f806123a66122ef565b9050806004015f8481526020019081526020015f205f9054906101000a900473ffffffffffffffffffffffffffffffffffffffff16915050919050565b5f33905090565b6123f78383836001612c1b565b505050565b6124046123e3565b73ffffffffffffffffffffffffffffffffffffffff166124226118ad565b73ffffffffffffffffffffffffffffffffffffffff1614612481576124456123e3565b6040517f118cdaa70000000000000000000000000000000000000000000000000000000081526004016124789190613eff565b60405180910390fd5b565b5f7f645e039705490088daad89bae25049a34f4a9072d398537b1ab2425f24cbed00905090565b5f6124b6848484612de8565b90509392505050565b5f7ff0c57e16840df040f15088dc2f81fe391c3923bec73e23a9662efc9c229c6a00905090565b6124ee612f02565b6124f88282612f42565b5050565b612504612f02565b565b61250e612f02565b61251781612f7d565b50565b5f61252361266d565b90505f815f015f9054906101000a900473ffffffffffffffffffffffffffffffffffffffff16905082825f015f6101000a81548173ffffffffffffffffffffffffffffffffffffffff021916908373ffffffffffffffffffffffffffffffffffffffff1602179055508273ffffffffffffffffffffffffffffffffffffffff168173ffffffffffffffffffffffffffffffffffffffff167f8be0079c531659141344cd1fd0a4f28419497f9722a3daafe3b4186f6b6457e060405160405180910390a3505050565b5f6125f75f835f6124aa565b90505f73ffffffffffffffffffffffffffffffffffffffff168173ffffffffffffffffffffffffffffffffffffffff160361266957816040517f7e27328900000000000000000000000000000000000000000000000000000000815260040161266091906142bd565b60405180910390fd5b5050565b5f7f9016d09d72d40fdae2fd8ceac6b6234c7706214fd39c1cd1e609a0528c199300905090565b5f61269d6122ef565b90505f73ffffffffffffffffffffffffffffffffffffffff168373ffffffffffffffffffffffffffffffffffffffff160361270f57826040517f5b08ba180000000000000000000000000000000000000000000000000000000081526004016127069190613eff565b60405180910390fd5b81816005015f8673ffffffffffffffffffffffffffffffffffffffff1673ffffffffffffffffffffffffffffffffffffffff1681526020019081526020015f205f8573ffffffffffffffffffffffffffffffffffffffff1673ffffffffffffffffffffffffffffffffffffffff1681526020019081526020015f205f6101000a81548160ff0219169083151502179055508273ffffffffffffffffffffffffffffffffffffffff168473ffffffffffffffffffffffffffffffffffffffff167f17307eab39ab6107e8899845ad3d59bd9653f200f220920489ca2b5937696c31846040516127fd9190613d9f565b60405180910390a350505050565b5f8373ffffffffffffffffffffffffffffffffffffffff163b11156129b7578273ffffffffffffffffffffffffffffffffffffffff1663150b7a0261284e6123e3565b8685856040518563ffffffff1660e01b8152600401612870949392919061557a565b6020604051808303815f875af19250505080156128ab57506040513d601f19601f820116820180604052508101906128a891906155d8565b60015b61292c573d805f81146128d9576040519150601f19603f3d011682016040523d82523d5f602084013e6128de565b606091505b505f81510361292457836040517f64a0ae9200000000000000000000000000000000000000000000000000000000815260040161291b9190613eff565b60405180910390fd5b805181602001fd5b63150b7a0260e01b7bffffffffffffffffffffffffffffffffffffffffffffffffffffffff1916817bffffffffffffffffffffffffffffffffffffffffffffffffffffffff1916146129b557836040517f64a0ae920000000000000000000000000000000000000000000000000000000081526004016129ac9190613eff565b60405180910390fd5b505b50505050565b60605f6129c8613001565b90506129d383612316565b505f815f015f8581526020019081526020015f2080546129f290614b1a565b80601f0160208091040260200160405190810160405280929190818152602001828054612a1e90614b1a565b8015612a695780601f10612a4057610100808354040283529160200191612a69565b820191905f5260205f20905b815481529060010190602001808311612a4c57829003601f168201915b505050505090505f612a79613028565b90505f815103612a8e57819350505050612ad2565b5f82511115612ac3578082604051602001612aaa929190615603565b6040516020818303038152906040529350505050612ad2565b612acc8561303e565b93505050505b919050565b612af0828260405180602001604052805f8152506130a4565b5050565b5f612afd613001565b905081815f015f8581526020019081526020015f209081612b1e9190614ef0565b507ff8e1a15aba9398e019f0b49df1a4fde98ee17ae345cb5f6b5e2c27f5033e8ce783604051612b4e91906142bd565b60405180910390a1505050565b5f7f780e9d63000000000000000000000000000000000000000000000000000000007bffffffffffffffffffffffffffffffffffffffffffffffffffffffff1916827bffffffffffffffffffffffffffffffffffffffffffffffffffffffff19161480612bcd5750612bcc826130bf565b5b9050919050565b5f80612bde6122ef565b9050806002015f8481526020019081526020015f205f9054906101000a900473ffffffffffffffffffffffffffffffffffffffff16915050919050565b5f612c246122ef565b90508180612c5e57505f73ffffffffffffffffffffffffffffffffffffffff168373ffffffffffffffffffffffffffffffffffffffff1614155b15612d90575f612c6d85612316565b90505f73ffffffffffffffffffffffffffffffffffffffff168473ffffffffffffffffffffffffffffffffffffffff1614158015612cd757508373ffffffffffffffffffffffffffffffffffffffff168173ffffffffffffffffffffffffffffffffffffffff1614155b8015612cea5750612ce881856120dc565b155b15612d2c57836040517fa9fbf51f000000000000000000000000000000000000000000000000000000008152600401612d239190613eff565b60405180910390fd5b8215612d8e57848673ffffffffffffffffffffffffffffffffffffffff168273ffffffffffffffffffffffffffffffffffffffff167f8c5be1e5ebec7d5bd14f71427d1e84f3dd0314c0f7b2291e5b200ac8c7c3b92560405160405180910390a45b505b84816004015f8681526020019081526020015f205f6101000a81548173ffffffffffffffffffffffffffffffffffffffff021916908373ffffffffffffffffffffffffffffffffffffffff1602179055505050505050565b5f80612df58585856131a0565b90505f73ffffffffffffffffffffffffffffffffffffffff168173ffffffffffffffffffffffffffffffffffffffff1603612e3857612e33846133bd565b612e77565b8473ffffffffffffffffffffffffffffffffffffffff168173ffffffffffffffffffffffffffffffffffffffff1614612e7657612e758185613413565b5b5b5f73ffffffffffffffffffffffffffffffffffffffff168573ffffffffffffffffffffffffffffffffffffffff1603612eb857612eb384613572565b612ef7565b8473ffffffffffffffffffffffffffffffffffffffff168173ffffffffffffffffffffffffffffffffffffffff1614612ef657612ef5858561364c565b5b5b809150509392505050565b612f0a6136df565b612f40576040517fd7e6bcf800000000000000000000000000000000000000000000000000000000815260040160405180910390fd5b565b612f4a612f02565b5f612f536122ef565b905082815f019081612f659190614ef0565b5081816001019081612f779190614ef0565b50505050565b612f85612f02565b5f73ffffffffffffffffffffffffffffffffffffffff168173ffffffffffffffffffffffffffffffffffffffff1603612ff5575f6040517f1e4fbdf7000000000000000000000000000000000000000000000000000000008152600401612fec9190613eff565b60405180910390fd5b612ffe8161251a565b50565b5f7f0542a41881ee128a365a727b282c86fa859579490b9bb45aab8503648c8e7900905090565b606060405180602001604052805f815250905090565b606061304982612316565b505f613053613028565b90505f8151116130715760405180602001604052805f81525061309c565b8061307b846136fd565b60405160200161308c929190615603565b6040516020818303038152906040525b915050919050565b6130ae83836137c7565b6130ba5f84848461280b565b505050565b5f7f80ac58cd000000000000000000000000000000000000000000000000000000007bffffffffffffffffffffffffffffffffffffffffffffffffffffffff1916827bffffffffffffffffffffffffffffffffffffffffffffffffffffffff1916148061318957507f5b5e139f000000000000000000000000000000000000000000000000000000007bffffffffffffffffffffffffffffffffffffffffffffffffffffffff1916827bffffffffffffffffffffffffffffffffffffffffffffffffffffffff1916145b806131995750613198826138ba565b5b9050919050565b5f806131aa6122ef565b90505f6131b685612bd4565b90505f73ffffffffffffffffffffffffffffffffffffffff168473ffffffffffffffffffffffffffffffffffffffff16146131f7576131f6818587613923565b5b5f73ffffffffffffffffffffffffffffffffffffffff168173ffffffffffffffffffffffffffffffffffffffff1614613284576132365f865f80612c1b565b6001826003015f8373ffffffffffffffffffffffffffffffffffffffff1673ffffffffffffffffffffffffffffffffffffffff1681526020019081526020015f205f82825403925050819055505b5f73ffffffffffffffffffffffffffffffffffffffff168673ffffffffffffffffffffffffffffffffffffffff1614613305576001826003015f8873ffffffffffffffffffffffffffffffffffffffff1673ffffffffffffffffffffffffffffffffffffffff1681526020019081526020015f205f82825401925050819055505b85826002015f8781526020019081526020015f205f6101000a81548173ffffffffffffffffffffffffffffffffffffffff021916908373ffffffffffffffffffffffffffffffffffffffff160217905550848673ffffffffffffffffffffffffffffffffffffffff168273ffffffffffffffffffffffffffffffffffffffff167fddf252ad1be2c89b69c2b068fc378daa952ba7f163c4a11628f55a4df523b3ef60405160405180910390a480925050509392505050565b5f6133c6612483565b90508060020180549050816003015f8481526020019081526020015f20819055508060020182908060018154018082558091505060019003905f5260205f20015f90919091909150555050565b5f61341c612483565b90505f613428846114d8565b90505f826001015f8581526020019081526020015f20549050818114613505575f835f015f8773ffffffffffffffffffffffffffffffffffffffff1673ffffffffffffffffffffffffffffffffffffffff1681526020019081526020015f205f8481526020019081526020015f2054905080845f015f8873ffffffffffffffffffffffffffffffffffffffff1673ffffffffffffffffffffffffffffffffffffffff1681526020019081526020015f205f8481526020019081526020015f208190555081846001015f8381526020019081526020015f2081905550505b826001015f8581526020019081526020015f205f9055825f015f8673ffffffffffffffffffffffffffffffffffffffff1673ffffffffffffffffffffffffffffffffffffffff1681526020019081526020015f205f8381526020019081526020015f205f90555050505050565b5f61357b612483565b90505f6001826002018054905061359291906154f5565b90505f826003015f8581526020019081526020015f205490505f8360020183815481106135c2576135c1614d26565b5b905f5260205f2001549050808460020183815481106135e4576135e3614d26565b5b905f5260205f20018190555081846003015f8381526020019081526020015f2081905550836003015f8681526020019081526020015f205f90558360020180548061363257613631615626565b5b600190038181905f5260205f20015f905590555050505050565b5f613655612483565b90505f6001613663856114d8565b61366d91906154f5565b905082825f015f8673ffffffffffffffffffffffffffffffffffffffff1673ffffffffffffffffffffffffffffffffffffffff1681526020019081526020015f205f8381526020019081526020015f208190555080826001015f8581526020019081526020015f208190555050505050565b5f6136e86124bf565b5f0160089054906101000a900460ff16905090565b60605f600161370b846139e6565b0190505f8167ffffffffffffffff8111156137295761372861432e565b5b6040519080825280601f01601f19166020018201604052801561375b5781602001600182028036833780820191505090505b5090505f82602001820190505b6001156137bc578080600190039150507f3031323334353637383961626364656600000000000000000000000000000000600a86061a8153600a85816137b1576137b06152df565b5b0494505f8503613768575b819350505050919050565b5f73ffffffffffffffffffffffffffffffffffffffff168273ffffffffffffffffffffffffffffffffffffffff1603613837575f6040517f64a0ae9200000000000000000000000000000000000000000000000000000000815260040161382e9190613eff565b60405180910390fd5b5f61384383835f6124aa565b90505f73ffffffffffffffffffffffffffffffffffffffff168173ffffffffffffffffffffffffffffffffffffffff16146138b5575f6040517f73c6ac6e0000000000000000000000000000000000000000000000000000000081526004016138ac9190613eff565b60405180910390fd5b505050565b5f7f01ffc9a7000000000000000000000000000000000000000000000000000000007bffffffffffffffffffffffffffffffffffffffffffffffffffffffff1916827bffffffffffffffffffffffffffffffffffffffffffffffffffffffff1916149050919050565b61392e838383613b37565b6139e1575f73ffffffffffffffffffffffffffffffffffffffff168373ffffffffffffffffffffffffffffffffffffffff16036139a257806040517f7e27328900000000000000000000000000000000000000000000000000000000815260040161399991906142bd565b60405180910390fd5b81816040517f177e802f0000000000000000000000000000000000000000000000000000000081526004016139d8929190614b7f565b60405180910390fd5b505050565b5f805f90507a184f03e93ff9f4daa797ed6e38ed64bf6a1f0100000000000000008310613a42577a184f03e93ff9f4daa797ed6e38ed64bf6a1f0100000000000000008381613a3857613a376152df565b5b0492506040810190505b6d04ee2d6d415b85acef81000000008310613a7f576d04ee2d6d415b85acef81000000008381613a7557613a746152df565b5b0492506020810190505b662386f26fc100008310613aae57662386f26fc100008381613aa457613aa36152df565b5b0492506010810190505b6305f5e1008310613ad7576305f5e1008381613acd57613acc6152df565b5b0492506008810190505b6127108310613afc576127108381613af257613af16152df565b5b0492506004810190505b60648310613b1f5760648381613b1557613b146152df565b5b0492506002810190505b600a8310613b2e576001810190505b80915050919050565b5f8073ffffffffffffffffffffffffffffffffffffffff168373ffffffffffffffffffffffffffffffffffffffff1614158015613bee57508273ffffffffffffffffffffffffffffffffffffffff168473ffffffffffffffffffffffffffffffffffffffff161480613baf5750613bae84846120dc565b5b80613bed57508273ffffffffffffffffffffffffffffffffffffffff16613bd58361239c565b73ffffffffffffffffffffffffffffffffffffffff16145b5b90509392505050565b828054828255905f5260205f20908101928215613c3d579160200282015b82811115613c3c578251829081613c2c9190614ef0565b5091602001919060010190613c15565b5b509050613c4a9190613c79565b5090565b6040518060a001604052805f81526020015f81526020015f81526020015f8152602001606081525090565b5b80821115613c98575f8181613c8f9190613c9c565b50600101613c7a565b5090565b508054613ca890614b1a565b5f825580601f10613cb95750613cd6565b601f0160209004905f5260205f2090810190613cd59190613cd9565b5b50565b5b80821115613cf0575f815f905550600101613cda565b5090565b5f604051905090565b5f80fd5b5f80fd5b5f7fffffffff0000000000000000000000000000000000000000000000000000000082169050919050565b613d3981613d05565b8114613d43575f80fd5b50565b5f81359050613d5481613d30565b92915050565b5f60208284031215613d6f57613d6e613cfd565b5b5f613d7c84828501613d46565b91505092915050565b5f8115159050919050565b613d9981613d85565b82525050565b5f602082019050613db25f830184613d90565b92915050565b5f81519050919050565b5f82825260208201905092915050565b5f5b83811015613def578082015181840152602081019050613dd4565b5f8484015250505050565b5f601f19601f8301169050919050565b5f613e1482613db8565b613e1e8185613dc2565b9350613e2e818560208601613dd2565b613e3781613dfa565b840191505092915050565b5f6020820190508181035f830152613e5a8184613e0a565b905092915050565b5f819050919050565b613e7481613e62565b8114613e7e575f80fd5b50565b5f81359050613e8f81613e6b565b92915050565b5f60208284031215613eaa57613ea9613cfd565b5b5f613eb784828501613e81565b91505092915050565b5f73ffffffffffffffffffffffffffffffffffffffff82169050919050565b5f613ee982613ec0565b9050919050565b613ef981613edf565b82525050565b5f602082019050613f125f830184613ef0565b92915050565b613f2181613edf565b8114613f2b575f80fd5b50565b5f81359050613f3c81613f18565b92915050565b5f8060408385031215613f5857613f57613cfd565b5b5f613f6585828601613f2e565b9250506020613f7685828601613e81565b9150509250929050565b5f81519050919050565b5f82825260208201905092915050565b5f819050602082019050919050565b5f82825260208201905092915050565b5f613fc382613db8565b613fcd8185613fa9565b9350613fdd818560208601613dd2565b613fe681613dfa565b840191505092915050565b5f613ffc8383613fb9565b905092915050565b5f602082019050919050565b5f61401a82613f80565b6140248185613f8a565b93508360208202850161403685613f9a565b805f5b8581101561407157848403895281516140528582613ff1565b945061405d83614004565b925060208a01995050600181019050614039565b50829750879550505050505092915050565b5f6020820190508181035f83015261409b8184614010565b905092915050565b5f602082840312156140b8576140b7613cfd565b5b5f6140c584828501613f2e565b91505092915050565b5f81519050919050565b5f82825260208201905092915050565b5f819050602082019050919050565b61410081613e62565b82525050565b5f82825260208201905092915050565b5f61412082613f80565b61412a8185614106565b93508360208202850161413c85613f9a565b805f5b8581101561417757848403895281516141588582613ff1565b945061416383614004565b925060208a0199505060018101905061413f565b50829750879550505050505092915050565b5f60a083015f83015161419e5f8601826140f7565b5060208301516141b160208601826140f7565b5060408301516141c460408601826140f7565b5060608301516141d760608601826140f7565b50608083015184820360808601526141ef8282614116565b9150508091505092915050565b5f6142078383614189565b905092915050565b5f602082019050919050565b5f614225826140ce565b61422f81856140d8565b935083602082028501614241856140e8565b805f5b8581101561427c578484038952815161425d85826141fc565b94506142688361420f565b925060208a01995050600181019050614244565b50829750879550505050505092915050565b5f6020820190508181035f8301526142a6818461421b565b905092915050565b6142b781613e62565b82525050565b5f6020820190506142d05f8301846142ae565b92915050565b5f805f606084860312156142ed576142ec613cfd565b5b5f6142fa86828701613f2e565b935050602061430b86828701613f2e565b925050604061431c86828701613e81565b9150509250925092565b5f80fd5b5f80fd5b7f4e487b71000000000000000000000000000000000000000000000000000000005f52604160045260245ffd5b61436482613dfa565b810181811067ffffffffffffffff821117156143835761438261432e565b5b80604052505050565b5f614395613cf4565b90506143a1828261435b565b919050565b5f67ffffffffffffffff8211156143c0576143bf61432e565b5b6143c982613dfa565b9050602081019050919050565b828183375f83830152505050565b5f6143f66143f1846143a6565b61438c565b9050828152602081018484840111156144125761441161432a565b5b61441d8482856143d6565b509392505050565b5f82601f83011261443957614438614326565b5b81356144498482602086016143e4565b91505092915050565b5f67ffffffffffffffff82111561446c5761446b61432e565b5b602082029050602081019050919050565b5f80fd5b5f61449361448e84614452565b61438c565b905080838252602082019050602084028301858111156144b6576144b561447d565b5b835b818110156144fd57803567ffffffffffffffff8111156144db576144da614326565b5b8086016144e88982614425565b855260208501945050506020810190506144b8565b5050509392505050565b5f82601f83011261451b5761451a614326565b5b813561452b848260208601614481565b91505092915050565b5f805f6060848603121561454b5761454a613cfd565b5b5f84013567ffffffffffffffff81111561456857614567613d01565b5b61457486828701614425565b935050602084013567ffffffffffffffff81111561459557614594613d01565b5b6145a186828701614507565b92505060406145b286828701613e81565b9150509250925092565b5f80604083850312156145d2576145d1613cfd565b5b5f83013567ffffffffffffffff8111156145ef576145ee613d01565b5b6145fb85828601614425565b925050602083013567ffffffffffffffff81111561461c5761461b613d01565b5b61462885828601614425565b9150509250929050565b5f806040838503121561464857614647613cfd565b5b5f61465585828601613e81565b925050602061466685828601613f2e565b9150509250929050565b5f805f6060848603121561468757614686613cfd565b5b5f84013567ffffffffffffffff8111156146a4576146a3613d01565b5b6146b086828701614425565b93505060206146c186828701613e81565b92505060406146d286828701613e81565b9150509250925092565b5f80604083850312156146f2576146f1613cfd565b5b5f83013567ffffffffffffffff81111561470f5761470e613d01565b5b61471b85828601614425565b925050602061472c85828601613e81565b9150509250929050565b5f81519050919050565b5f82825260208201905092915050565b5f819050602082019050919050565b5f61476a83836140f7565b60208301905092915050565b5f602082019050919050565b5f61478c82614736565b6147968185614740565b93506147a183614750565b805f5b838110156147d15781516147b8888261475f565b97506147c383614776565b9250506001810190506147a4565b5085935050505092915050565b5f6020820190508181035f8301526147f68184614782565b905092915050565b5f6020828403121561481357614812613cfd565b5b5f82013567ffffffffffffffff8111156148305761482f613d01565b5b61483c84828501614425565b91505092915050565b5f6080820190506148585f8301876142ae565b61486560208301866142ae565b61487260408301856142ae565b61487f60608301846142ae565b95945050505050565b61489181613d85565b811461489b575f80fd5b50565b5f813590506148ac81614888565b92915050565b5f80604083850312156148c8576148c7613cfd565b5b5f6148d585828601613f2e565b92505060206148e68582860161489e565b9150509250929050565b5f67ffffffffffffffff82111561490a5761490961432e565b5b61491382613dfa565b9050602081019050919050565b5f61493261492d846148f0565b61438c565b90508281526020810184848401111561494e5761494d61432a565b5b6149598482856143d6565b509392505050565b5f82601f83011261497557614974614326565b5b8135614985848260208601614920565b91505092915050565b5f805f80608085870312156149a6576149a5613cfd565b5b5f6149b387828801613f2e565b94505060206149c487828801613f2e565b93505060406149d587828801613e81565b925050606085013567ffffffffffffffff8111156149f6576149f5613d01565b5b614a0287828801614961565b91505092959194509250565b5f8060408385031215614a2457614a23613cfd565b5b5f614a3185828601613f2e565b925050602083013567ffffffffffffffff811115614a5257614a51613d01565b5b614a5e85828601614425565b9150509250929050565b5f60208284031215614a7d57614a7c613cfd565b5b5f82013567ffffffffffffffff811115614a9a57614a99613d01565b5b614aa684828501614507565b91505092915050565b5f8060408385031215614ac557614ac4613cfd565b5b5f614ad285828601613f2e565b9250506020614ae385828601613f2e565b9150509250929050565b7f4e487b71000000000000000000000000000000000000000000000000000000005f52602260045260245ffd5b5f6002820490506001821680614b3157607f821691505b602082108103614b4457614b43614aed565b5b50919050565b5f606082019050614b5d5f830186613ef0565b614b6a60208301856142ae565b614b776040830184613ef0565b949350505050565b5f604082019050614b925f830185613ef0565b614b9f60208301846142ae565b9392505050565b5f81905092915050565b5f614bba82613db8565b614bc48185614ba6565b9350614bd4818560208601613dd2565b80840191505092915050565b5f614beb8284614bb0565b915081905092915050565b7f4974656d5479706520646f6573206e6f742065786973740000000000000000005f82015250565b5f614c2a601783613dc2565b9150614c3582614bf6565b602082019050919050565b5f6020820190508181035f830152614c5781614c1e565b9050919050565b7f537461727420696e646578206f7574206f6620626f756e6473000000000000005f82015250565b5f614c92601983613dc2565b9150614c9d82614c5e565b602082019050919050565b5f6020820190508181035f830152614cbf81614c86565b9050919050565b7f4e487b71000000000000000000000000000000000000000000000000000000005f52601160045260245ffd5b5f614cfd82613e62565b9150614d0883613e62565b9250828201905080821115614d2057614d1f614cc6565b5b92915050565b7f4e487b71000000000000000000000000000000000000000000000000000000005f52603260045260245ffd5b5f819050815f5260205f209050919050565b5f6020601f8301049050919050565b5f82821b905092915050565b5f60088302614daf7fffffffffffffffffffffffffffffffffffffffffffffffffffffffffffffffff82614d74565b614db98683614d74565b95508019841693508086168417925050509392505050565b5f819050919050565b5f614df4614def614dea84613e62565b614dd1565b613e62565b9050919050565b5f819050919050565b614e0d83614dda565b614e21614e1982614dfb565b848454614d80565b825550505050565b5f90565b614e35614e29565b614e40818484614e04565b505050565b5b81811015614e6357614e585f82614e2d565b600181019050614e46565b5050565b601f821115614ea857614e7981614d53565b614e8284614d65565b81016020851015614e91578190505b614ea5614e9d85614d65565b830182614e45565b50505b505050565b5f82821c905092915050565b5f614ec85f1984600802614ead565b1980831691505092915050565b5f614ee08383614eb9565b9150826002028217905092915050565b614ef982613db8565b67ffffffffffffffff811115614f1257614f1161432e565b5b614f1c8254614b1a565b614f27828285614e67565b5f60209050601f831160018114614f58575f8415614f46578287015190505b614f508582614ed5565b865550614fb7565b601f198416614f6686614d53565b5f5b82811015614f8d57848901518255600182019150602085019450602081019050614f68565b86831015614faa5784890151614fa6601f891682614eb9565b8355505b6001600288020188555050505b505050505050565b5f614fc982613e62565b91507fffffffffffffffffffffffffffffffffffffffffffffffffffffffffffffffff8203614ffb57614ffa614cc6565b5b600182019050919050565b5f819050919050565b5f67ffffffffffffffff82169050919050565b5f61503c61503761503284615006565b614dd1565b61500f565b9050919050565b61504c81615022565b82525050565b5f6020820190506150655f830184615043565b92915050565b5f8151905061507981614888565b92915050565b5f6020828403121561509457615093613cfd565b5b5f6150a18482850161506b565b91505092915050565b7f55534454207472616e73666572206661696c65640000000000000000000000005f82015250565b5f6150de601483613dc2565b91506150e9826150aa565b602082019050919050565b5f6020820190508181035f83015261510b816150d2565b9050919050565b7f4974656d207479706520616c726561647920646566696e6564000000000000005f82015250565b5f615146601983613dc2565b915061515182615112565b602082019050919050565b5f6020820190508181035f8301526151738161513a565b9050919050565b7f596f75206d757374206f776e2074686520746f6b656e20746f206d656c7420695f8201527f7400000000000000000000000000000000000000000000000000000000000000602082015250565b5f6151d4602183613dc2565b91506151df8261517a565b604082019050919050565b5f6020820190508181035f830152615201816151c8565b9050919050565b5f815461521481614b1a565b61521e8186614ba6565b9450600182165f8114615238576001811461524d5761527f565b60ff198316865281151582028601935061527f565b61525685614d53565b5f5b8381101561527757815481890152600182019150602081019050615258565b838801955050505b50505092915050565b5f6152938284615208565b915081905092915050565b5f6152a882613e62565b91506152b383613e62565b92508282026152c181613e62565b915082820484148315176152d8576152d7614cc6565b5b5092915050565b7f4e487b71000000000000000000000000000000000000000000000000000000005f52601260045260245ffd5b5f61531682613e62565b915061532183613e62565b925082615331576153306152df565b5b828204905092915050565b7f537570706c79206c696d6974207265616368656420666f7220746869732069745f8201527f656d207479706500000000000000000000000000000000000000000000000000602082015250565b5f615396602783613dc2565b91506153a18261533c565b604082019050919050565b5f6020820190508181035f8301526153c38161538a565b9050919050565b7f4e6f7420656e6f756768206d6574616461746120555249732070726f766964655f8201527f6400000000000000000000000000000000000000000000000000000000000000602082015250565b5f615424602183613dc2565b915061542f826153ca565b604082019050919050565b5f6020820190508181035f83015261545181615418565b9050919050565b5f60608201905061546b5f830186613ef0565b6154786020830185613ef0565b61548560408301846142ae565b949350505050565b7f496e73756666696369656e7420676f6c642077656967687400000000000000005f82015250565b5f6154c1601883613dc2565b91506154cc8261548d565b602082019050919050565b5f6020820190508181035f8301526154ee816154b5565b9050919050565b5f6154ff82613e62565b915061550a83613e62565b925082820390508181111561552257615521614cc6565b5b92915050565b5f81519050919050565b5f82825260208201905092915050565b5f61554c82615528565b6155568185615532565b9350615566818560208601613dd2565b61556f81613dfa565b840191505092915050565b5f60808201905061558d5f830187613ef0565b61559a6020830186613ef0565b6155a760408301856142ae565b81810360608301526155b98184615542565b905095945050505050565b5f815190506155d281613d30565b92915050565b5f602082840312156155ed576155ec613cfd565b5b5f6155fa848285016155c4565b91505092915050565b5f61560e8285614bb0565b915061561a8284614bb0565b91508190509392505050565b7f4e487b71000000000000000000000000000000000000000000000000000000005f52603160045260245ffdfea2646970667358221220662ad68c8f5db0d0b27026a79f03ec1e8c0daa24fa04038a8ea6a1c9a047c6b864736f6c63430008140033",
  "immutableReferences": {},
  "source": "// SPDX-License-Identifier: MIT\npragma solidity ^0.8.20;\n\nimport \"@openzeppelin/contracts-upgradeable/token/ERC721/extensions/ERC721EnumerableUpgradeable.sol\";\nimport \"@openzeppelin/contracts-upgradeable/proxy/utils/Initializable.sol\";\nimport \"@openzeppelin/contracts-upgradeable/access/OwnableUpgradeable.sol\";\nimport \"@openzeppelin/contracts-upgradeable/token/ERC721/extensions/ERC721URIStorageUpgradeable.sol\";\nimport \"@openzeppelin/contracts-upgradeable/token/ERC721/ERC721Upgradeable.sol\";\nimport \"@openzeppelin/contracts/token/ERC20/IERC20.sol\";\n\ninterface CERTIX_TOKEN {\n    struct Tier {\n        string name;\n        uint256 minCertixBalance;\n        bool canMint;\n        bool canMelt;\n        bool canMerge;\n        bool hasAuctionAccess;\n        uint256 magicItemLootingChance;\n        uint256 maxWeightForMergeInMilligrams;\n        uint256 transactionBurnFee;\n        uint256 mintingFeePercentage;\n        uint256 meltingFeePercentage;\n        uint256 auctionFeePercentage;\n    }\n    function getUserTier(address _wallet) external returns (Tier memory);\n}\n\n\n\n// Declaring the contract which is initializable for upgradeability, and inheriting ERC721 functionality, ownership, and URI storage.\ncontract CertixNFT is Initializable, ERC721Upgradeable, ERC721EnumerableUpgradeable, ERC721URIStorageUpgradeable, OwnableUpgradeable {\n\n    // Structure to hold item type information, including its supply limit, current supply, and weight in gold.\n    struct ItemType {\n        uint256 supplyLimit;\n        uint256 currentSupply;\n        uint256 burnCount;\n        uint256 goldWeightInMilligrams; // Using milligrams for precision\n        string[] metadataUris;\n    }\n\n    // A counter to keep track of token IDs.\n    uint256 public tokenIdCounter;\n    // Mapping from token ID to its item type.\n    mapping(uint256 => string) public tokenIdToItemType;\n    // Mapping from item type name to its details.\n    mapping(string => ItemType) public itemTypes;\n    //Mapping of token ids by item type name\n    mapping(string => uint256[]) public tokensByType;\n    string[] public itemTypesList;\n    address public usdtAddress;\n    uint256 public usdtPerGramGold;\n    // Total weight in milligrams of Certix gold items\n    uint256 public totalGoldWeightInMilligrams;\n\n    // Contract initialization function, replacing the constructor for upgradeable contracts.\n    function initialize(string memory _name, string memory _symbol) public initializer {\n        __ERC721_init(_name, _symbol);\n        __ERC721URIStorage_init();\n        __Ownable_init(msg.sender);\n    }\n\n    // Function to mint new tokens, ensuring the supply limit for the item type has not been reached.\n    function mint(address _to, string memory _itemType) public {\n        ItemType storage item = itemTypes[_itemType];//Get the item\n\n        //TODO CALL TIER CONTRACT -> CanMint(msg.sender)\n\n        //Check supply limit\n        require(item.currentSupply < item.supplyLimit, \"Supply limit reached for this item type\");\n        //Check if an uri exists\n        require(item.metadataUris.length > item.currentSupply, \"Not enough metadata URIs provided\");\n\n        // Calculate the required USDT amount based on gold weight in milligrams\n        // Assuming usdtPerGramGold is per gram, convert milligrams to grams for calculation\n        uint256 requiredUsdtAmount = (item.goldWeightInMilligrams * usdtPerGramGold) / 1000;\n\n        //Add item's weight\n        addGoldWeight(item.goldWeightInMilligrams);\n\n        //TODO Fees FROM Tier contract to cold wallet\n\n        // Transfer USDT from the user to the contract\n        //TODO THINK ABOUT IT -> VAULT ?\n        require(IERC20(usdtAddress).transferFrom(msg.sender, address(this), requiredUsdtAmount), \"USDT transfer failed\");\n\n        //Get token id\n        uint256 tokenId = tokenIdCounter;\n        //Get token uri\n        string memory tokenUri = item.metadataUris[item.currentSupply];\n\n        item.currentSupply += 1;\n        tokenIdCounter += 1;\n        tokenIdToItemType[tokenId] = _itemType;\n        tokensByType[_itemType].push(tokenId);\n\n        _safeMint(_to, tokenId);\n        _setTokenURI(tokenId, tokenUri);\n    }\n\n    // Overrides required by Solidity for the ERC721 and URI storage functionalities.\n    function melt(uint256 _tokenId) public {\n        require(ownerOf(_tokenId) == msg.sender, \"You must own the token to melt it\");\n\n        ItemType storage itemType = itemTypes[tokenIdToItemType[_tokenId]];\n        uint256 goldWeightInMilligrams = itemType.goldWeightInMilligrams;\n        \n        // Convert item weight from milligrams to troy ounces for XAU\n        // 1 troy ounce = 31.1035 grams = 31,103.5 milligrams\n        // Using Solidity to avoid floating-point precision issues\n        uint256 xautAmount = (goldWeightInMilligrams * 10**18) / 31103500; // Adding 10**18 for precision\n\n        _burn(_tokenId);\n        itemType.burnCount += 1;\n\n        //Remove item's weight\n        removeGoldWeight(goldWeightInMilligrams);\n\n        // Ensure your contract has enough XAU to perform the transfer\n        //TODO from vault\n        //require(IERC20(xautAddress).transfer(msg.sender, xautAmount), \"Failed to transfer XAU\");\n\n        // Adjust the burn count\n        itemTypes[tokenIdToItemType[_tokenId]].burnCount += 1;\n    }\n\n    // Function to add gold weight when a new Certix NFT is minted\n    function addGoldWeight(uint256 weightInMilligrams) public onlyOwner {\n        totalGoldWeightInMilligrams += weightInMilligrams;\n    }\n\n    // Function to remove gold weight when an Certix NFT is burned\n    function removeGoldWeight(uint256 weightInMilligrams) public onlyOwner {\n        require(weightInMilligrams <= totalGoldWeightInMilligrams, \"Insufficient gold weight\");\n        totalGoldWeightInMilligrams -= weightInMilligrams;\n    }\n\n    // Functions to define or update item types and their properties. These functions are protected by the `onlyOwner` modifier.\n    function defineItemType(string memory _itemType, uint256 _supplyLimit, uint256 _goldWeightInMilligrams) public onlyOwner {\n        // Check if item type doesn't exist\n        require(itemTypes[_itemType].supplyLimit == 0, \"Item type already defined\");\n\n        itemTypesList.push(_itemType);\n\n        itemTypes[_itemType] = ItemType(_supplyLimit, 0, 0, _goldWeightInMilligrams, itemTypes[_itemType].metadataUris);\n    }\n\n    function addMultipleMetadataUrisStartingAtIndex(string memory _itemType, string[] memory _uris, uint256 _startIndex) public onlyOwner {\n        require(itemTypes[_itemType].supplyLimit != 0, \"ItemType does not exist\");\n        \n        // Ensure the start index is within the current bounds of the array\n        require(_startIndex <= itemTypes[_itemType].metadataUris.length, \"Start index out of bounds\");\n\n        for (uint256 i = 0; i < _uris.length; i++) {\n            uint256 currentIndex = _startIndex + i;\n\n            // Check if we need to append or replace within the array\n            if (currentIndex >= itemTypes[_itemType].metadataUris.length) {\n                // Append the new URI to the array\n                itemTypes[_itemType].metadataUris.push(_uris[i]);\n            } else {\n                // Replace the URI at the specified index\n                itemTypes[_itemType].metadataUris[currentIndex] = _uris[i];\n            }\n        }\n    }\n\n    // Function to set the supply limit for a specific item type. \n    function setItemSupplyLimit(string memory _itemType, uint256 _supplyLimit) public onlyOwner {\n        require(itemTypes[_itemType].supplyLimit != 0, \"ItemType does not exist\");\n        itemTypes[_itemType].supplyLimit = _supplyLimit;\n    }\n\n    // Function to set the gold weight in grams for a specific item type. \n    function setItemGoldWeight(string memory _itemType, uint256 _goldWeightInMilligrams) public onlyOwner {\n        require(itemTypes[_itemType].supplyLimit != 0, \"ItemType does not exist\");\n        itemTypes[_itemType].goldWeightInMilligrams = _goldWeightInMilligrams;\n    }\n\n    // Function to get an array of token IDs owned by a specific address. Potentially gas-intensive for large datasets.\n    function tokensOfOwner(address _owner) public view returns (uint256[] memory) {\n        uint256 ownerTokenCount = balanceOf(_owner);\n        if (ownerTokenCount == 0) {\n            return new uint256[](0) ; // Return an empty array if the owner has no tokens\n        } else {\n            uint256[] memory ownedTokenIds = new uint256[](ownerTokenCount);\n            for (uint256 index = 0; index < ownerTokenCount; index++) {\n                ownedTokenIds[index] = tokenOfOwnerByIndex(_owner, index);\n            }\n\n            return ownedTokenIds;\n        }\n    }\n\n    // Function to retrieve details for a list of item types.\n    function getItemsDetails(string[] memory _itemTypes) public view returns (ItemType[] memory) {\n        ItemType[] memory itemsDetails = new ItemType[](_itemTypes.length);\n        for (uint256 i = 0; i < _itemTypes.length; i++) {\n            if (itemTypes[_itemTypes[i]].supplyLimit != 0) { // Ensure the item type exists\n                itemsDetails[i] = itemTypes[_itemTypes[i]];\n            }\n        }\n        return itemsDetails;\n    }\n\n    // Function to retrieve details for all item types.\n    function getAllItemsDetails() public view returns (ItemType[] memory) {\n        return getItemsDetails(itemTypesList);\n    }\n\n    // Function to retrieve details for all item types.\n    function getAllTypes() public view returns (string[] memory) {\n        return itemTypesList;\n    }\n\n    // Override of the tokenURI function from the ERC721URIStorage extension.\n    function tokenURI(uint256 _tokenId) public view override(ERC721Upgradeable, ERC721URIStorageUpgradeable) returns (string memory) {\n        return super.tokenURI(_tokenId);\n    }\n\n    // Override of the supportsInterface function from the ERC721URIStorage extension.\n    function supportsInterface(bytes4 interfaceId) public view override(ERC721Upgradeable, ERC721EnumerableUpgradeable, ERC721URIStorageUpgradeable) returns (bool) {\n        return super.supportsInterface(interfaceId);\n    }\n\n    // Override the conflicting functions\n    function _increaseBalance(address account, uint128 value) internal override(ERC721Upgradeable, ERC721EnumerableUpgradeable) {\n        super._increaseBalance(account, value);\n    }\n\n    function _update(address to, uint256 tokenId, address auth) internal override(ERC721Upgradeable, ERC721EnumerableUpgradeable) returns (address) {\n        return super._update(to, tokenId, auth);\n    }\n\n    function setUsdtAddress(address _usdtAddress) public onlyOwner {\n        usdtAddress = _usdtAddress;\n    }\n\n    function setUsdtPerGramGold(uint256 _usdtPerGramGold) public onlyOwner {\n        usdtPerGramGold = _usdtPerGramGold;\n    }\n\n    function withdrawUsdt(uint256 _amount, address _to) public onlyOwner {\n        require(IERC20(usdtAddress).transfer(_to, _amount), \"USDT transfer failed\");\n    }\n}",
  "sourcePath": "/Users/maximereynders/Documents/CertixGold/certix-contracts/contracts/CertixNFT.sol",
  "compiler": {
    "name": "solc",
    "version": "0.8.20+commit.a1b79de6.Emscripten.clang"
  },
  "schemaVersion": "3.4.16",
  "updatedAt": "2024-03-25T23:23:51.958Z",
  "devdoc": {
    "errors": {
      "ERC721EnumerableForbiddenBatchMint()": [
        {
          "details": "Batch mint is not allowed."
        }
      ],
      "ERC721IncorrectOwner(address,uint256,address)": [
        {
          "details": "Indicates an error related to the ownership over a particular token. Used in transfers.",
          "params": {
            "owner": "Address of the current owner of a token.",
            "sender": "Address whose tokens are being transferred.",
            "tokenId": "Identifier number of a token."
          }
        }
      ],
      "ERC721InsufficientApproval(address,uint256)": [
        {
          "details": "Indicates a failure with the `operator`s approval. Used in transfers.",
          "params": {
            "operator": "Address that may be allowed to operate on tokens without being their owner.",
            "tokenId": "Identifier number of a token."
          }
        }
      ],
      "ERC721InvalidApprover(address)": [
        {
          "details": "Indicates a failure with the `approver` of a token to be approved. Used in approvals.",
          "params": {
            "approver": "Address initiating an approval operation."
          }
        }
      ],
      "ERC721InvalidOperator(address)": [
        {
          "details": "Indicates a failure with the `operator` to be approved. Used in approvals.",
          "params": {
            "operator": "Address that may be allowed to operate on tokens without being their owner."
          }
        }
      ],
      "ERC721InvalidOwner(address)": [
        {
          "details": "Indicates that an address can't be an owner. For example, `address(0)` is a forbidden owner in EIP-20. Used in balance queries.",
          "params": {
            "owner": "Address of the current owner of a token."
          }
        }
      ],
      "ERC721InvalidReceiver(address)": [
        {
          "details": "Indicates a failure with the token `receiver`. Used in transfers.",
          "params": {
            "receiver": "Address to which tokens are being transferred."
          }
        }
      ],
      "ERC721InvalidSender(address)": [
        {
          "details": "Indicates a failure with the token `sender`. Used in transfers.",
          "params": {
            "sender": "Address whose tokens are being transferred."
          }
        }
      ],
      "ERC721NonexistentToken(uint256)": [
        {
          "details": "Indicates a `tokenId` whose `owner` is the zero address.",
          "params": {
            "tokenId": "Identifier number of a token."
          }
        }
      ],
      "ERC721OutOfBoundsIndex(address,uint256)": [
        {
          "details": "An `owner`'s token query was out of bounds for `index`. NOTE: The owner being `address(0)` indicates a global out of bounds index."
        }
      ],
      "InvalidInitialization()": [
        {
          "details": "The contract is already initialized."
        }
      ],
      "NotInitializing()": [
        {
          "details": "The contract is not initializing."
        }
      ],
      "OwnableInvalidOwner(address)": [
        {
          "details": "The owner is not a valid owner account. (eg. `address(0)`)"
        }
      ],
      "OwnableUnauthorizedAccount(address)": [
        {
          "details": "The caller account is not authorized to perform an operation."
        }
      ]
    },
    "events": {
      "Approval(address,address,uint256)": {
        "details": "Emitted when `owner` enables `approved` to manage the `tokenId` token."
      },
      "ApprovalForAll(address,address,bool)": {
        "details": "Emitted when `owner` enables or disables (`approved`) `operator` to manage all of its assets."
      },
      "BatchMetadataUpdate(uint256,uint256)": {
        "details": "This event emits when the metadata of a range of tokens is changed. So that the third-party platforms such as NFT market could timely update the images and related attributes of the NFTs."
      },
      "Initialized(uint64)": {
        "details": "Triggered when the contract has been initialized or reinitialized."
      },
      "MetadataUpdate(uint256)": {
        "details": "This event emits when the metadata of a token is changed. So that the third-party platforms such as NFT market could timely update the images and related attributes of the NFT."
      },
      "Transfer(address,address,uint256)": {
        "details": "Emitted when `tokenId` token is transferred from `from` to `to`."
      }
    },
    "kind": "dev",
    "methods": {
      "approve(address,uint256)": {
        "details": "See {IERC721-approve}."
      },
      "balanceOf(address)": {
        "details": "See {IERC721-balanceOf}."
      },
      "getApproved(uint256)": {
        "details": "See {IERC721-getApproved}."
      },
      "isApprovedForAll(address,address)": {
        "details": "See {IERC721-isApprovedForAll}."
      },
      "name()": {
        "details": "See {IERC721Metadata-name}."
      },
      "owner()": {
        "details": "Returns the address of the current owner."
      },
      "ownerOf(uint256)": {
        "details": "See {IERC721-ownerOf}."
      },
      "renounceOwnership()": {
        "details": "Leaves the contract without owner. It will not be possible to call `onlyOwner` functions. Can only be called by the current owner. NOTE: Renouncing ownership will leave the contract without an owner, thereby disabling any functionality that is only available to the owner."
      },
      "safeTransferFrom(address,address,uint256)": {
        "details": "See {IERC721-safeTransferFrom}."
      },
      "safeTransferFrom(address,address,uint256,bytes)": {
        "details": "See {IERC721-safeTransferFrom}."
      },
      "setApprovalForAll(address,bool)": {
        "details": "See {IERC721-setApprovalForAll}."
      },
      "symbol()": {
        "details": "See {IERC721Metadata-symbol}."
      },
      "tokenByIndex(uint256)": {
        "details": "See {IERC721Enumerable-tokenByIndex}."
      },
      "tokenOfOwnerByIndex(address,uint256)": {
        "details": "See {IERC721Enumerable-tokenOfOwnerByIndex}."
      },
      "totalSupply()": {
        "details": "See {IERC721Enumerable-totalSupply}."
      },
      "transferFrom(address,address,uint256)": {
        "details": "See {IERC721-transferFrom}."
      },
      "transferOwnership(address)": {
        "details": "Transfers ownership of the contract to a new account (`newOwner`). Can only be called by the current owner."
      }
    },
    "version": 1
  },
  "userdoc": {
    "kind": "user",
    "methods": {},
    "version": 1
  }
}